:100000000C9437020C94C2090C947E020C947E026C
:100010000C947E020C947E020C947E020C947E0260
:100020000C947E020C947E020C948F210C9461221D
:100030000C94E6170C947E020C947E020C947E02C3
:100040000C947E020C947E020C947E020C947E0230
:100050000C947E020C9433180C947E020C947E0255
:100060000C947E020C947E020C947E020C947E0210
:100070000C947E020C947E020C947E020C947E0200
:100080000C947E020C947E020C947E020C947E02F0
:100090000C947E020C947E020C947E020C947E02E0
:1000A0000C947E020C947E020C947E021F0D1F0D98
:1000B000510D510D9E0DBC0DDD0EDD0EC70D5C0EFC
:1000C0006D0E6D0ECD0EDD0EDD0ED60E7D0F7D0F8D
:1000D0008F0F8F0F860F8F0F8F0F8F0F7D0F7D0F5D
:1000E0008B0F8F0F8F0F8B0F331C291C361C7E1C20
:1000F000821C821C7E1C821C821C571C821C611C60
:100100006B1C821C821C821C821C7E1C821C821C1A
:100110007E1C821C441C821C821C7B1C7B1C7B1C46
:100120007B1C7B1C7B1C7B1C7B1C7B1C801C821C0B
:10013000331C261C821C821C821C821C821C821C7A
:10014000821C821C821C821C801C821C821C7E1CC5
:10015000821C791C791C791C791C791C791C791CEE
:10016000791C791C801CCE22F522ED23F522ED238B
:1001700041236423ED23BB23CA2314001A00080083
:100180001500170004611643074409000A001D62A8
:100190001B64060019000541134512000C001800ED
:1001A0001C0033610F000E000D000B003872370089
:1001B0003600100011421E001F0020002100220006
:1001C0003A003B003C003D003E0001000100010000
:1001D0000100010027002600250024002300430021
:1001E0004200410040003F00450044000100010082
:1001F00001001E021F022002210222020100010052
:1002000001000100010001000100010001000100E6
:1002100027022602250224022302350001000100E4
:1002200001000100010001000100010001000100C6
:100230000100E300010001002B0001002C0201007D
:100240004C0001000100010001002A004D004B009C
:100250004E004A0001004F0052005100500028009B
:1002600001000100010001002C000100010001005B
:100270000100010001000100010001000100010076
:1002800001000100010001000100010034003502FD
:10029000350030002F002E002D00310030022F02DB
:1002A0002E022D023102B200B500B100B3000100F0
:1002B0000100010001000100010001000100010036
:1002C0000100005C01000100010001004600BE5C6D
:1002D000BD5C0100010001000100010001000100FE
:1002E000010004033000000028035400680065008A
:1002F000200066006F006F00620061007200200045
:100300004B006500790062006F00610072006400BC
:1003100000000C0364006900300069006200000006
:100320000403090409023B00020100A0FA090400C9
:100330000001030101000921110100012240000711
:1003400005810308000A09040100010300000009F7
:10035000211101000122BC000705820320000A12BE
:1003600001100100000008EDFE0C0A000F0102035D
:100370000105010902A10185020901A10005091970
:100380000129051500250195057501810295017565
:100390000381010501093009311581257F95027519
:1003A00008810609381581257F95017508810605A4
:1003B0000C0A38021581257F950175088106C0C099
:1003C00005010980A101850319012AB7001501263D
:1003D000B700950175108100C0050C0901A10185C8
:1003E0000419012AA002150126A0029501751081A9
:1003F00000C005010906A1018505050719E029E7E7
:10040000150025019508750181020507190029EFDE
:100410001500250195F075018102050819012905CE
:10042000950575019102950175039101C0050109BA
:1004300006A101050719E029E715002501950875B2
:100440000181029501750881010507190029FF1531
:100450000026FF0095067508810005081901290589
:10046000950575019102950175039101C000112454
:100470001FBECFEFDAE0DEBFCDBF04B603FE27C05C
:100480008091820290918302A0918402B0918502B2
:100490008730904BA740B04BD1F41092820210925B
:1004A0008302109284021092850214BE84B7877F63
:1004B00084BF0FB6F894A8958091600088618093FE
:1004C0006000109260000FBEE0E0F8E3099511E0D3
:1004D000A0E0B1E0E6E2F9E402C005900D92A63991
:1004E000B107D9F722E0A6E9B1E001C01D92A23818
:1004F000B207E1F70E94BE1E0C9491240C940000F8
:100500000C948A020C948B020C9488020C948C023A
:1005100081E0089508950895089581E0089508956B
:100520000C948F021F93CF93DF9300D000D01F92C3
:10053000CDB7DEB749835A836B833091B20189818D
:100540009A81311114C0662359F0222349F00E9488
:10055000F214182F682F89819A810E94991403C080
:100560000E94C514182F69817A81812F04C00E94CE
:10057000F21469817A810F900F900F900F900F9075
:10058000DF91CF911F910C944303FC01262F4081F2
:1005900051816281738184810C949202CF93DF93A5
:1005A000EC0160E00E94C502BE01DF91CF910C9486
:1005B00090020E946C180E942A16811102C00E94AB
:1005C000CA160C9480020C94820281E008950C9467
:1005D000E502CF93C82F0E9486028C2F0E94E7026B
:1005E000CF91089508950E946B0F0E94F2022FEFA1
:1005F00084E39CE0215080409040E1F700C000007F
:100600000C9459180F931F93CF93DF93EC0161E083
:100610000E94C5028C01BE010E948402882349F118
:10062000BE01C8010E947C07882319F1BE01C801E0
:100630000E94BD078823E9F0BE01C8010E94E808B6
:100640008823B9F08A81882369F001158CE51807A1
:1006500031F00E3D1C4531F40E94CA160AC00E94BA
:10066000F30207C0CE01DF91CF911F910F910C943F
:100670008D0280E0DF91CF911F910F91089580E06E
:1006800090E0089508952EE1829FC0011124FC019D
:1006900025E0729FE00DF11D1124E60FF11DEE0F14
:1006A000FF1FE658FE4F859194910895880F991F7A
:1006B000FC01EE51FD4F859194910895CF93DF9306
:1006C0000E9443030E947604EC018115904508F0D6
:1006D00041C0C11580E4D80708F0D1C0C83ED1059B
:1006E00010F5C03ED10508F0FDC0C83AD10578F438
:1006F000C53AD10508F0A2C0C130D10509F4F2C055
:1007000008F4EEC0C430D10508F0ECC0E9C0CF3B1E
:10071000D10508F49BC0C03CD10508F4E1C0CE016E
:10072000805C91099EC0C11590E2D90758F4C115AB
:1007300021E0D20708F0D6C0C03FD10508F4D0C0F0
:10074000D065D0C0C11580E3D80708F08EC0CE01B7
:100750009F7087C0C11595E5D90708F043C0C11542
:1007600024E5D20708F0A2C0C11582E5D80708F534
:10077000C11591E5D90708F085C0CE0174E09695C2
:1007800087957A95E1F783709C2F937021E030E094
:1007900002C0220F331F9A95E2F73C68382BCF70C6
:1007A000C695C69580E2C89FE0011124C22BD32BC9
:1007B00099C09E01237033278C2F86958695C1158D
:1007C000D34508F064C0C1E0D0E002C0CC0FDD1F0B
:1007D0002A95E2F720E2829FC0011124C82BD92B71
:1007E000DC6880C0C11529E5D207A0F4C11588E5F1
:1007F000D80708F060C0C11596E5D90708F070C0A9
:100800008C2F0E940A058F71C82FD0E0DC2FCC27D7
:10081000D06268C0C1152AE5D20708F451C0CE01E4
:1008200090568115904208F05BC08D2F8F710E9409
:100830000A05DD27D0628F71D82B54C0C55AD0E08D
:10084000C45BDE4FC881D0E0D0644CC0C85AD0E051
:10085000CC0FDD1FC25EDE4F0990D881C02DD4645D
:1008600041C00E945603EC013DC0CE019927D3FF41
:1008700003C0EC01D86C36C0EC01D06C33C0DF7023
:10088000D06A30C0DC2FCC27C16FD06A2BC0C1E04A
:10089000D0E002C0CC0FDD1F2A95E2F720E2829F54
:1008A000C0011124C82BD92BDA681CC0DC2FCC273F
:1008B000C46FD06A17C0DC2FCC27C06FD06A12C0BB
:1008C0008C2F8F700E940A0594E0D695C7959A9553
:1008D000E1F7CF70D0E0DC2FCC27D069C82B02C065
:1008E000C0E0D0E0CE01DF91CF910895823891052C
:1008F00069F1B0F48133910509F46DC048F489328F
:10090000910509F463C08A32910509F469C008951C
:100910008533910509F455C089339105B9F00895DF
:10092000833E910569F138F4803E9105B1F0823E35
:10093000910509F10895863E9105A9F1873E91053B
:10094000B9F1843E910509F064C023C0209173027F
:1009500020FD4FC021FD4DC008958091730280FDA0
:1009600044C08091740280FF44C08091730284FD72
:1009700042C083EE4DC08091730282FF38C0F5CF34
:100980008091730282FD33C08091740280FD31C07A
:10099000ECCF8091740281FF32C08091730284FD9C
:1009A0002AC087EE35C08091730283FF26C0F5CF41
:1009B0008091730283FD21C08091740281FD1FC06C
:1009C000ECCF8091730285FD1CC01DC08091730225
:1009D00085FD19C016C08091730286FD16C017C030
:1009E0008091730286FD13C010C089E311C082EEAE
:1009F0000FC080EE0DC080E00BC086EE09C084EE13
:100A000007C089E205C085E303C08AE201C081E333
:100A100090E008959091730292FF0DC0282F2871E5
:100A2000283019F4877F846006C0282F2471243071
:100A300011F48B7F886093FF0DC0282F2871283117
:100A400019F4877E846106C0282F2471243111F4A3
:100A50008B7E88612091740220FF0DC0382F387181
:100A6000383019F4877F816006C0382F31713130FA
:100A700011F48E7F886021FF0DC0282F2871283146
:100A800019F4877E816106C0282F2171213111F46C
:100A90008E7E886194FD877E0895E82FF0E0E95905
:100AA000FD4F80810895089580EA8A95F1F70895B1
:100AB0000895CF93DF930E94C80680910001809132
:100AC0000001811102C093E001C090E090936E029A
:100AD00083E0891B80936D02A4E5B1E047E551E016
:100AE00061E070E08D91E82FE295EF70F0E021A1D8
:100AF0008F70EB0102C0CC0FDD1F8A95E2F7CE01AB
:100B00009C2F9095922391A392A1892B82A34A179F
:100B10005B0741F7AFE4B1E044E551E061E070E02C
:100B20008D91E82FE295EF70F0E021A18F70EB013D
:100B300002C0CC0FDD1F8A95E2F7CE019C2F909565
:100B4000922391A392A1892B82A34A175B0741F7B5
:100B5000E1E6F2E0A7E6B2E087E692E011921D92AC
:100B60008E179F07D9F783E00E946F060E94D90273
:100B7000DF91CF910C94D2060E94A6068823E9F05B
:100B800080916D0290E089599D4F0E94E506811188
:100B900010C0809196018F5F80939601863058F047
:100BA000E0916D02F0E0E959FD4F1082118212824E
:100BB00002C0109296010C94E30280916E0290E0C4
:100BC00089599D4F0E94FB060C9458056F927F92A5
:100BD0008F929F92AF92BF92CF92DF92EF92FF924D
:100BE0000F931F93CF93DF9384E5882E81E0982E97
:100BF00001E612E094E6A92E92E0B92E712CCC24E5
:100C0000C394D12CF40181914F01C82FC295CF70AC
:100C1000D0E099A18F70760101C0EE0C8A95EAF7B9
:100C2000892F8E2989A38AA16E2C609486218AA39C
:100C30000E945405EFE4F1E040E050E020E0319103
:100C4000A32FA295AF70B0E090968C9190E03F708A
:100C500002C0959587953A95E2F780FD07C08C2DE7
:100C6000042E01C0880F0A94EAF701C080E0282B07
:100C70004F5F5F4F4530510511F789A1682269A286
:100C80008AA1E82AEAA2F8018081281719F02083B6
:100C900081E001C080E0782A0F5F1F4FA016B106E7
:100CA00009F0B0CF60916E0270E069597D4F272D39
:100CB00043E081E692E00E9470060E94BC05872D09
:100CC000DF91CF911F910F91FF90EF90DF90CF9028
:100CD000BF90AF909F908F907F906F9008950895F0
:100CE000FF920F931F93CF93DF938C01F62ED72F94
:100CF000C42F222349F081E0809399010E941818A3
:100D00009093980180939701809199018823C1F075
:100D100080919701909198010E942418069780F085
:100D2000EF2DFD2FD8014C2F50E0CD01801B910BF2
:100D3000841795071CF48D918193F7CF1092990138
:100D4000DF91CF911F910F91FF90089580919A01AB
:100D5000811112C08091D80080618093D8008AE10F
:100D60008A95F1F700C08091D90080FD02C082E031
:100D700001C081E080939A0181E090919A019130C5
:100D800009F080E008950E94A60691E08927089561
:100D90000E94C306809300010E94A60681110C9454
:100DA000D90608950E94A606811102C00C94DF06A0
:100DB000089561E070E081E091E00C94740961E0D5
:100DC00070E081E091E00C947B09CF93DF93EC011C
:100DD0000E94130A892B59F480919C018883809189
:100DE0009D01898380919E018A8381E001C080E01A
:100DF000DF91CF910895DC018C91ECE9F1E08083E3
:100E000011968C911197818312968C91828308950B
:100E10000F931F93CF93DF93C62FD42F122FFC0174
:100E200082818823C9F06093A1010E9418189093D1
:100E3000A00180939F0180E28C0F883008F057C09A
:100E4000C77081E001C0880FCA95EAF7DF91CF91A2
:100E50001F910F910C94DB0C8091A101681330C09D
:100E600080919F019091A0010E942418883C9105D7
:100E700038F500E20D0FCD17B9F080E28C0F883005
:100E800040F4C77081E001C0880FCA95EAF70E945C
:100E9000E20C083028F581E09D2F977001C0880F83
:100EA0009A95EAF70E94DB0C812F0E94C80C08304B
:100EB000F0F4D77081E001C0880FDA95EAF70AC034
:100EC00080E28C0F883098F4C77081E001C0880FF1
:100ED000CA95EAF7DF91CF911F910F910C94E20C24
:100EE000812FDF91CF911F910F910C94C80CDF914E
:100EF000CF911F910F9108959C01CB01233F4CE5A9
:100F00003407F9F078F4283DFCE53F07B9F0293DB6
:100F10004CE5340711F1273D3C4531F526E241EE21
:100F200061EE1EC0253FFCE53F0799F070F0263FBB
:100F30003C45D1F427E245EE66EE12C027E245EECD
:100F40000EC026E241EE60EE0BC027E245EE64EEF5
:100F500007C026E241EE62EE03C028E241E065EE02
:100F60000E94080780E00895FC018281882319F01F
:100F70001092A101089581E00895CF93DF93EC01D1
:100F8000FB018281882309F41FC1C230FCE5DF0721
:100F900008F41BC1C6319CE5D90738F09E012A5FD1
:100FA0003C452930310508F010C10E943D16909350
:100FB000740280937302C031ECE5DE0709F4C3C00C
:100FC00008F041C0C8308CE5D80709F49AC0F0F4A5
:100FD000C430ECE5DE0709F487C068F4C2308CE564
:100FE000D80709F477C0C330DC4509F0E3C080912D
:100FF0007302826076C0C630ECE5DE0709F46EC08D
:1010000008F07BC08091730288606BC0CC308CE5A7
:10101000D80709F485C068F4CA30ECE5DE0709F4A6
:1010200074C008F079C00E946B0F809173028068D1
:1010300058C0CE308CE5D80709F476C008F07FC0E0
:10104000809173028BC0CB3FECE5DE0709F44FC003
:1010500018F5C3318CE5D80709F47DC078F4C131A7
:10106000ECE5DE0709F473C0C231DC4509F0A2C02B
:101070000E946B0F809173028F7733C0C5318CE56E
:10108000D80709F472C008F486C0CA3FDC4509F0ED
:1010900091C0809174023EC0CF3FFCE5DF0709F4A8
:1010A0005FC058F4CD3F9CE5D90709F444C008F46B
:1010B0003FC08091740282602DC0C130FDE5DF0722
:1010C00009F475C008F45DC0C230DD4509F072C096
:1010D00080E06EC080917302816003C080917302D2
:1010E00080618093730266C08091730211C0809109
:1010F00074028260809374025DC08091730280628A
:10110000F0CF809173028064ECCF8091730288608D
:101110008460E7CF8160EECF809173028E7FE1CF54
:10112000809173028D7FDDCF80917302877FD9CF4D
:101130008091740218C0809174028D7FDBCF809102
:1011400073028F7ECECF809173028F7DCACF809144
:1011500073028F7BC6CF80917302877F8B7FC1CF55
:10116000809174028D7F8E7FC5CF8091730282FB48
:10117000222720F991E0922790FB82F990FB83F9D6
:10118000B0CF80917402982F909591708E7F892BAB
:1011900090FB81F9AFCF0E946B0F8091730287FBA8
:1011A000222720F991E0922790FB87F99ACF81E0DE
:1011B0000E94CC1680917302909174020E944E1688
:1011C0000E946B0F80E001C081E0DF91CF91089514
:1011D000CF93DF9386319C4541F5EB010E94731557
:1011E000982F8A812091090130910A01882379F092
:1011F0009A7A81E009F480E08093A201911102C003
:1012000069E201C065E3C9010E9467170AC08091C5
:10121000A201811102C069E201C065E3C9010E9417
:1012200072170E94C11580E001C081E0DF91CF916B
:1012300008958EE1489B02C08150E1F7489BFECFA4
:101240000895589880E28A95F1F7589A0895FC011C
:101250002AE02A95F1F728E090E080E031E040E1D3
:101260004A95F1F7880F489B02C08160932700C020
:10127000000040E14A95F1F7215089F720E12A95D5
:10128000F1F729B100C0000030E13A95F1F7217083
:1012900092272081920F90830895EF92FF920F93EF
:1012A0001F93CF93DF931F92CDB7DEB719828C01C6
:1012B0007C01E60EF11C0E151F0551F00E94190964
:1012C000CE0101960E942709F80181938F01F3CF87
:1012D00081E09981911180E00F90DF91CF911F9172
:1012E0000F91FF90EF9008959093A4018093A30134
:1012F000509A589A08959093A4018093A30150980E
:10130000589AE89AE9E6F0E080818C7F808308951E
:10131000615091E001C0990F6A95EAF720E031E051
:10132000992361F0492F482319F0589A232701C0C7
:10133000589840E24A95F1F79695F2CF222311F0A2
:10134000589A01C0589880E28A95F1F75898089504
:10135000FF920F931F93CF93DF93EC018C01060F45
:10136000111DC017D10741F0F9900E94210968E0D2
:101370008F2D0E948809F5CFDF91CF911F910F919A
:10138000FF9008951F920F920FB60F9211242F9382
:101390003F934F935F936F937F938F939F93AF93FD
:1013A000BF93CF93DF93EF93FF935898509AC091D8
:1013B000A301D091A4016D81662321F08E819F81CC
:1013C0000E94A8090E94210980E18A95F1F75898A6
:1013D0005098589A80E18A95F1F76A81662351F016
:1013E0008B819C810E944D09E881F981811104C0A3
:1013F00082E003C0E881F98188E080830E941909B6
:10140000FF91EF91DF91CF91BF91AF919F918F911C
:101410007F916F915F914F913F912F910F900FBEF0
:101420000F901F901895CF93DF93C091A301D09197
:10143000A401F894509A589885E08A95F1F7000035
:101440005098589A80E28A95F1F7489B0AC0509AC2
:10145000589AE881F98181E08083789481E090E076
:101460002CC06D81662381F08E819F810E944D0981
:1014700081110AC0509A589AE881F98182E08083EC
:10148000789482E090E019C00E94190980E28A9560
:10149000F1F75898509A80E18A95F1F76A816623AE
:1014A00021F08B819C810E94A8090E942109E8817A
:1014B000F9811082789480E090E0DF91CF910895D7
:1014C0009093AA018093A9010895E091A901F09158
:1014D000AA01309721F00190F081E02D099480E07D
:1014E0000895E091A901F091AA01309799F0209117
:1014F0001D01222359F02091730227FF07C0DC0150
:101500002C9111962C93119725E02C930280F38156
:10151000E02D09940895E091A901F091AA01309776
:1015200039F022E0DC012C930480F581E02D099450
:1015300008952091A7013091A8012817390771F06B
:101540009093A8018093A701E091A901F091AA01CD
:10155000309721F00680F781E02D099408952091BD
:10156000A5013091A6012817390771F09093A601C3
:101570008093A501E091A901F091AA01309721F093
:101580000084F185E02D0994089585B7806885BFB2
:1015900085B7806885BF089508950C94CC0A0C9493
:1015A000CD0A0C94CC0A0C94CC0A0E94C50A0E9465
:1015B000D10A0C94CF0A0C94A6060E940F180E9420
:1015C00059050E9480180C94D30AAF92BF92CF9213
:1015D000DF92EF92FF920F931F93CF93DF93CDB7DC
:1015E000DEB72A970FB6F894DEBF0FBECDBF0E94BC
:1015F000E6050E94DB0A811111C08FEF89838A837F
:101600001B820E9418188160782F9D838C834981EA
:101610005A816B818D810E947D0B40C08CEAA82E7F
:1016200081E0B82E00E010E0C02E802F0E944D0512
:10163000E82EF501D1905F01D82631F40F5F1F4FDE
:101640000630110589F7D9CF80912C0281FD0E94C7
:10165000530580E0FF24F3949D2D9F21D1F08E83CC
:10166000CF82EF2081E009F480E088870E9418187B
:101670008160782F9A8789874E815F8168858A8506
:101680000E947D0BF801E455FE4F8081F826F08220
:1016900005C08F5FFF0C8530F9F6D0CF0E94121A7B
:1016A0000E94650A9091AB018917B1F00E94650A0A
:1016B0008093AB012A960FB6F894DEBF0FBECDBF64
:1016C000DF91CF911F910F91FF90EF90DF90CF901E
:1016D000BF90AF900C94E9022A960FB6F894DEBF43
:1016E0000FBECDBFDF91CF911F910F91FF90EF9073
:1016F000DF90CF90BF90AF900895CF93DF93CDB799
:10170000DEB72B970FB6F894DEBF0FBECDBF4F8369
:10171000588769877A878B87DE01119686E0FD01FD
:1017200011928A95E9F785E0FE01379601900D92B6
:101730008A95E1F749815A816B817C818D819E81F7
:101740000E945E122B960FB6F894DEBF0FBECDBF7F
:10175000DF91CF910895FC01808191810E94341521
:101760000895CF93882309F4A9C0C82F8238C1F403
:101770000E94650A81FDA2C069E3809109019091F0
:101780000A010E9467170E94C1152FEF81EE94E0B5
:10179000215080409040E1F700C0000069E319C08B
:1017A000833801F50E94650A80FD88C063E5809159
:1017B000090190910A010E9467170E94C1152FEF3D
:1017C00081EE94E0215080409040E1F700C000009D
:1017D00063E58091090190910A010E947217CF91EF
:1017E0000C94C1158438C1F40E94650A82FD66C05C
:1017F00067E48091090190910A010E9467170E9495
:10180000C1152FEF81EE94E0215080409040E1F728
:1018100000C0000067E4DDCF8CEF8C0F813AF8F454
:101820008C2F0E94931C811149C06C2F809109015B
:1018300090910A010E94E716882349F06C2F80914D
:10184000090190910A010E9472170E94C1156C2F24
:101850008091090190910A010E946717C0CF80E230
:101860008C0F883048F4C77081E001C0880FCA959A
:10187000EAF70E947615B3CFEBE5EC0FE33040F4C6
:10188000F0E0E857FE4F808190E0CF910C94990AE8
:10189000E8E5EC0FE73150F4F0E0EE0FFF1FE65AF9
:1018A000FE4F80819181CF910C94AF0AC03F30F000
:1018B0008C2F0E941A19CF910C94071ACF9108957A
:1018C000882309F464C0823879F40E94650A81FF94
:1018D0005EC069E38091090190910A010E94671737
:1018E0000E94C11569E310C08338B1F40E94650AF3
:1018F00080FF4DC063E58091090190910A010E942B
:1019000067170E94C11563E58091090190910A0152
:101910000E9472170C94C115843879F40E94650AEC
:1019200082FF35C067E48091090190910A010E940D
:1019300067170E94C11567E4E7CF9CEF980F913AB3
:1019400010F4682FE1CF90E2980F983050F4877030
:1019500091E001C0990F8A95EAF7892F0E947C15C2
:10196000D9CF9BE5980F933020F480E090E00C9461
:10197000990A98E5980F973120F480E090E00C9454
:10198000AF0A803F20F00E9482190C94071A089534
:10199000CF93C82F0E94B10BC93349F42FEF87EEC4
:1019A00093E0215080409040E1F700C000008C2F70
:1019B000CF910C94600C882321F00E9476150C9432
:1019C000C1150895882321F00E947C150C94C1153F
:1019D0000895CF92DF92EF92FF920F931F93CF93D0
:1019E000DF937C01062FC72FFC01158112951F7014
:1019F000D281D1110E9493150E946C15882399F011
:101A0000DD2389F08C2F807F803421F080E2800FED
:101A1000883048F082E00E940B160E946C1591E01D
:101A2000D82ED92601C0D12CCC2EC2948FE0C8224A
:101A30008C2D90E0FC01EA5AFF4F0C9435248C2F3A
:101A4000807FCF70882311F0C295C07FDD2399F08D
:101A5000CC2309F48DC180E2800F883010F0011191
:101A600004C08C2F0E94761503C08C2F0E9486150F
:101A70000E94C1157DC1802F0E94600CCC2309F407
:101A80009CC180E2800F883010F0011104C08C2FBF
:101A90000E947C1503C08C2F0E948C150E94C115DA
:101AA0008CC18C2F807FCF70803211F0C295C07FA7
:101AB000002319F00130C9F022C0DD2371F0112399
:101AC00041F0113031F40E94A6158C2B0E94AE1506
:101AD00074C10E94A6158C2B1DC0112319F0113062
:101AE00009F46BC10E94B71525C0DD2321F0163023
:101AF00008F063C10EC0153008F05FC11BC0DD23C4
:101B000061F0112331F0F701858180FF31C18F70C1
:101B100085838C2F0E94DB0C50C1112359F00933AF
:101B200009F037C1FFEF27EE83E0F15020408040FD
:101B3000E1F72DC18C2F0E94E20C3FC18C2F8695BE
:101B40008695837019F0813061F037C1DD2321F073
:101B5000802F9C2F937002C080E090E00E94990A31
:101B600034C1DD2321F0802F9C2F937002C080E0D0
:101B700090E00E94AF0A29C1802FDD2319F00E9456
:101B80001A1902C00E9482190E94071A1EC18C2FC6
:101B9000837009F045C0D11114C1402F429546957C
:101BA0004770440F440F602F6F70862F90E0A0E0C5
:101BB000B0E0042E04C0880F991FAA1FBB1F0A940F
:101BC000D2F704FF10C00FE010E020E030E004C0C6
:101BD000000F111F221F331F4A95D2F70095109551
:101BE0002095309503C000E010E09801C695C69599
:101BF000C370BC01CD01602B712B822B932BC230A3
:101C000049F058F4C13019F00E94AF13DAC00E94B5
:101C10009D13D7C00E94C113D4C00E949B13D1C092
:101C2000DD2319F08C2F817001C08695882309F47B
:101C3000C8C0402F429546954770440F440F602F0F
:101C40006F70862F90E0A0E0B0E0042E04C0880FF3
:101C5000991FAA1FBB1F0A94D2F704FF10C00FE000
:101C600010E020E030E004C0000F111F221F331FDE
:101C70004A95D2F7009510952095309503C000E065
:101C800010E09801C695C695C370BC01CD01602BCC
:101C9000712B822B932BC23049F058F4C13019F0CC
:101CA0000E9474148EC00E9462148BC00E9486141D
:101CB00088C00E94D51385C0CF70DD2339F08C2FEA
:101CC0000E94FB13802F0E94DB0C7BC0802F0E94A0
:101CD000E20C8C2F0E941C1474C0023F01F128F406
:101CE000003F41F0013FA1F03FC0033FF9F0043F46
:101CF00039F13AC0DD2341F0153008F05EC08C2F79
:101D00008F710E94411459C0163008F056C0F7CFA9
:101D1000DD2339F08C2F8F710E94FB134EC0DD2321
:101D2000C9F38C2F8F710E941C1447C0DD2329F04A
:101D30008C2F8F710E94E61340C00E94E1133DC0BA
:101D4000DD2349F0CF718C2F0E94FB1363E08C2FB1
:101D50000E94F61532C081E00E940B16123068F125
:101D600082E00E940B1629C0DD2331F0112391F28D
:101D7000802F0E94B10B21C0112399F2093349F43D
:101D80009FEFE7EEF3E09150E040F040E1F700C054
:101D90000000802F0E94600C10C04C2F4F70602FED
:101DA000C7010E943F030E940C130FC04C2F4F70BD
:101DB000602FC7010E94420308C088EF8C0D843059
:101DC00020F40E94650A0E94E902DD20C9F00E9409
:101DD000681580FD15C0F70112820E9462150E94ED
:101DE000FB13C7010E94210F0E946215DF91CF9162
:101DF0001F910F91FF90EF90DF90CF900C941C14E7
:101E0000DF91CF911F910F91FF90EF90DF90CF90D6
:101E100008950F931F93CF93DF93EC01688179812D
:101E20008A810E943F158C010E9498140E94891398
:101E3000B801CE010E94E90CDF91CF911F910F9163
:101E40000895CF93DF93EC01988189812B813C81A8
:101E5000232B31F08F3F31F481E09F3F19F403C011
:101E600081E001C080E080FD19C0CE010E94020324
:101E700081110CC00E946C15882381F08A8188230F
:101E800069F082E0DF91CF910C940B16CE010E9495
:101E9000090FCE01DF91CF910C94CE02DF91CF914B
:101EA00008950E9493150E94A3150E94C1150E94D7
:101EB000311B0E94071A80E090E00E94990A80E09E
:101EC00090E00C94AF0A8091090190910A010E9460
:101ED0007D170C94510F0E9483150C94630FE92F0A
:101EE000E295EF704E2F50E0FA013297EE30F10597
:101EF000B0F4EA59FF4F0C943524803F91F018F468
:101F0000883E68F40EC0843F51F40BC0883E48F010
:101F1000813F29F406C093FB882780F9089580E06B
:101F2000089581E008950E9434150E946F0F08956E
:101F3000CF93DF9300D000D01F92CDB7DEB70F90C4
:101F40000F900F900F900F90DF91CF910895CF9346
:101F5000DF9300D000D000D0CDB7DEB726960FB605
:101F6000F894DEBF0FBECDBFDF91CF9108951F93D0
:101F7000CF93DF93C091B30116E08091B401C817ED
:101F800099F0D0E01C9FF0011D9FF00D1124EB543F
:101F9000FE4F4081518162817381848195810E94CD
:101FA000A70F2196C770E9CFDF91CF911F910895B8
:101FB0004091E5015091E6016091E7017091E801DF
:101FC0008091E9019091EA010C94A70F2091B3014F
:101FD0009091B40156E02917A9F030E0529FF0012A
:101FE000539FF00D1124EB54FE4F7181761306C000
:101FF0007081781303C07281741306C02F5F3F4F46
:102000002770E9CF80E0089581E008950F931F9332
:10201000CF93DF938091EA0182958F7009F05DC0C4
:102020008091E701882309F458C08091B301109191
:10203000B4016091E5017091E601C091E801D09191
:10204000E90191E06F3F09F090E0292F06E0811748
:1020500009F443C0209721F07F3F21F030E003C016
:1020600031E001C0322F90E030FD34C0089FF00114
:10207000099FF00D1124DF01AB54BE4F11963C9126
:102080001197371327C03C91361324C012963C9108
:10209000129731111FC013964D915C9114974C1BF0
:1020A0005D0B483C5105B0F48091EA018F7080616E
:1020B0008093EA01E654FE4F80818F7080618083B7
:1020C00085EE91E00E94210FDF91CF911F910F913A
:1020D0000C94B70F01968770BACFDF91CF911F9103
:1020E0000F9108958F929F92AF92BF92CF92DF92FD
:1020F000EF92FF920F931F93CF93DF93CDB7DEB78D
:1021000061970FB6F894DEBF0FBECDBF8C0185E09E
:10211000F801DE011D9601900D928A95E1F7D80134
:10212000DC901196EC9011971296CC909091E5016D
:102130002091E6014091E8015091E90141155105D6
:1021400031F02F3F31F481E09F3F19F403C081E06B
:1021500001C080E080FD81C1F8018380948085EE1C
:10216000A82E81E0B82EF090E701B401641B750B36
:10217000FF2009F418C18091EA01382F307F683CB4
:10218000710508F0D1C031118AC0E21214C0D91211
:1021900012C0FC2CC1100FC08F7080618093EA01C7
:1021A0000E94D80FC5010E94210F8091EA01D80139
:1021B00015968C936FC18114910439F0BFEFEB1227
:1021C00006C081E0DB1203C003C081E001C080E0F3
:1021D00080FD03C081E08C2502C080E090E080FF9C
:1021E00010C04C2D6E2D8D2D0E94E60F882349F0D6
:1021F00085EE91E00E94210FE5EEF1E086E0DF013F
:10220000A4C0892839F0BFEFEB1206C081E0DB12D1
:1022100003C003C081E001C080E080FD03C081E015
:102220008C2502C080E090E0E82FE170BE2E80FF98
:102230002CC04C2D6E2D8D2D0E94E60FF82E811195
:1022400024C0DD86EE868D859E850E943415292F5B
:1022500022952F70223018F0243090F405C09F7022
:1022600059F0811109C016C19F7031F0D80115963F
:102270009C91907F09F40EC1805E883008F40AC1F9
:10228000C8010E94210FFB2C05C1FC2CCC2009F4B5
:1022900001C18091EA0181608093EA015BC0E21292
:1022A00006C0D91204C0C11002C0F801A0C0DD866A
:1022B000EE868D859E850E94930F882379F1CC2030
:1022C00069F12091EA01822F82958F7090E0029748
:1022D00074F08091E5019091E60198878F831986CB
:1022E0009B868A862C87CE0107960E94210F86E066
:1022F000F801A5EEB1E001900D928A95E1F70E94F8
:1023000006100E94D80F0DC0E21631F1DD86EE8670
:102310008D859E850E94930F81112DC0C8010E945A
:10232000210FFF24F394B6C03111EECF782D998A96
:10233000888A4D2D5E2D6C2D89890E94980F85EE1F
:1023400091E00E94210F86E0D5011D928A95E9F760
:102350000E94D80FF12C9EC0D912D8CFC110D6CF71
:10236000F8018583C8010E94210F86E0D5011D92E6
:102370008A95E9F78FC0CC2089F22091EA01822F5B
:1023800082958F7090E002970CF4B1CF8091E501B7
:102390009091E6019A8389831B829D828C822E8391
:1023A000CE010196A2CF683C710508F047C0FC2C15
:1023B000CC2009F4B3CFE21230C0D9122EC0209144
:1023C000EA0120FD21C0822F82958F70482F50E0B6
:1023D00041155105C9F0F80125834F30510541F0F1
:1023E0008F5F982F9295907F822F8F70892B858396
:1023F000C8010E94210F86E0F801A5EEB1E001902E
:102400000D928A95E1F744C086E0F801A5EEB1E0AF
:1024100001900D928A95E1F73DC0DD86EE868D85AF
:102420009E850E94930F811162CF8091EA018160A5
:102430008093EA01C8010E94210F2CC0782D998A4F
:10244000888A4D2D5E2D6C2D89890E94980F86E01B
:10245000D5011D928A95E9F71BC0CC2009F45ECF07
:10246000DD86EE868D859E850E94930FF82E88234B
:1024700009F454CF86E0F801A5EEB1E001900D9289
:102480008A95E1F785EE91E00E94AB0B0E94061061
:102490000E94D80F8F2D61960FB6F894DEBF0FBE45
:1024A000CDBFDF91CF911F910F91FF90EF90DF9003
:1024B000CF90BF90AF909F908F9008951F93CF9330
:1024C000DF93CDB7DEB72C970FB6F894DEBF0FBE03
:1024D000CDBF4F83588769877A878B879C87CE01CA
:1024E00007960E9472108823D1F09F8188852A85E3
:1024F0003B85232B31F08F3F31F481E09F3F19F46E
:1025000003C081E001C080E080FD47C04F81588555
:1025100069857A858B859C850E94A70F3EC086E0E1
:10252000FE013796DE01119601900D928A95E1F732
:10253000FF81E8856A857B856115710531F0EF3F84
:1025400031F481E0FF3F19F403C081E001C080E075
:1025500080FD23C02091B40130E0C901019687704D
:1025600099274091B30150E084179507F1F1F98361
:10257000EA837D836C8396E0929FD001939FB00D98
:102580001124AB54BE4FFE01319601900D929A95E5
:10259000E1F78093B4010E94B70F16E08091B30178
:1025A0009091B401891771F1189FC00111248B54C7
:1025B0009E4F0E947210882329F1E091B3011E9F63
:1025C000F0011124EB54FE4F4081518162817381EF
:1025D000848195810E94A70F8091B30190E00196BC
:1025E000877099278093B301D9CF0E946B0F109207
:1025F000B4011092B301E5EEF1E086E0DF011D9237
:102600008A95E9F72C960FB6F894DEBF0FBECDBFC2
:10261000DF91CF911F910895EF92FF920F931F9337
:10262000CF93DF938C01892B09F46CC0F12CEE243D
:10263000E394E8012196F8018491843740F48430D2
:1026400008F051C0813081F0823019F15BC08537CC
:1026500009F444C0A8F19CE7980F903708F052C0E5
:102660008F770E94600C41C00E5F1F4FFE01849166
:1026700090E2980F983050F48770FE2D01C0FF0F44
:102680008A95EAF78F2F0E94961514C00E94B10B0D
:102690002DC00E5F1F4FFE01849190E2980F98307D
:1026A00060F48770FE2D01C0FF0F8A95EAF78F2F27
:1026B0000E949C150E94C11519C00E94600C16C092
:1026C0000E5F1F4FFE01C491CC2381F08FE99FE084
:1026D0000197F1F700C00000C150F6CF0E5F1F4F09
:1026E000FE01F49003C00E94B10B8E018F2D882350
:1026F00009F49FCFEFE9FFE03197F1F700C0000048
:102700008150F5CFDF91CF911F910F91FF90EF9006
:102710000895089508950C948A130C948B130E94C5
:102720008D136093030270930402809305029093CB
:1027300006020C94510F0C948F130F931F9300916A
:102740000302109104022091050230910602602BD1
:10275000712B822B932B1F910F910C948F130F933E
:102760001F93009103021091040220910502309101
:10277000060260237123822393231F910F910C94EF
:102780008F130F931F930091030210910402209165
:1027900005023091060260277127822793271F9137
:1027A0000F910C948F130C948A130E94D31360938F
:1027B000FF017093000280930102909302020C9437
:1027C000510F60E070E0CB010C94D5130F931F9371
:1027D00041E050E060E070E08A019B0104C0000F1E
:1027E000111F221F331F8A95D2F7C901B8011F910B
:1027F0000F910C94D5130F931F9341E050E060E0CC
:1028000070E004C0440F551F661F771F8A95D2F7EA
:102810008091FF0190910002A0910102B09102020B
:102820008A019B01082B192B2A2B3B2BC901B801CC
:102830001F910F910C94D5130F931F9341E050E01B
:1028400060E070E004C0440F551F661F771F8A9533
:10285000D2F740955095609570958091FF019091C9
:102860000002A0910102B09102028A019B0108239B
:1028700019232A233B23C901B8011F910F910C94FE
:10288000D5130F931F9341E050E060E070E004C067
:10289000440F551F661F771F8A95D2F78091FF015D
:1028A00090910002A0910102B09102028A019B0165
:1028B000082719272A273B27C901B8011F910F9123
:1028C0000C94D5130F931F930091FF0110910002F8
:1028D0002091010230910202602B712B822B932BED
:1028E0001F910F910C94D5130F931F930091FF012B
:1028F00010910002209101023091020260237123A5
:10290000822393231F910F910C94D5130F931F9340
:102910000091FF011091000220910102309102020A
:1029200060277127822793271F910F910C94D5134D
:10293000089524E0929F900D1124890FE82FE695C9
:10294000E695E695877051E001C0550F8A95EAF744
:1029500085E0E89FF0011124E551FE4F20E030E0D2
:1029600070E04081CB01022E02C0969587950A94B3
:10297000E2F78170819584278523842781932F5FD7
:102980003F4F2530310569F7089524E0929F900D5F
:102990001124890F682F669566956695982F977014
:1029A00085E0689FB001112440E050E080E0FB0129
:1029B000E40FF51FE551FE4F208130E0092E02C0E3
:1029C000369527950A94E2F721703327042E01C02B
:1029D000220F0A94EAF7822B4F5F5F4F4530510573
:1029E00031F70895BF92CF92DF92EF92FF920F934B
:1029F0001F93CF93DF938C01C090FF01D090000212
:102A0000E0900102F0900202809103029091040292
:102A1000A0910502B0910602C82AD92AEA2AFB2A07
:102A2000CFE1D0E0D701C6010C2E04C0B695A79522
:102A3000979587950A94D2F780FD04C0219790F767
:102A4000B12C07C0BC2EB8018C2F0E945E030197E9
:102A5000A9F38B2DDF91CF911F910F91FF90EF90F4
:102A6000DF90CF90BF900895CF93DF93EC010E9449
:102A7000F214BE010E945E03DF91CF9108951F936F
:102A8000CF93DF93EB019091B201992321F0CB0119
:102A90000E94341513C0882349F0CB010E94F21420
:102AA000182F682FCE010E94991404C0CB010E94F8
:102AB000C514182FBE01812F0E945E03DF91CF91B4
:102AC0001F910895809107028595859585950895B4
:102AD000809107028770089590910702977081E0B6
:102AE00009F480E0089580912B02089590912B02C3
:102AF000892B80932B020895809590912B02892336
:102B000080932B02089510922B02089590912A022F
:102B1000892B80932A020895809590912A02892317
:102B200080932A02089510922A0208959091290212
:102B3000892B8093290208958095909129028923F9
:102B40008093290208951092290208958091080225
:102B5000089508950C94A9150C94AA159091080253
:102B6000981721F0809308020C94AC150895809179
:102B70000802882329F01092080280E00C94AC151A
:102B80000895E0910901F0910A0180912B02808360
:102B9000E0910901F0910A01908180912A02892B2C
:102BA0008083E0910901F0910A01908180912902CE
:102BB000892B808380910802882381F0E0910901AC
:102BC000F0910A019081892B808380910901909175
:102BD0000A010E94D11681110E94B7158091090146
:102BE00090910A010C94710A0C94A91598E0899FA0
:102BF00090011124262B209307020E94FB13809141
:102C000007028595859585950C94F4151092070219
:102C100080E00C94F4152091070280958223809324
:102C20000702982F977079F430E0482F082E000C97
:102C3000550B2417350739F08595859585950E94A4
:102C40001C140C94061608956FEF7FEF80E090E05F
:102C50000C947B2480E090E00E94572421E08C3E7D
:102C60009E4F09F020E0822F089582E090E00C94BE
:102C70004F2483E090E00C944F24CF9384E090E0C5
:102C80000E944F24C82F81E290E00E944F242C2FF5
:102C900030E0A901582BCA01CF910895CF93C92FD5
:102CA000682F84E090E00E945D246C2F81E290E028
:102CB000CF910C945D24AB01BC018FE090E00C94AB
:102CC0006F24AB01BC0183E190E00C946F2460E0C1
:102CD00070E0CB010C94611660E070E0CB010E94C3
:102CE0005B160C9467166CEE7EEF80E090E00E941D
:102CF0007B2460E082E090E00E945D2460E083E05D
:102D000090E00E945D24109203021092040210923F
:102D100005021092060260E084E090E00E945D24CB
:102D200060E081E290E00E945D2460E085E090E058
:102D30000E945D2460E086E090E00E945D246FEFD9
:102D400087E090E00E945D2440E050E0BA0188E016
:102D500090E00E946F2460E08DE090E00E945D248E
:102D600040E050E0BA0188E190E00E946F2460E00A
:102D700087E190E00E945D2440E050E0BA018CE1E0
:102D800090E00E946F2460E080E290E00E945D2469
:102D90000C946C160C947316682F8EE090E00C94D3
:102DA0005D24FC01329680911D01882331F08091D1
:102DB000730287FF02C09EE101C096E080E091505F
:102DC00028F021912223D9F38F5FF9CF089566234C
:102DD00051F120911D012223E9F02091730227FF78
:102DE00019C0462F4695469546954E31E0F46770DA
:102DF00021E030E002C0220F331F6A95E2F7FC01A8
:102E0000E40FF11D828190E02823392381E0232BF8
:102E100069F409C0FC01329608962191621729F0E5
:102E2000E817F907D1F780E0089581E008959C0143
:102E3000FC0132969FEF80E04191461789F09F3F59
:102E400019F4411101C0982F8F5F8630A9F79F3F79
:102E500039F0F901E90FF11D97FDFA9562830895A4
:102E600008959C012A5F3F4FFC014281461301C037
:102E70001282019682179307B9F70895262F269597
:102E8000269526952E3168F4FC01E20FF11D67703E
:102E900021E030E001C0220F6A95EAF78281282BF9
:102EA00022830895262F2695269526952E3170F497
:102EB000FC01E20FF11D677021E030E001C0220F3C
:102EC0006A95EAF72095828128232283089520912C
:102ED0001D01222329F02091730227FD0C943E1737
:102EE0000C94171720911D01222329F020917302C1
:102EF00027FD0C9452170C94311720911D01FC01F1
:102F00003296222331F08091730287FF02C08EE156
:102F100001C086E0DF011D928A95E9F708950895C2
:102F20000C948F170C948F17CF930E9492170E94C6
:102F3000E6050E949017C0E08C2F0E944D0581117C
:102F400004C0CF5FC630C1F701C081E0CF910895C2
:102F50000C948F170C94A8170E94AA1780917902DD
:102F6000843049F110922D0220E488E190E00FB600
:102F7000F894A895809360000FBE2093600080E0D5
:102F80000E94E9020E94AA1783B7817F846083BFF1
:102F900083B7816083BF7894889583B78E7F83BF22
:102FA0000FB6F894A89580916000886180936000C6
:102FB000109260000FBE08950C948F170E946B0F43
:102FC0000E94650A0E94E9020C94DC171F920F927E
:102FD0000FB60F9211248F939F93AF93BF9380915D
:102FE0002D02811113C080916F0290917002A09107
:102FF0007102B09172024196A11DB11D80936F02C2
:1030000090937002A0937102B0937202BF91AF913E
:103010009F918F910F900FBE0F901F90189582E097
:1030200084BD93E095BD9AEF97BD80936E0008959F
:103030002FB7F89480916F0290917002A091710265
:10304000B09172022FBF08959C014FB7F894809100
:103050006F0290917002A0917102B09172024FBF05
:10306000821B930B089578941F920F920FB60F92C4
:1030700011248F939F93AF93BF9380916F02909190
:103080007002A0917102B09172020196A11DB11D52
:1030900080936F0290937002A0937102B0937202BA
:1030A000BF91AF919F918F910F900FBE0F901F9086
:1030B000189587E797E790930108809300089AE0B6
:1030C00088E10FB6F894A895809360000FBE9093A6
:1030D0006000FFCF0C9424160E94E6058FE39CE964
:1030E0000197F1F700C000000E94E60580E00E9411
:1030F0004D0580FF04C00E946A180C945918089569
:103100000E942A16811102C00E94CA160E9435161A
:1031100080932C020E943D16909374028093730258
:103120000E943916682F70E080E090E00C949B13A9
:103130008091350280FF0BC06091100185E0689F8F
:10314000B001112475956795759567952BC081FF22
:1031500009C06091100185E0689FB0011124759548
:10316000679520C082FF07C06091100185E0689FCD
:10317000B001112417C0909134029923D1F06091CD
:103180000F01961788F72091100185E0289F900184
:103190001124929FA001939F500D112470E0CA0149
:1031A0000E9421246038710540F46115710519F4FD
:1031B00006C065E070E0862F08958FE7089581E0EE
:1031C00008958091350280FF08C060910C0170E085
:1031D000759567957595679521C081FF06C06091CB
:1031E0000C0170E07595679519C082FF04C060916D
:1031F0000C0170E010C090913402992399F0609115
:103200000B019617A0F780910C01899FC001112432
:1032100070E00E9421246038710540F46115710549
:1032200019F406C061E070E0862F08958FE70895D5
:1032300081E00895803F21F40E949818819504C090
:10324000813F29F40E949818809339020895823FA3
:1032500021F40E949818819504C0833F29F40E94AC
:103260009818809338020895893F19F40E94E11854
:1032700005C08A3F31F40E94E118819580933A029B
:1032800008958B3F21F40E94E118819504C08C3F82
:1032900029F40E94E11880933B020895843F21F4B1
:1032A00080913702816017C0853F21F480913702F9
:1032B000826011C0863F21F48091370284600BC088
:1032C000873F21F480913702886005C0883F31F440
:1032D0008091370280618093370208958D3F21F4F9
:1032E0008091350281600BC08E3F21F480913502C0
:1032F000826005C08F3F29F48091350284608093FD
:1033000035020895803F39F48091390287FF6CC0FF
:103310001092390269C0813F29F480913902181650
:10332000BCF362C090913802823F29F497FF5CC0E1
:103330001092380259C0833F19F41916CCF354C0C7
:10334000893F41F480913A0218160CF04DC010925A
:103350003A024AC08A3F29F480913A0287FF44C06A
:10336000F6CF8B3F39F480913B0287FF3DC010922E
:103370003B023AC08C3F29F480913B021816BCF303
:1033800033C0843F21F4809137028E7F17C0853F80
:1033900021F4809137028D7F11C0863F21F4809106
:1033A00037028B7F0BC0873F21F480913702877FE4
:1033B00005C0883F31F4809137028F7E80933702B9
:1033C00013C08D3F21F4809135028E7F0BC08E3F5C
:1033D00021F4809135028D7F05C08F3F29F48091C3
:1033E00035028B7F809335028091380281110EC0A7
:1033F0008091390281110AC080913A02811106C080
:1034000080913B02811102C010923402089586E33C
:1034100092E00E948B0A0E941818909333028093C6
:1034200032020895CF93DF9300D000D000D0CDB703
:10343000DEB786E0E6E3F2E0DE01119601900D9240
:103440008A95E1F780913802811105C08091390297
:10345000882309F47AC080913002909131020E9451
:103460002418AC0190913402992339F02091110174
:1034700030E02417350758F068C0209112018AE027
:10348000289F900111242417350718F05EC09F3F34
:1034900019F09F5F9093340210923A0210923B020F
:1034A00080913802181624F40E94981880933802EC
:1034B0008091380287FF05C00E94981881958093FB
:1034C000380280913902181624F40E9498188093CB
:1034D00039028091390287FF05C00E9498188195B2
:1034E00080933902309138023323E1F02091390280
:1034F0002223C1F045EB3403C0011124992319F0B4
:103500009093380203C081E08093380235EB2303A7
:10351000C0011124992319F09093390203C081E06E
:10352000809339020E94071A8091320290913302EF
:10353000909331028093300286E0FE013196A6E33B
:10354000B2E001900D928A95E1F780913A028111E3
:1035500005C080913B02882309F47AC080912E0235
:1035600090912F020E942418AC019091340299236B
:1035700039F020910D0130E02417350758F068C06C
:1035800020910E018AE0289F90011124241735070D
:1035900018F05EC09F3F19F09F5F90933402109225
:1035A00038021092390280913A02181624F40E94CF
:1035B000E11880933A0280913A0287FF05C00E9489
:1035C000E118819580933A0280913B02181624F409
:1035D0000E94E11880933B0280913B0287FF05C067
:1035E0000E94E118819580933B0230913A02332387
:1035F000E1F020913B022223C1F045EB3403C001EE
:103600001124992319F090933A0203C081E080932A
:103610003A0235EB2303C0011124992319F090934A
:103620003B0203C081E080933B020E94071A809115
:1036300032029091330290932F0280932E0286E003
:10364000FE013196A6E3B2E001900D928A95E1F772
:1036500026960FB6F894DEBF0FBECDBFDF91CF9197
:103660000895E6E3F2E086E0DF011D928A95E9F72E
:1036700010923402109235020895833081F128F4BB
:10368000813059F08230D1F00895853009F449C075
:10369000B8F1863009F456C0089580911201262FA2
:1036A00030E0280F311D2F3F310524F4680F60935F
:1036B000120108958FEF80931201089580911101F6
:1036C000262F30E0280F311D2F3F310524F4680FDD
:1036D0006093110108958FEF8093110108958091F7
:1036E0001001262F30E0280F311D2F3F310524F423
:1036F000680F6093100108958FEF80931001089573
:1037000080910F01262F30E0280F311D2F3F31050A
:1037100024F4680F60930F0108958FEF80930F01D9
:10372000089580910C01262F30E0280F311D2F3F86
:10373000310524F4680F60930C0108958FEF809396
:103740000C01089580910B01262F30E0280F311DC8
:103750002F3F310524F4680F60930B0108958FEF1C
:1037600080930B010895833011F128F4813049F0E2
:10377000823091F00895853081F120F18630C1F1D9
:10378000089580911201681720F4861B809312011E
:10379000089510921201089580911101681720F484
:1037A000861B809311010895109211010895809154
:1037B0001001681720F4861B809310010895109261
:1037C0001001089580910F01681720F4861B8093E3
:1037D0000F01089510920F01089580910C01681750
:1037E00020F4861B80930C01089510920C0108951B
:1037F00080910B01681720F4861B80930B010895BC
:1038000010920B0108950F931F9341E050E060E088
:1038100070E08A019B0104C0000F111F221F331F9B
:103820008A95D2F7C901B8010E949B131F910F918D
:103830000C946B0F482F50E0FA013597EF33F105E8
:1038400008F060C0EC58FF4F0C9435240E94CA1653
:1038500055C080912C02817F8E7F80932C0281E065
:1038600080933D0208950E94F30248C080912C028B
:10387000982F9095917090FB80F980932C02911174
:103880003DC0897F877F10C080912C0281FB222759
:1038900020F991E0922790FB81F980932C029923E3
:1038A00069F180912C02816080932C0227C0809165
:1038B0002C0282FB222720F991E0922790FB82F9CB
:1038C000ECCF80912C0283FB222720F991E09227F4
:1038D00090FB83F9E2CF0E946B0F8091730287FB0C
:1038E000222720F991E0922790FB87F980937302B9
:1038F00005C0895301C08D510E94031C81E00895C9
:1039000080E0FACF80E0089580E008950C94841C54
:103910008E518A3030F4E82FF0E0E557FE4F808179
:10392000089580E00895CF93C82F80913D028130A3
:1039300051F018F0823099F17DC00E9473158232E7
:1039400009F07AC004C00E947315823261F48C2F92
:103950000E94861C811104C08C2F0E941A1C1DC05D
:1039600081E090E01AC08C2F0E94841C811114C049
:10397000C43179F048F4CB3079F0C03109F060C03F
:1039800082E080933D0208C0C93219F0C83321F0AB
:1039900057C010923D0254C081E0817053C0C932BB
:1039A00089F118F5C43171F1B0F4C73009F046C09F
:1039B0008EE18093120182E3809311018AE080936B
:1039C000100184E180930F0188E080930C0188E26C
:1039D00080930B0133C082EE8C0F863078F58C2FEC
:1039E0000E94881C80933C0229C0CE34E9F020F468
:1039F000CB3421F56AE013C0C13579F0C235F1F45A
:103A000061E00DC080913C02882319F010923C02C5
:103A100015C081E080933D0215C061E006C0809131
:103A20003C020E943D1B0AC06AE080913C020E9459
:103A3000B31B04C010923D0280E004C081E002C0CC
:103A400080E0ABCFCF91089580915E020895CF932F
:103A5000DF9300D01F92CDB7DEB7909179029430FA
:103A600019F589837B836A8382E08093E9008FEF75
:103A70009091E800815095FD06C095ED9A95F1F77B
:103A800000008111F5CF8091E80085FF0DC040E076
:103A900050E063E070E0CE0101960E94831F8091A8
:103AA000E8008E778093E8000F900F900F90DF91E1
:103AB000CF910895CF93DF93EC010E94661F82306F
:103AC00011F0843031F4BE0184E0DF91CF910C9489
:103AD000271DDF91CF910895BC0183E00C94271D31
:103AE000CF93DF93EC010E94661F823011F0843087
:103AF000F9F482E08093E9008FEF9091E800815023
:103B000095FD06C095ED9A95F1F700008111F5CF6E
:103B10008091E80085FF0CC040E050E066E070E076
:103B2000CE010E94831F8091E8008E778093E80089
:103B3000DF91CF910895CF93DF93EC010E94661F30
:103B4000823011F08430D9F580911D01882339F03D
:103B50008091730287FF03C060E282E002C068E0E8
:103B600081E08093E9008FEF9091E800815095FD0E
:103B700006C095ED9A95F1F700008111F5CF80917F
:103B8000E80085FF1CC080911D01811105C040E047
:103B900050E068E070E003C070E040E050E0CE012B
:103BA0000E94831F8091E8008E778093E80080E276
:103BB000FE01AEE3B2E001900D928A95E1F7DF914C
:103BC000CF91089580917802811109C00E9414213B
:103BD0000E9471218091E20084608093E200089548
:103BE000109278020895089508950C94DE1742E02B
:103BF00061EC81E00E948D2042E261EC82E00C9455
:103C00008D2080917B02833009F460C030F48130D4
:103C100071F0823009F499C008958A3009F485C0A2
:103C20008B3009F46BC0893009F0A7C020C08091A7
:103C30007A02813A09F0A1C08091E800877F8093E1
:103C4000E80080917E0290917F02892B21F460E24E
:103C50008EE392E003C060E080E090E070E00E94BC
:103C6000CE1F8091E8008B778093E80008958091C3
:103C70007A02813209F081C080917E0290917F02A8
:103C8000029708F07AC08091E800877F8093E8006F
:103C90008091E80082FD05C0809179028111F8CF02
:103CA0006CC02091F3008091F20090E0922B02977B
:103CB00029F48091F1008B7F813021F48091F10013
:103CC00080935E028091E8008B7753C080917A02E6
:103CD000813A09F052C080917E0290917F02892B37
:103CE00009F04BC08091E800877F8093E8008091C5
:103CF000E80080FFFCCF80911D0136C080917A02E0
:103D00008132D9F580917E0290917F02892BA9F5AD
:103D10008091E800877F8093E8000E94C220809114
:103D20007C0280931D010C946B0F80917A0281328A
:103D300021F58091E800877F8093E8000E94C220EF
:103D400080917D0280935F02089580917A02813A8A
:103D5000A1F48091E800877F8093E8008091E800DB
:103D600080FFFCCF80915F028093F1008091E8009A
:103D70008E778093E8000C94C220089584B7877FE3
:103D800084BF0FB6F894A8958091600088618093F5
:103D90006000109260000FBE90E080E80FB6F894CB
:103DA00080936100909361000FBE0E94D50A0E942B
:103DB00014210E9471218091E20084608093E200CE
:103DC00078940E9406240E94DD0A83E191E00E941B
:103DD000600A80917902853069F40E94AC17809165
:103DE00077028823B1F30E949417882391F30E94ED
:103DF0006D1FEFCF0E94E50AECCF0C94FF1E292F18
:103E0000332723303105C9F060F42130310581F0CA
:103E10002230310509F04AC08BE390E024E233E020
:103E200049C02132310511F12232310579F13EC00C
:103E300082E190E02FE533E03DC099278130910584
:103E400061F040F08230910559F0039779F5E2EE88
:103E5000F2E008C0E0E2F3E005C0E2E1F3E002C016
:103E6000E8EEF2E0849190E09F0124C061157105B5
:103E700041F061307105D1F489E090E02FE433E046
:103E800019C089E090E026E333E014C061157105A4
:103E900041F06130710551F48CEB90E021E733E0A3
:103EA00009C080E490E02DE234E004C080E090E0BE
:103EB00020E030E0FA013183208308958091790277
:103EC000843011F081E0089582E0089580916002CD
:103ED000811102C00C945E1F089580E189BD82E1CA
:103EE00089BD09B400FEFDCF8091D8008F7D8093FD
:103EF000D8008091E00082608093E0008091E00033
:103F000081FDFCCF0895CF92DF92EF92FF920F9345
:103F10001F93CF93DF93EC018B017A010E94E12084
:103F2000811133C0E114F10439F0F70180819181EE
:103F3000081B190BC80FD91FC12CD12C0115110555
:103F400019F18091E80085FD16C08091E8008E7718
:103F50008093E800E114F10449F0F7018081918138
:103F6000C80ED91ED182C08285E00FC00E94E12018
:103F7000882321F30AC089918093F100015011092F
:103F8000FFEFCF1ADF0ADACF80E0DF91CF911F91E8
:103F90000F91FF90EF90DF90CF90089520918002D5
:103FA000309181022617370748F06115710539F401
:103FB0002091E8002E772093E80001C0B901FC01B0
:103FC00020E06115710579F1809179028823F1F182
:103FD0008530F1F18091E80083FD3CC08091E800DC
:103FE00082FD2EC08091E80080FFEBCF2091F3008E
:103FF0008091F20090E0922B6115710551F08830AC
:10400000910538F421912093F100615071090196D6
:10401000F3CF21E0089709F020E08091E8008E7747
:104020008093E800CECF2111CFCF0AC080917902D2
:10403000882361F0853061F08091E80083FD0AC03B
:104040008091E80082FFF2CF80E0089582E0089539
:1040500083E0089581E008952091800230918102EB
:104060002617370748F06115710539F42091E800EB
:104070002E772093E80001C0B901FC0120E0611512
:10408000710591F180917902882309F440C085304F
:1040900009F43FC08091E80083FD3DC08091E800B5
:1040A00082FD2FC08091E80080FFE9CF2091F300CE
:1040B0008091F20090E0922B6115710559F08830E3
:1040C000910540F424912093F100319661507109DB
:1040D0000196F2CF21E0089709F020E08091E800F6
:1040E0008E778093E800CBCF2111CCCF0AC080918E
:1040F0007902882361F0853061F08091E80083FDCA
:104100000AC08091E80082FFF2CF80E0089582E04B
:10411000089583E0089581E00895982F973068F519
:104120009093E900981739F07091EC002091ED0020
:104130005091F00003C0242F762F50E021FD02C0E3
:104140009F5FECCF3091EB003E7F3093EB003091DE
:10415000ED003D7F3093ED003091EB003160309306
:10416000EB007093EC002093ED005093F000209151
:10417000EE0027FDE5CF80E008958F708093E90081
:1041800081E0089580917A0287FF11C08091E80054
:1041900082FD05C0809179028111F8CF11C0809114
:1041A000E8008B770BC080917902882349F08091D9
:1041B000E80080FFF8CF8091E8008E778093E800D8
:1041C00008952091E4003091E50095E64091EC00DF
:1041D000842F817040FF23C08091E80080FD1DC0C6
:1041E00080917902882399F0853099F08091EB00D5
:1041F00085FD11C04091E4005091E500241735077A
:1042000029F3915011F09A01E1CF84E0089582E002
:10421000089583E0089581E0089580E00895409135
:10422000E80042FFDDCF08950E9482210E948A218A
:10423000E0EEF0E0808181608083E8EDF0E0808155
:104240008F77808319BCA7EDB0E08C918E7F8C9323
:1042500080818F7E80831092780208950F931F9340
:10426000CF93DF930E9482210E948A21C8EDD0E083
:1042700088818F77888388818068888388818F7D13
:10428000888319BC109279021092750210927702FD
:104290001092760200EE10E0F80180818B7F80831F
:1042A00088818160888342E060E080E00E948D2008
:1042B000E1EEF0E080818E7F8083E2EEF0E08081AD
:1042C00081608083808188608083F80180818E7F17
:1042D0008083888180618883DF91CF911F910F91C6
:1042E0000895E8EDF0E080818F7E8083E7EDF0E0D7
:1042F00080818160808384E082BF81E08093780246
:104300000C942E21E8EDF0E080818E7F8083109266
:10431000E20008951092DA001092E10008951F92D1
:104320000F920FB60F9211242F933F934F935F93E9
:104330006F937F938F939F93AF93BF93EF93FF936D
:104340008091E10082FF0BC08091E20082FF07C0F4
:104350008091E1008B7F8093E1000E940524809191
:10436000DA0080FF1FC08091D80080FF1BC08091C1
:10437000DA008E7F8093DA008091D90080FF0DC033
:1043800080E189BD82E189BD09B400FEFDCF81E0F5
:10439000809379020E94E21D05C019BC1092790237
:1043A0000E94F01D8091E10080FF19C08091E20021
:1043B00080FF15C08091E2008E7F8093E2008091A3
:1043C000E20080618093E2008091D8008062809357
:1043D000D80019BC85E0809379020E94F41D809179
:1043E000E10084FF30C08091E20084FF2CC080E1B6
:1043F00089BD82E189BD09B400FEFDCF8091D8005E
:104400008F7D8093D8008091E1008F7E8093E100C2
:104410008091E2008F7E8093E2008091E2008160D3
:104420008093E20080917502882311F084E007C038
:104430008091E30087FD02C081E001C083E08093AA
:1044400079020E94F51D8091E10083FF29C08091CF
:10445000E20083FF25C08091E100877F8093E10027
:1044600082E080937902109275028091E1008E7F44
:104470008093E1008091E2008E7F8093E200809142
:10448000E20080618093E20042E060E080E00E9410
:104490008D208091F00088608093F0000E94F31DD1
:1044A000FF91EF91BF91AF919F918F917F916F910C
:1044B0005F914F913F912F910F900FBE0F901F90E2
:1044C00018951F920F920FB60F9211242F933F93BE
:1044D0004F935F936F937F938F939F93AF93BF930C
:1044E000CF93DF93EF93FF93C091E900CF7080915A
:1044F000EC00D82FD17080FDD0E81092E9008091B7
:10450000F000877F8093F00078940E94A52210929B
:10451000E9008091F00088608093F000CD2BCF708F
:10452000C093E900FF91EF91DF91CF91BF91AF91DF
:104530009F918F917F916F915F914F913F912F91BB
:104540000F900FBE0F901F9018951F93CF93DF937E
:10455000CDB7DEB7AA970FB6F894DEBF0FBECDBFBA
:10456000EAE7F2E08091F100819322E0E238F2077D
:10457000C9F70E94011E8091E80083FF2EC180913F
:104580007A0290917B02492F50E04A30510508F0A1
:1045900024C1FA01ED54FF4F0C943524803821F0EA
:1045A000823809F01AC108C0809176029091770292
:1045B000992389F082600FC080917E028F708730CE
:1045C00008F00BC18093E9008091EB0085FB882700
:1045D00080F91092E9009091E800977F9093E800AD
:1045E0008093F1001092F100D1C0282F2D7F09F0A7
:1045F000F4C0882319F0823061F0EFC080917C0212
:10460000813009F0EAC0933009F080E080937702AE
:104610002EC080917C0281112AC080917E028F7011
:104620002FEF280F263008F0D8C08093E9002091A2
:10463000EB0020FF1CC0933021F48091EB008062DE
:1046400014C09091EB0090619093EB0021E030E07A
:10465000A90102C0440F551F8A95E2F74093EA0072
:104660001092EA008091EB0088608093EB0010923A
:10467000E9008091E800877F8093E8000E94C220D3
:10468000ACC08111AAC010917C021F778091E30019
:104690008078812B8093E3008091E800877F80936E
:1046A000E8000E94C2208091E80080FFFCCF80914A
:1046B000E30080688093E300111102C082E001C032
:1046C00083E08093790289C08058823008F085C0E9
:1046D00080917C0290917D028C3D53E0950779F5A5
:1046E00083E08A838AE289834FB7F894DE011396C8
:1046F00020E03EE051E2E32FF0E050935700E491D8
:1047000020FF03C0E295EF703F5FEF708E2F90E0C7
:10471000EA3010F0C79601C0C0968D939D932F5F2D
:10472000243149F74FBF8091E800877F8093E800EC
:104730006AE270E0CE0101960E94CE1F16C0609121
:104740007E0270917F02AE014F5F5F4F0E94FD1E9F
:10475000BC01892B09F441C09091E800977F9093A8
:10476000E80089819A810E942C208091E8008B7753
:104770008093E80032C0803881F58091E800877F1F
:104780008093E800809175028093F1008091E800A9
:104790008E7772CF811121C080917C0290917D0231
:1047A00099270297D4F48091E800877F8093E800EE
:1047B00080917C02809375020E94C22080917502D4
:1047C000811106C08091E30087FD02C081E001C035
:1047D00084E0809379020E94F71D8091E80083FFB6
:1047E0000AC08091E800877F8093E8008091EB0009
:1047F00080628093EB00AA960FB6F894DEBF0FBEDE
:10480000CDBFDF91CF911F9108950895CF938091EF
:1048100079028823A1F0C091E900CF709091EC005B
:10482000892F817090FD80E8C82B1092E90080915B
:10483000E80083FD0E94A522CF70C093E900CF91CC
:10484000089597FB072E16F4009407D077FD09D042
:104850000E943B2407FC05D03EF4909581959F4F24
:104860000895709561957F4F0895EE0FFF1F059095
:10487000F491E02D0994AA1BBB1B51E107C0AA1FAC
:10488000BB1FA617B70710F0A61BB70B881F991FF1
:104890005A95A9F780959095BC01CD010895F99995
:1048A000FECF92BD81BDF89A992780B50895A8E101
:1048B000B0E042E050E00C948324262FF999FECF1B
:1048C00092BD81BDF89A019700B4021639F01FBA63
:1048D00020BD0FB6F894FA9AF99A0FBE0895039680
:1048E000272F0E945E240E945D24252F0E945E24B3
:1048F000242F0C945E240196272F0E945E240C9492
:104900005D24DC01CB01FC01F999FECF06C0F2BDAC
:10491000E1BDF89A319600B40D9241505040B8F77D
:064920000895F894FFCF9A
:10492600019B01009C01039C0109022808641E14D6
:104936000A321E241D9B1D701D6C1D5A1D01E200AE
:10494600E900EA00B500B600B700CD008301CC004F
:104956008A019201940121022302240225022602E1
:1049660027022A02B300B4006F007000818283F62A
:10497600F731333297C634000000E200E900EA005E
:10498600B500B600B700CD008301CC008A019201C4
:1049960094012102230224022502260227022A026A
:1049A600B300B4006F007000818283010203040526
:0649B600060708090000DD
:00000001FF
