:100000000C9410040C9457040C9457040C94BC05E5
:100010000C9457040C9457040C9457040C945704F4
:100020000C9457040C9457040C94B5200C9487211D
:100030000C944B1C0C9457040C9457040C945704C8
:100040000C9457040C9457040C9457040C945704C4
:100050000C9457040C94981C0C9457040C9457045B
:100060000C9457040C9457040C9457040C945704A4
:100070000C9457040C9457040C9457040C94570494
:100080000C9457040C9457040C9457040C94570484
:100090000C94AA040C9457040C9457040C94570421
:1000A0000C9457040C9457040C945704FE12FE123F
:1000B0003013301386148614861486147D13161498
:1000C000271427141A151A152C152C1523152C1561
:1000D0002C152C151A151A1528152C152C15281544
:1000E000F4211B2213231B22132367228A221323AA
:1000F000E122F0220000000000003E5B4F5B3E006A
:100100003E6B4F6B3E001C3E7C3E1C00183C7E3C10
:1001100018001C577D571C001C5E7F5E1C000018D9
:100120003C180000FFE7C3E7FF0000182418000098
:10013000FFE7DBE7FF0030483A060E002629792961
:100140002600407F05050700407F05253F005A3CFB
:10015000E73C5A007F3E1C1C0800081C1C3E7F0028
:1001600014227F2214005F5F005F5F0006097F0199
:100170007F00006689956A0060606060600094A2FC
:10018000FFA2940008047E04080010207E201000C6
:1001900008082A1C0800081C2A0808001E10101055
:1001A00010000C1E0C1E0C0030383E383000060EBD
:1001B0003E0E060000000000000000005F0000008E
:1001C000000700070000147F147F1400242A7F2AF0
:1001D00012002313086462003649562050000008BC
:1001E00007030000001C224100000041221C000007
:1001F0002A1C7F1C2A0008083E0808000080703076
:1002000000000808080808000000606000002010D6
:10021000080402003E5149453E0000427F40000074
:100220007249494946002141494D33001814127F53
:1002300010002745454539003C4A494931004121D4
:1002400011090700364949493600464949291E0027
:1002500000001400000000403400000000081422D8
:100260004100141414141400004122140800020167
:10027000590906003E415D594E007C1211127C0066
:100280007F49494936003E41414122007F41414179
:100290003E007F49494941007F09090901003E416B
:1002A000415173007F0808087F0000417F41000032
:1002B0002040413F01007F08142241007F40404020
:1002C00040007F021C027F007F0408107F003E4137
:1002D00041413E007F09090906003E4151215E006F
:1002E0007F091929460026494949320003017F0147
:1002F00003003F4040403F001F2040201F003F4080
:1003000038403F00631408146300030478040300BA
:100310006159494D4300007F4141410002040810EA
:100320002000004141417F000402010204004040DE
:10033000404040000003070800002054547840006B
:100340007F28444438003844444428003844442832
:100350007F0038545454180000087E090200182405
:10036000241C78007F080404780000447D400000CD
:100370002040403D00007F102844000000417F40A5
:1003800000007C04780478007C0804047800384479
:10039000444438007C1824241800182424187C00B5
:1003A0007C080404080048545454240004043F44C6
:1003B00024003C4040207C001C2040201C003C408D
:1003C00030403C004428102844004C9090907C0021
:1003D0004464544C4400000836410000000077009B
:1003E00000000041360800000201020402003C2621
:1003F00023263C0000000000000000000000000078
:1004000000000000000000808080808080000000EC
:10041000000000FCFCFCFC000000000000008080EC
:1004200080808080000000000080808080000000CC
:1004300000808080800000000000808080800000BC
:1004400000000080C0F0F8F8F8F8F80000000000A4
:1004500000000080E0F8F8F8F8F800000000000064
:10046000000000000000000000000000000000008C
:100470000000E0F0F0F0E0ECEEF7F37020007C7CA0
:100480007C7E007E7E7E7F7F7F000080C0E07E5B82
:100490004F5BFEC00000C000DCD7DEDEDED7DC0034
:1004A000C00000000000000000000000000000008C
:1004B000000000000000000000000000000000003C
:1004C000000000F8FCFEFF1F070707071F1F1F1E85
:1004D000180000FFFFFFFF000000009EDFDFCFC716
:1004E000E7E7E7FFFFFFFE0000033FFFFFFEC0005E
:1004F000F0FFFF1FFFFFF000C0FCFFFF3F0300C045
:10050000F0F8FE9F878380FFFFFFFF80800000E000
:10051000F8FCBF8F8381FFFFFFFF80808000000019
:1005200000000000000000000000000000000000CB
:1005300000000F1F3F7F7F7F7F7F3F1E0C001F1F2C
:100540001F3F003F3F3F7F7F7F00307B7F78302021
:100550002030787F3B0003000F7F0F0F0F7F0F00CD
:100560000300000000000000000000000000000088
:10057000000000000000000000000000000000007B
:10058000000000071F3F7F7C787070787E3E3E0E33
:100590000600007F7F7F7F0000001F3F7F7F797113
:1005A0007030383F7F7F7F60000000011F7F7F7EBB
:1005B0007F1F0100013F7F7E7F7F0F01000000034E
:1005C000030303030303037F7F7F7F030300000311
:1005D0000303030303037F7F7F7F07030300000000
:1005E000000000000000000000000000000000000B
:1005F00000000000000000000000000000000000FB
:1006000000000000000000000000000000000000EA
:1006100000000000000000000000000000000000DA
:1006200000000000000000000000000000000000CA
:10063000000000002B0014001A000800150017002D
:100640000000E00004001600070009000A00000096
:10065000E1001D001B00060019000500000000005D
:1006600000004C64095D0A5DE30000002A001300ED
:1006700012000C0018001C000000340033000F00B2
:100680000E000D000B000000E500380037003600BA
:10069000100011000000000000004C002C00280099
:1006A000E600000029001E001F002000210022009B
:1006B000000001004A004E004B004D000100000008
:1006C0000100010001000100010001000000000024
:1006D0000000005C01000100010000000100270093
:1006E00026002500240023000000010001004F0027
:1006F0005200510050000000010001000100010003
:1007000001000100000000000000010001000100E4
:100710000100000001001E021F022002210222022D
:1007200000003A003B003C003D003E003F0000005E
:10073000400041004200430044004500000000002A
:10074000000001000100010001000000010027027B
:1007500026022502240223020000350030002F006B
:100760002E002D0031000000350230022F022E0233
:100770002D023102000000000000005C01000100B9
:10078000010000000403300000000E0363006C0051
:10079000610077003400340000000C03790066002B
:1007A00075006B00750000000403090409022200B3
:1007B000010100A0FA090400000103010100092160
:1007C000110100012240000705810308000A1201FF
:1007D000100100000008EDFE60300100010203017D
:1007E00005010906A101050719E029E71500250102
:1007F00095087501810295017508810105071900A9
:1008000029FF150026FF00950675088100050819C7
:10081000012905950575019102950175039101C0A6
:1008200011241FBECFEFDAE0DEBFCDBF04B603FE5A
:1008300027C08091880390918903A0918A03B09189
:100840008B038730904BA740B04BD1F410928803B4
:100850001092890310928A0310928B0314BE84B7FE
:10086000877F84BF0FB6F894A89580916000886157
:1008700080936000109260000FBEE0E0F8E30995FD
:1008800012E0A0E0B1E0EEECFDE402C005900D92B4
:10089000A231B107D9F723E0A2E1B2E001C01D9275
:1008A000A838B207E1F70E94F71D0C94E5260C94D6
:1008B000000083E390E02091BC0027FD02C0019777
:1008C000D1F708951092B9008CE08093B800089594
:1008D000CF93C82F84EA8093BC000E945904809172
:1008E000B900887F883039F08091B900887F8031E5
:1008F00011F081E012C0C093BB0084E88093BC007B
:100900000E9459048091B900887F883129F0809134
:10091000B900887F803469F780E0CF91089584E939
:100920008093BC0083E390E02091BC0024FD02C0D2
:100930000197D1F708958093BB0084E88093BC00B1
:100940000E9459049091B900987F81E0983209F48F
:1009500080E008951F920F920FB60F9211248F938B
:100960009F93EF93FF938091B900887F803869F05F
:1009700038F48823C9F18036C9F51092120236C0C6
:10098000883A09F1883BF9F031C080911202811157
:1009900011C08091BB0080931302809113028031BB
:1009A00020F01092130280E001C081E091E090936A
:1009B00012021DC0E0911302F0E08091BB00EA50EA
:1009C000FD4F808308C0E0911302F0E0EA50FD4F34
:1009D00080818093BB008091130290E001968F701C
:1009E00099278093130202C01092BC0081E090917D
:1009F000BC008295880F880F807C9568892B809336
:100A0000BC00FF91EF919F918F910F900FBE0F90BF
:100A10001F9018958EE14A9B02C08150E1F74A9BD6
:100A2000FECF08955A9880E28A95F1F75A9A089570
:100A3000FC012AE02A95F1F790E020E080E031E027
:100A4000261779F040E14A95F1F7880F4A9B02C0DA
:100A50008160932700C0000040E14A95F1F72F5FC5
:100A6000EFCF20E12A95F1F729B100C0000030E175
:100A70003A95F1F722FB222720F992272081920F45
:100A800090830895EF92FF920F931F93CF93DF937C
:100A90001F92CDB7DEB719828C017C01E60EF11CE6
:100AA0000E151F0559F00E940A0568E0CE01019657
:100AB0000E941805F80181938F01F2CF81E099819E
:100AC000911180E00F90DF91CF911F910F91FF90D6
:100AD000EF9008959093160280931502609314028C
:100AE000529A5A9A08959093160280931502609331
:100AF000140252985A9AEA9AE9E6F0E080818F7CD3
:100B000080830895615091E001C0990F6A95EAF7DA
:100B100020E031E0992361F0492F482319F05A9AD7
:100B2000232701C05A9840E24A95F1F79695F2CFF3
:100B3000222311F05A9A01C05A9880E28A95F1F75F
:100B40005A980895FF920F931F93CF93DF93EC0170
:100B50008C01060F111DC017D10741F0F9900E94BA
:100B6000120568E08F2D0E948205F5CFDF91CF91AD
:100B70001F910F91FF9008951F920F920FB60F9241
:100B800011240F931F932F933F934F935F936F9372
:100B90007F938F939F93AF93BF93EF93FF93CF93E5
:100BA000DF931F92CDB7DEB719820E940A0567E076
:100BB000CE0101960E941805382F36953695369548
:100BC000932F96959570232F2570920F292F2370C0
:100BD000969596958770920F891348C089818111E7
:100BE00045C080911402831708F440C080E18A95C3
:100BF000F1F75A9A529AA2E0AA95F1F700C0009133
:100C0000150210911602B8E03B9F000D111D112432
:100C10005A98F8016581662321F0868197810E94A8
:100C2000A2050E941205F0E1FA95F1F75A98529840
:100C30005A9A80E18A95F1F7D80112966C91129731
:100C4000662369F013968D919C9114970E9442053A
:100C5000D801ED91FC91811105C082E004C0D8015A
:100C6000ED91FC9188E080830E940A050F90DF914E
:100C7000CF91FF91EF91BF91AF919F918F917F9114
:100C80006F915F914F913F912F911F910F910F9015
:100C90000FBE0F901F9018950F931F93CF93DF9364
:100CA0002091140230E0281739070CF471C09C0120
:100CB00093E0220F331F9A95E1F7C0911502D0916E
:100CC0001602C20FD31FF894529A5A9845E04A95DB
:100CD000F1F70000982F969595708570890F982FE1
:100CE000937086958695890F8901082B0E941205BD
:100CF00084E08A95F1F700C067E0802F0E948205AA
:100D000040E14A95F1F752985A9A4A9902C000C0B8
:100D1000FCCF87E090E04A9B0EC0019751F4529AB5
:100D20005A9AE881F98181E08083789481E090E0AB
:100D300031C000C0F0CF6D81662381F08E819F812C
:100D40000E94420581110AC0529A5A9AE881F9819B
:100D500082E08083789482E090E01CC00E940A05C3
:100D600080E28A95F1F75A98529A40E14A95F1F754
:100D70006A81662321F08B819C810E94A2050E94DA
:100D80001205E881F9811082789480E090E002C039
:100D900084E090E0DF91CF911F910F910895CF9360
:100DA000C82F88E70E94680481110AC080E00E9471
:100DB0009B04811105C08C2F0E949B04C1E081110E
:100DC000C0E00E948F048C2FCF910895CF93C62F3F
:100DD0000E94CF06882321F08C2FCF910C94CF0650
:100DE00080E0CF910895CF93C62F0E94CF0688232D
:100DF00049F080E00E94CF06882321F08C2FCF910C
:100E00000C94CF0680E0CF9108958FEA0C94CF0622
:100E10000F931F93CF93DF938C010C5A1F4FD80170
:100E2000ED91FC91119760832D913C9111972F5F6B
:100E30003F4F2D933C93281B390B24353105B9F4D2
:100E4000EC01BC016B5E7F4F4FE350E00E948223B8
:100E5000CE01CF96F8019183808345E150E060E2B6
:100E600070E0DF91CF911F910F910C949423DF914B
:100E7000CF911F910F9108951F93CF93DF93FC01A2
:100E8000EA5AFF4F21E020836A3099F4EC0132974F
:100E9000808191818C1B9D0B65E170E00E9447234E
:100EA000182F153158F460E2CE010E9408071F5F29
:100EB000F8CFDF91CF911F910C940807DF91CF916C
:100EC0001F910895EF92FF920F931F93CF93DF939B
:100ED0007C01EB01FB0101900020E9F78F0101503B
:100EE0001109C017D10728F46991C7010E943C0776
:100EF000F8CFDF91CF911F910F91FF90EF90089560
:100F0000CF92DF92EF92FF920F931F93CF93DF93D5
:100F1000CDB7DEB77C010DB71EB7DB010D90002009
:100F2000E9F7CD01861B970B01962DB73EB7281B1D
:100F3000390B0FB6F8943EBF0FBE2DBF2F5F3F4F4A
:100F400069017F936F932AE631E03F932F939F933C
:100F50008F93DF92CF920E94A223B601C7010E9415
:100F600062078DB79EB708960FB6F8949EBF0FBE66
:100F70008DBF0FB6F8941EBF0FBE0DBFDF91CF918E
:100F80001F910F91FF90EF90DF90CF900895CF9336
:100F9000DF93EC0144E550E060E270E00E949423AE
:100FA000FE01EC5AFF4FD183C083CA5ADF4F81E064
:100FB0008883DF91CF9108959F92AF92BF92CF9295
:100FC000DF92EF92FF920F931F93CF93DF93EC0189
:100FD0000E947D1C0E94050763E082E20E94F306E6
:100FE000882309F43CC06DE781E20E94F306882360
:100FF000B1F188E70E946804811131C080E40E9449
:101000009B0481112CC06E0184E0982E00E010E05A
:10101000F601E00FF11FA08086E0A89E5001112488
:10102000E12CF12CF501EE0DFF1DEC50FF4F8491EA
:101030000E949B048FEFE81AF80A86E0E816F10494
:1010400089F70F5F1F4F0531110511F79A9485E15C
:10105000C80ED11C9110DACFCA5ADF4F1882DF9127
:10106000CF911F910F91FF90EF90DF90CF90BF90A5
:10107000AF909F900C948F0486E093E00C94DC0773
:10108000CF93DF93C82F0E9462048EEA0E94CF069E
:10109000811102C080E09BC060E885ED0E94E606F9
:1010A0008823C1F36FE188EA0E94E606882391F362
:1010B00060E083ED0E94E606882361F380E40E94ED
:1010C000CF06882339F364E18DE80E94E606882381
:1010D00009F360E080E20E94E6068823D9F2CC237F
:1010E00039F080EA0E94CF068823A1F280EC06C086
:1010F00081EA0E94CF06882369F288EC0E94CF061D
:10110000882341F262E08AED0E94E606882311F20C
:101110006FE881E80E94E606882309F4BBCF61EFFF
:1011200089ED0E94E606882309F4B4CF60E48BEDD4
:101130000E94E606882309F4ADCF84EA0E94CF0618
:10114000882309F4A7CF86EA0E94CF06882309F4F2
:10115000A1CF8EE20E94CF06882309F49BCF8FEAAD
:101160000E94CF06882309F495CF60E081E80E94B1
:10117000E606882309F48ECF86E093E00E94C70735
:1011800063E082E20E94F3068823E1F06FE781E2E8
:101190000E94F3068823B1F088E70E946804811159
:1011A00011C080E40E949B0481110CC0D4E0C0E017
:1011B00080E00E949B04CF5FC038D1F7D150B9F7CF
:1011C00010925C030E948F040E943C0881E0DF9132
:1011D000CF9108950E941E0C80915C03811104C080
:1011E00080910001882321F00E943C0810920001A8
:1011F000089581E0809300010895CF93DF93A5E7E0
:10120000B1E049E751E061E070E08D91E82FE295AF
:10121000EF70F0E021A18F70EB0102C0CC0FDD1F59
:101220008A95E2F7CE019C2F9095922391A392A1EB
:10123000892B82A34A175B0741F7DF91CF9108956D
:101240000C94D70B0C94DD0B8091E90283608860CD
:101250008093E9020E94FD08AEE6B1E041E050E073
:101260008D91E82FE295EF70F0E021A18F70BA0127
:1012700002C0660F771F8A95E2F7CB01962F9095F3
:10128000922391A392A1892B82A371E0A537B7077E
:1012900039F7209A559A289A5D9AEFE1F2E0A7E192
:1012A000B2E011921D9282E0E732F807D1F70E9476
:1012B000B10A809327020C94D50C9F92AF92BF92F3
:1012C000CF92DF92EF92FF920F931F93CF93DF9312
:1012D00080910201811103C0C4E0D0E002C0C0E0EF
:1012E000D0E0AE01495E5D4F7A0185E7C82E81E00E
:1012F000D82E8A01AA24A394B12C25E0922EF9E7D6
:10130000CF16F1E0DF0609F44AC0F60181916F01C2
:10131000E82FE295EF70F0E021A18F70A50102C0E7
:10132000440F551F8A95E2F7CA01922F982B91A37B
:1013300092A18095892382A350EA5A95F1F7EEE6AF
:10134000F1E020E040E050E03191A32FA295AF7092
:10135000B0E090968C9190E03F7002C09595879593
:101360003A95E2F780FD07C0C501042E01C0880F41
:101370000A94EAF702C080E090E0282B4F5F5F4FAD
:101380004730510509F7F8018081821719F0208351
:10139000909201010E94FD080F5F1F4FB0CF809116
:1013A00001018823B1F0815080930101811103C0B4
:1013B000C15EDD4F07C08FE99FE00197F1F700C0E4
:1013C000000007C0F70191917F0199938F5F8430EE
:1013D000C9F781E0DF91CF911F910F91FF90EF90BE
:1013E000DF90CF90BF90AF909F900895CF93DF9301
:1013F00020910201211103C0C0E0D0E002C0C4E08E
:10140000D0E00E94DD0A009721F00297A1F428980D
:1014100012C0289AC15EDD4F809132029091330252
:10142000A0913402B091350288839983AA83BB834B
:1014300080E090E002C081E090E0DF91CF910895DC
:101440000E945D0980910201811103C0E4E0F0E097
:1014500002C0E0E0F0E0E15EFD4F20E030E080E03F
:10146000D901AE5CBD4F4C919191491381E09C93A1
:101470002F5F3F4F2430310599F790912B02890F50
:1014800080932B020895CF93DF93809127028823C6
:1014900009F440C00E945D0980910201811103C0DE
:1014A000C4E0D0E002C0C0E0D0E0C15EDD4F44E067
:1014B00050E0BE018EE292E00E947523488159817E
:1014C0006A817B8140932E0250932F0260933002F9
:1014D000709331020E94F609892BC1F05D988091CA
:1014E00028028F5F80932802863070F1809102017C
:1014F000811103C0E0E0F0E002C0E4E0F0E0E15E72
:10150000FD4F10821182128213821EC05D9A1092CA
:1015100028021AC00E94200A80910201811103C092
:1015200080E090E002C084E090E0FC01E15EFD4FCD
:1015300040912E0250912F02609130027091310241
:1015400040835183628373830E94DD0C81E0DF91CD
:10155000CF910895E82FF0E0E15EFD4F808108957E
:101560000895E8EDF0E08081806180838AE18A95CA
:10157000F1F700C08091D900817008950E94B10AEE
:1015800091E08927809302010E94B10A882319F013
:101590000E94D10A02C00E94D70A789408950C9440
:1015A000BE0A63E070E083E091E00C946A0563E0BA
:1015B00070E083E091E00C9473050F931F93CF9339
:1015C000DF938C0190911C0180911B01981761F0B1
:1015D00082E090E00E944C06EC01892B39F4809166
:1015E0001B0180931C0102C0C0E0D0E0012B49F434
:1015F0008091290290912A02892B19F480E090E0D1
:1016000002C081E090E00E944C06892B49F4809151
:101610002B0280931B0110922A021092290206C00D
:1016200081E090E090932A0280932902CE01DF911D
:10163000CF911F910F9108958091D4029091D5027E
:10164000A091D602B091D70284309105A105B105D1
:10165000D9F060F40097A105B10599F082309105A9
:10166000A105B105D9F469E971E010C08830910590
:10167000A105B10581F08E309105A105B10559F0A4
:101680000DC06DE771E002C06CE871E08DE593E09C
:101690000E949B231CC066EA71E0F8CFBF93AF9312
:1016A0009F938F9384EB91E09F938F931F9288E198
:1016B0008F938DE593E09F938F930E94A2238DB724
:1016C0009EB70A960FB6F8949EBF0FBE8DBF8DE5EC
:1016D00093E008958DE191E00895CF938C339105C7
:1016E00028F4FC01EA52FE4FC08101C0C0E21F9203
:1016F000CF939F938F93FB0180811F928F93818162
:101700001F928F9385EC91E09F938F931F9288E1B6
:101710008F938DE492E09F938F930E94A2238DB7C5
:101720009EB70E960FB6F8949EBF0FBE8DBF8091E8
:10173000360290913702449779F080913602909169
:101740003702FC01E85CFD4FC0830196909337029D
:1017500080933602CF91089510923702109236028C
:10176000E8E3F2E080E292E0EC34F90731F38193B0
:10177000FACF8DE492E0089588E392E008950F9304
:101780001F93CF93DF93EC018B010E94F90888230C
:1017900029F0B801CE010E94420C02C080E090E026
:1017A0008170DF91CF911F910F91089508950E944C
:1017B000B10A91E089270C9440080C94EA08CF9371
:1017C000DF93EC01809127028823A1F00E941C0B7B
:1017D000BC01CE010E9480070E94B90BBC01CE0162
:1017E0000E9480070E94BC0BBC01CE01DF91CF910B
:1017F0000C9480070E946A0BBC01CE01DF91CF914F
:101800000C9462070F931F93CF93DF93EC018B012E
:1018100044E550E00E947523892B59F084E5F801D6
:10182000DE0101900D928A95E1F7CA5ADF4F81E0FF
:101830008883DF91CF911F910F910895CF93DF930C
:10184000CDB7DEB7C755D1090FB6F894DEBF0FBECE
:10185000CDBFCE0101960E94C707CE0101960E941E
:10186000DF0BBE016F5F7F4F86E093E00E94020CAA
:10187000C95ADF4F0FB6F894DEBF0FBECDBFDF9160
:10188000CF9108950F931F93CF93DF938C01EB01BA
:101890008A81882319F0C8010E946D0B09308DE5FB
:1018A000180771F00A308DE5180769F008301D45FA
:1018B000A9F4CA81CC2399F080E00E94C10C09C030
:1018C000CA8181E002C0CA8182E0CC2321F00E945B
:1018D000E118C0E004C00E94021901C0C1E08C2FD1
:1018E000DF91CF911F910F91089581E008950895A0
:1018F0000C94770C1F93CF93DF9300D000D01F92EE
:10190000CDB7DEB749835A836B83309178028981E2
:101910009A81311114C0662359F0222349F00E94A4
:10192000D619182F682F89819A810E947F1903C0C8
:101930000E94AA19182F69817A81812F04C00E9400
:10194000D61969817A810F900F900F900F900F90A8
:10195000DF91CF911F910C94390DFC01262F40810E
:1019600051816281738184810C947A0CCF93DF93CF
:10197000EC0160E00E94AD0CBE01DF91CF910C94B0
:10198000780CCF93DF9361E070E0EB0102C0CC0FE5
:10199000DD1F8A95E2F78C2F0E940E1BBE0180E0AE
:1019A00090E0DF91CF910C9481180E94FB1A811175
:1019B00002C00E94A01B0C9420090C94220981E013
:1019C00008950C94DF0CCF93C82F0E94D60B8C2F58
:1019D0000E94E10CCF91089508950E9408150E947D
:1019E000EC0C2FEF84E39CE0215080409040E1F725
:1019F00000C000000C94BE1C0F931F93CF93DF9385
:101A0000EC0161E00E94AD0C8C01BE010E94BF0B95
:101A1000882349F1BE01C8010E94750F882319F17E
:101A2000BE01C8010E94B60F8823E9F0BE01C801BB
:101A30000E94E1108823B9F08A81882369F001159A
:101A40008CE5180731F00E3D1C4531F40E94A01BB7
:101A50000AC00E94ED0C07C0CE01DF91CF911F910B
:101A60000F910C94750C80E0DF91CF911F910F9135
:101A7000089528E3829FC0011124FC0127E0729F92
:101A8000E00DF11D1124E60FF11DEE0FFF1FEC5CC0
:101A9000F94F859194910895CF93DF930E94390D6A
:101AA0000E942A0EEC01811523E5920798F5811515
:101AB00042E5940708F094C0C11580E2D807C0F44D
:101AC000C11521E0D20708F0C1C0C53AD10548F4DC
:101AD000C430D10508F0BAC0C130D10509F4B6C090
:101AE000B3C0CE01805E9109089708F4AFC0ACC0C6
:101AF000C11541E5D40708F06EC0C11580E5D807CF
:101B000008F04DC0C11520E4D20708F49DC0DF7075
:101B1000D06A9CC0811546E5940700F5C11585E59E
:101B2000D80708F077C0C11524E5D20708F06DC0CA
:101B3000CE018370992721E030E002C0220F331FCD
:101B40008A95E2F78C2F8695869540E2849FC001A6
:101B50001124E901C82BD92BDA6878C081154AE530
:101B6000940778F4C11589E5D80708F05DC0C11560
:101B700028E5D20708F468C0DC2FCC27C06FD06AF4
:101B800065C090568115904208F05EC08D2F8F7110
:101B90000E94BE0EDD27D0628F71D82B57C0CE01B8
:101BA00074E0969587957A95E1F783709C2F9370F2
:101BB00021E030E002C0220F331F9A95E2F73C6823
:101BC000382BCF70C695C69580E2C89FE0011124DE
:101BD000C22BD32B3BC0DC2FCC27C16FD06A36C0C1
:101BE0008370992721E030E002C0220F331F8A95CD
:101BF000E2F78C2F8695869540E2849FC0011124E0
:101C0000E901C82BD92BDC6821C0DC2FCC27C46F9D
:101C1000D06A1CC08C2F0E94BE0E8F71C82FD0E0DE
:101C2000DC2FCC27D06212C08C2F8F700E94BE0E8A
:101C300094E0D695C7959A95E1F7CF70D0E0DC2F68
:101C4000CC27D069C82B02C0C0E0D0E0CE01DF9124
:101C5000CF9108958238910569F1B0F481339105EF
:101C600009F46DC048F48932910509F463C08A32E1
:101C7000910509F469C008958533910509F455C0AB
:101C800089339105B9F00895833E910569F138F4DF
:101C9000803E9105B1F0823E910509F10895863E9E
:101CA0009105A9F1873E9105B9F1843E910509F0AE
:101CB00064C023C02091790320FD4FC021FD4DC099
:101CC00008958091790380FD44C080917A0380FF5C
:101CD00044C08091790384FD42C083EE4DC0809161
:101CE000790382FF38C0F5CF8091790382FD33C03C
:101CF00080917A0380FD31C0ECCF80917A0381FF1F
:101D000032C08091790384FD2AC087EE35C080916E
:101D1000790383FF26C0F5CF8091790383FD21C02D
:101D200080917A0381FD1FC0ECCF8091790385FDFE
:101D30001CC01DC08091790385FD19C016C080911B
:101D4000790386FD16C017C08091790386FD13C004
:101D500010C089E311C082EE0FC080EE0DC080E09C
:101D60000BC086EE09C084EE07C089E205C085E39A
:101D700003C08AE201C081E390E008959091790365
:101D800092FF0DC0282F2871283019F4877F8460B6
:101D900006C0282F2471243011F48B7F886093FFB4
:101DA0000DC0282F2871283119F4877E846106C060
:101DB000282F2471243111F48B7E886120917A03BD
:101DC00020FF0DC0382F3871383019F4877F8160BB
:101DD00006C0382F3171313011F48E7F886021FFB9
:101DE0000DC0282F2871283119F4877E816106C023
:101DF000282F2171213111F48E7E886194FD877E18
:101E000008950F931F93CF93DF93C62FD42F122FD4
:101E1000FC0182818823C9F0609367020E947D1CC7
:101E2000909366028093650280E28C0F883008F000
:101E300057C0C77081E001C0880FCA95EAF7DF91EB
:101E4000CF911F910F910C94B61280916702681385
:101E500030C080916502909166020E94891C843B8B
:101E6000910538F500E20D0FCD17B9F080E28C0F27
:101E7000883040F4C77081E001C0880FCA95EAF746
:101E80000E94BD12083028F581E09D2F977001C097
:101E9000880F9A95EAF70E94B612812F0E94A3122A
:101EA0000830F0F4D77081E001C0880FDA95EAF7C6
:101EB0000AC080E28C0F883098F4C77081E001C0BE
:101EC000880FCA95EAF7DF91CF911F910F910C947B
:101ED000BD12812FDF91CF911F910F910C94A3120E
:101EE000DF91CF911F910F9108959C01CB01233F6A
:101EF0004CE53407F9F078F4283DFCE53F07B9F0EC
:101F0000293D4CE5340711F1273D3C4531F526E2EA
:101F100041EE61EE1EC0253FFCE53F0799F070F0F1
:101F2000263F3C45D1F427E245EE66EE12C027E29B
:101F300045EE0EC026E241EE60EE0BC027E245EE14
:101F400064EE07C026E241EE62EE03C028E241E003
:101F500065EE0E94010F80E00895FC0182818823D4
:101F600019F010926702089581E00895CF93DF93EE
:101F7000EC01FB018281882309F41FC1C230FCE51A
:101F8000DF0708F41BC1C6319CE5D90738F09E0174
:101F90002A5F3C452930310508F010C10E94131B0F
:101FA00090937A0380937903C031ECE5DE0709F45E
:101FB000C3C008F041C0C8308CE5D80709F49AC006
:101FC000F0F4C430ECE5DE0709F487C068F4C230F1
:101FD0008CE5D80709F477C0C330DC4509F0E3C0CD
:101FE00080917903826076C0C630ECE5DE0709F4A3
:101FF0006EC008F07BC08091790388606BC0CC30E4
:102000008CE5D80709F485C068F4CA30ECE5DE0732
:1020100009F474C008F079C00E9408158091790312
:10202000806858C0CE308CE5D80709F476C008F037
:102030007FC0809179038BC0CB3FECE5DE0709F4CC
:102040004FC018F5C3318CE5D80709F47DC078F48A
:10205000C131ECE5DE0709F473C0C231DC4509F09B
:10206000A2C00E940815809179038F7733C0C531D3
:102070008CE5D80709F472C008F486C0CA3FDC4575
:1020800009F091C080917A033EC0CF3FFCE5DF07A5
:1020900009F45FC058F4CD3F9CE5D90709F444C06A
:1020A00008F43FC080917A0382602DC0C130FDE505
:1020B000DF0709F475C008F45DC0C230DD4509F0E2
:1020C00072C080E06EC080917903816003C080910E
:1020D000790380618093790366C08091790311C090
:1020E00080917A03826080937A035DC08091790346
:1020F0008062F0CF809179038064ECCF8091790386
:1021000088608460E7CF8160EECF809179038E7F15
:10211000E1CF809179038D7FDDCF80917903877F37
:10212000D9CF80917A0318C080917A038D7FDBCF5D
:10213000809179038F7ECECF809179038F7DCACF36
:10214000809179038F7BC6CF80917903877F8B7FC6
:10215000C1CF80917A038D7F8E7FC5CF8091790327
:1021600082FB222720F991E0922790FB82F990FBD5
:1021700083F9B0CF80917A03982F909591708E7FDC
:10218000892B90FB81F9AFCF0E94081580917903CC
:1021900087FB222720F991E0922790FB87F99ACFBD
:1021A00081E00E94A21B8091790390917A030E94A2
:1021B000241B0E94081580E001C081E0DF91CF91CF
:1021C0000895CF93DF9386319C4541F5EB010E9442
:1021D000571A982F8A8120915D0130915E018823E2
:1021E00079F09A7A81E009F480E080936802911195
:1021F00002C069E201C065E3C9010E94E91B0AC08F
:1022000080916802811102C069E201C065E3C901E1
:102210000E94EB1B0E94981A80E001C081E0DF91D0
:10222000CF91089590936E0280936D020895E0918E
:102230006D02F0916E02309721F00190F081E02D57
:10224000099480E00895E0916D02F0916E0230975C
:1022500021F00280F381E02D0994089520916B0212
:1022600030916C022817390771F090936C028093BB
:102270006B02E0916D02F0916E02309721F00680C2
:10228000F781E02D099408952091690230916A0246
:102290002817390771F090936A0280936902E091E0
:1022A0006D02F0916E02309721F00084F185E02DEF
:1022B0000994089585B7806885BF85B7806885BF14
:1022C000089508950C9461110C9462110C9461119D
:1022D0000E945A110E94CF0A0C94641181E0089563
:1022E0000C946E110E94741C0E9424090E94CF1C41
:1022F0000C946611AF92BF92CF92DF92EF92FF9251
:102300000F931F93CF93DF93CDB7DEB72A970FB606
:10231000F894DEBF0FBECDBF0E94430A0E94701129
:10232000811111C08FEF89838A831B820E947D1CDB
:102330008160782F9D838C8349815A816B818D8147
:102340000E94101240C080E7A82E82E0B82E00E064
:1023500010E0C02E802F0E94AA0AE82EF501D1902D
:102360005F01D82631F40F5F1F4F0830110589F740
:10237000D9CF8091E90281FD0E94B00A80E0FF245C
:10238000F3949D2D9F21D1F08E83CF82EF2081E0A9
:1023900009F480E088870E947D1C8160782F9A87ED
:1023A00089874E815F8168858A850E941012F801B5
:1023B000E059FD4F8081F826F08205C08F5FFF0C49
:1023C0008730F9F6D0CF0E94171190916F028917CC
:1023D000B1F00E94171180936F022A960FB6F894FD
:1023E000DEBF0FBECDBFDF91CF911F910F91FF9048
:1023F000EF90DF90CF90BF90AF900C94E30C2A96B3
:102400000FB6F894DEBF0FBECDBFDF91CF911F9105
:102410000F91FF90EF90DF90CF90BF90AF90089515
:10242000CF93DF93CDB7DEB72B970FB6F894DEBF0F
:102430000FBECDBF4F83588769877A878B87DE01B0
:10244000119686E0FD0111928A95E9F785E0FE017B
:10245000379601900D928A95E1F749815A816B81F7
:102460007C818D819E810E94C1172B960FB6F894B6
:10247000DEBF0FBECDBFDF91CF910895FC018081FB
:1024800091810E94181A0895CF93882371F1C82F63
:102490008CEF8C0F813AD0F46C2F80915D0190917C
:1024A0005E010E94B31B882349F06C2F80915D016F
:1024B00090915E010E94EB1B0E94981A6C2F8091F4
:1024C0005D0190915E010E94E91B0CC080E28C0FBF
:1024D000883058F4C77081E001C0880FCA95EAF7C8
:1024E0000E945A1ACF910C94981ACF91089588237C
:1024F00049F1682F8CEF860F813A38F480915D01A5
:1025000090915E010E94EB1B0CC080E2860F883028
:1025100050F4677081E001C0880F6A95EAF70E9465
:10252000601A0C94981A8BE5860F833020F480E0B3
:1025300090E00C942E11685A673120F480E090E00E
:102540000C9444110895CF93C82F0E944412C933AC
:1025500049F42FEF87EE93E0215080409040E1F75F
:1025600000C000008C2FCF910C947712882321F0AB
:102570000E945A1A0C94981A0895882321F00E94F8
:10258000601A0C94981A0895CF92DF92EF92FF92FE
:102590000F931F93CF93DF937C01D62FC72FFC019E
:1025A000158112951F70028101110E94771A0E94F5
:1025B000501A882399F0002389F08C2F807F803473
:1025C00021F080E28D0F883048F082E00E94E21A0C
:1025D0000E94501A91E0D82ED92601C0D12CCC2EC1
:1025E000C2948FE0C8228C2D90E08C30910508F0C9
:1025F0008DC1FC01EA5AFF4F0C945B238C2F807F26
:10260000CF70882311F0C295C07F002399F0CC23AE
:1026100009F468C180E28D0F883010F0D11104C038
:102620008C2F0E945A1A03C08C2F0E946A1A0E9493
:10263000981A58C18D2F0E947712CC2309F466C1D5
:1026400080E28D0F883010F0D11104C08C2F0E94D1
:10265000601A03C08C2F0E94701A0E94981A56C1EB
:102660008C2F807FCF70803211F0C295C07FDD2328
:1026700019F0D130C9F022C0002371F0112341F0CC
:10268000113031F40E947D1A8C2B0E94851A3EC1B4
:102690000E947D1A8C2B1DC0112319F0113009F4F2
:1026A00035C10E948E1A25C0002321F0163008F093
:1026B0002DC10EC0153008F029C11BC0002361F0E8
:1026C000112331F0F701858180FF0CC18F70858364
:1026D0008C2F0E94B6121AC1112359F0D93309F078
:1026E00012C1FFEF07EE13E0F15000401040E1F798
:1026F00008C18C2F0E94BD1209C18C2F837009F074
:1027000047C0011107C12D2F229526952770220F52
:10271000220F6D2F6F70862F90E0A0E0B0E0022EA8
:1027200004C0880F991FAA1FBB1F0A94D2F7D4FFB9
:1027300010C04FE050E060E070E004C0440F551F4F
:10274000661F771F2A95D2F7409550956095709532
:1027500003C040E050E0BA01C695C695C3708A0137
:102760009B01082B192B2A2B3B2BC901B801C23026
:1027700049F058F4C13019F00E949518CBC00E945E
:102780008318C8C00E94A718C5C00E948118C2C083
:10279000002319F08C2F817001C08695882309F4DD
:1027A000B9C02D2F229526952770220F220F6D2F4D
:1027B0006F70862F90E0A0E0B0E0022E04C0880F7A
:1027C000991FAA1FBB1F0A94D2F7D4FF10C04FE075
:1027D00050E060E070E004C0440F551F661F771F93
:1027E0002A95D2F7409550956095709503C040E0CA
:1027F00050E0BA01C695C695C3708A019B01082BAB
:10280000192B2A2B3B2BC901B801C23049F058F4CF
:10281000C13019F00E945A197DC00E9448197AC02F
:102820000E946C1977C00E94BB1874C0CF7000233F
:1028300039F08C2F0E94E1188D2F0E94B6126AC0C9
:102840008D2F0E94BD128C2F0E94021963C0D23FAF
:1028500001F128F4D03F41F0D13FA1F03FC0D33F78
:10286000F9F0D43F39F13AC0002341F0153008F0B7
:102870004DC08C2F8F710E94271948C0163008F068
:1028800045C0F7CF002339F08C2F8F710E94E118DB
:102890003DC00023C9F38C2F8F710E94021936C0EE
:1028A000002329F08C2F8F710E94CC182FC00E941A
:1028B000C7182CC0002349F0CF718C2F0E94E1185B
:1028C00063E08C2F0E94CD1A21C081E00E94E21AA1
:1028D0001230E0F082E00E94E21A18C0002331F0CA
:1028E000112391F28D2F0E94441210C0112399F2EE
:1028F000D93349F41FEF27EE33E011502040304028
:10290000E1F700C000008D2F0E94771288EF8C0D38
:10291000843020F40E9417110E94E30CDD20C9F0DE
:102920000E944C1A80FD15C0F70112820E94461ABF
:102930000E94E118C7010E94CA140E94461ADF9142
:10294000CF911F910F91FF90EF90DF90CF900C945B
:102950000219DF91CF911F910F91FF90EF90DF90BF
:10296000CF9008950F931F93CF93DF93EC0168816D
:1029700079818A810E94231A8C010E947E190E940B
:102980006F18B801CE010E94C412DF91CF911F9140
:102990000F910895CF93DF93EC01988189812B816A
:1029A0003C81232B31F08F3F31F481E09F3F19F4BC
:1029B00003C081E001C080E080FD19C0CE010E940B
:1029C000FC0C81110CC00E94501A882381F08A816E
:1029D000882369F082E0DF91CF910C94E21ACE0156
:1029E0000E94B214CE01DF91CF910C94B60CDF910E
:1029F000CF9108950E94771A0E947A1A0C94981A1F
:102A000080915D0190915E010E94ED1B0C94FA147F
:102A10000E94671A0C940015E92FE295EF704E2F73
:102A200050E0FA013297EE30F105B0F4EE59FF4F65
:102A30000C945B23803F91F018F4883E68F40EC03C
:102A4000843F51F40BC0883E48F0813F29F406C012
:102A500093FB882780F9089580E0089581E0089528
:102A60000E94181A0E940C150895CF93DF9300D08E
:102A700000D01F92CDB7DEB70F900F900F900F9040
:102A80000F90DF91CF910895CF93DF9300D000D0C6
:102A900000D0CDB7DEB726960FB6F894DEBF0FBED6
:102AA000CDBFDF91CF9108951F93CF93DF93C09156
:102AB000790216E080917A02C81799F0D0E01C9F45
:102AC000F0011D9FF00D1124E558FD4F408151810B
:102AD00062817381848195810E9444152196C7701B
:102AE000E9CFDF91CF911F9108954091AB025091B2
:102AF000AC026091AD027091AE028091AF029091F4
:102B0000B0020C9444150F931F93CF93DF938091E1
:102B1000B00282958F7009F05DC08091AD0288236C
:102B200009F458C08091790210917A026091AB0249
:102B30007091AC02C091AE02D091AF0291E06F3FB4
:102B400009F090E0292F06E0811709F443C020978F
:102B500021F07F3F21F030E003C031E001C0322F8F
:102B600090E030FD34C0089FF001099FF00D112462
:102B7000DF01A558BD4F11963C911197371327C01F
:102B80003C91361324C012963C91129731111FC00C
:102B900013964D915C9114974C1B5D0B443B510572
:102BA000B0F48091B0028F7080618093B002E058E1
:102BB000FD4F80818F70806180838BEA92E00E945C
:102BC000CA14DF91CF911F910F910C945415019667
:102BD0008770BACFDF91CF911F910F9108959F9287
:102BE000AF92BF92CF92DF92EF92FF920F931F931B
:102BF000CF93DF93CDB7DEB761970FB6F894DEBF02
:102C00000FBECDBF8C0185E0F801DE011D9601905D
:102C10000D928A95E1F7F80140815181E28090910F
:102C2000AB026091AC022091AE023091AF0221154F
:102C3000310531F06F3F31F481E09F3F19F403C05B
:102C400081E001C080E0F82FF1709F2E80FD46C129
:102C5000F801A380B4808BEAC82E82E0D82EF090D1
:102C6000AD02F501E21BF30BFF2009F4DFC08091F8
:102C7000B002E43BF10508F09BC0282F207F09F04B
:102C800052C0561313C0491311C0FE2CE1100EC0E0
:102C90008F7080618093B0020E947515C6010E94FA
:102CA000CA148091B002F801858358C1AB2831F075
:102CB0005F3F31F481E04F3F19F403C081E001C070
:102CC00080E080FD03C081E08E2502C080E090E0BE
:102CD000F82FF170FF2E80FF1CC0809179022091A7
:102CE0007A0236E0821709F417C190E0389FF001AC
:102CF000399FF00D1124E558FD4F6181561306C030
:102D00006081461303C06281E61203C0019687709A
:102D1000E9CFFE2CEE2009F421C18091B002816040
:102D20008093B0025AC0561306C0491304C0E11084
:102D300002C0F8019FC04D875E878D859E850E94E9
:102D40003015882379F1EE2069F12091B002822FAD
:102D500082958F7090E0029774F08091AB02909111
:102D6000AC0298878F831986BB86AA862C87CE01F2
:102D700007960E94CA1486E0F801ABEAB2E001901F
:102D80000D928A95E1F70E9483150E9475150DC07A
:102D9000561729F14D875E878D859E850E943015D7
:102DA00081112CC0C8010E94CA14FF24F394D6C01C
:102DB000282F207F69F77A2DB98AA88A6E2D8989F4
:102DC0000E9435158BEA92E00E94CA1486E0F60153
:102DD00011928A95E9F70E947515F12CBFC049132D
:102DE000D9CFE110D7CFF8018583C8010E94CA145A
:102DF00086E0F60111928A95E9F7B0C0EE2091F2D3
:102E00002091B002822F82958F7090E002970CF48F
:102E1000B2CF8091AB029091AC029A8389831B82DE
:102E2000BD82AC822E83CE010196A3CFE43BF10597
:102E300008F047C0FE2CEE2009F4B4CF561330C082
:102E400049132EC02091B00220FD21C0822F82950F
:102E50008F70482F50E041155105C9F0F8012583C6
:102E60004F30510541F08F5F982F9295907F822FC0
:102E70008F70892B8583C8010E94CA1486E0F801EF
:102E8000ABEAB2E001900D928A95E1F742C086E08C
:102E9000F801ABEAB2E001900D928A95E1F75EC0CD
:102EA0004D875E878D859E850E943015811163CF89
:102EB0008091B00281608093B002C8010E94CA1460
:102EC0004DC07A2DB98AA88A6E2D89890E94351540
:102ED00086E0F60111928A95E9F71BC0EE2009F40D
:102EE00061CF4D875E878D859E850E943015F82EB7
:102EF000882309F457CF86E0F801ABEAB2E00190ED
:102F00000D928A95E1F78BEA92E00E943E120E94B0
:102F100083150E94751522C04D875E878D859E851D
:102F20000E94181A292F22952F70223028F49F70A2
:102F300039F0811105C00BC0243028F49F7049F48A
:102F4000805E883020F0C8010E94CA149F2CF92CA2
:102F500005C0F8019581907F99F7F9CF8F2D619683
:102F60000FB6F894DEBF0FBECDBFDF91CF911F919A
:102F70000F91FF90EF90DF90CF90BF90AF909F9018
:102F800008951F93CF93DF93CDB7DEB72C970FB67D
:102F9000F894DEBF0FBECDBF4F83588769877A870D
:102FA0008B879C87CE0107960E94EF158823D1F06E
:102FB0009F8188852A853B85232B31F08F3F31F413
:102FC00081E09F3F19F403C081E001C080E080FDF3
:102FD00047C04F81588569857A858B859C850E947D
:102FE00044153EC086E0FE013796DE011196019041
:102FF0000D928A95E1F7FF81E8856A857B856115E9
:10300000710531F0EF3F31F481E0FF3F19F403C067
:1030100081E001C080E080FD23C020917A0230E091
:10302000C9010196877099274091790250E0841771
:103030009507F1F1F983EA837D836C8396E0929F93
:10304000D001939FB00D1124A558BD4FFE013196BC
:1030500001900D929A95E1F780937A020E9454159F
:1030600016E08091790290917A02891771F1189F88
:10307000C001112485589D4F0E94EF15882329F126
:10308000E09179021E9FF0011124E558FD4F408127
:10309000518162817381848195810E944415809160
:1030A000790290E001968770992780937902D9CFB1
:1030B0000E94081510927A0210927902EBEAF2E06F
:1030C00086E0DF011D928A95E9F72C960FB6F894F9
:1030D000DEBF0FBECDBFDF91CF911F910895089540
:1030E00008950C9470180C9471180E9473186093D2
:1030F000D8027093D9028093DA029093DB020C9489
:10310000FA140C9475180F931F930091D802109124
:10311000D9022091DA023091DB02602B712B822BD5
:10312000932B1F910F910C9475180F931F9300917F
:10313000D8021091D9022091DA023091DB0260238B
:103140007123822393231F910F910C9475180F9371
:103150001F930091D8021091D9022091DA02309188
:10316000DB0260277127822793271F910F910C9410
:1031700075180C9470180E94B9186093D40270935B
:10318000D5028093D6029093D7020C94FA1460E093
:1031900070E0CB010C94BB180F931F9341E050E0FB
:1031A00060E070E08A019B0104C0000F111F221F24
:1031B000331F8A95D2F7C901B8011F910F910C9462
:1031C000BB180F931F9341E050E060E070E004C033
:1031D000440F551F661F771F8A95D2F78091D4023E
:1031E0009091D502A091D602B091D7028A019B019D
:1031F000082B192B2A2B3B2BC901B8011F910F91CA
:103200000C94BB180F931F9341E050E060E070E016
:1032100004C0440F551F661F771F8A95D2F740954B
:103220005095609570958091D4029091D502A091AF
:10323000D602B091D7028A019B01082319232A23C1
:103240003B23C901B8011F910F910C94BB180F9338
:103250001F9341E050E060E070E004C0440F551F50
:10326000661F771F8A95D2F78091D4029091D5027C
:10327000A091D602B091D7028A019B010827192795
:103280002A273B27C901B8011F910F910C94BB1845
:103290000F931F930091D4021091D5022091D60272
:1032A0003091D702602B712B822B932B1F910F91A2
:1032B0000C94BB180F931F930091D4021091D50268
:1032C0002091D6023091D702602371238223932369
:1032D0001F910F910C94BB180F931F930091D40270
:1032E0001091D5022091D6023091D7026027712724
:1032F000822793271F910F910C94BB18089527E004
:10330000929F800D1124E82FE695E695E69587704B
:1033100051E001C0550F8A95EAF785E0E89FF0017A
:103320001124EF54FD4F20E030E070E04081CB01EC
:10333000022E02C0969587950A94E2F781708195D6
:1033400084278523842781932F5F3F4F25303105C4
:1033500069F7089527E0929F800D1124682F6695E4
:1033600066956695982F977085E0689FB001112447
:1033700040E050E080E0FB01E40FF51FEF54FD4F0B
:10338000208130E0092E02C0369527950A94E2F795
:1033900021703327042E01C0220F0A94EAF7822BF2
:1033A0004F5F5F4F4530510531F70895BF92CF927F
:1033B000DF92EF92FF920F931F93CF93DF938C01D5
:1033C000C090D402D090D502E090D602F090D702FF
:1033D0008091D8029091D902A091DA02B091DB02DB
:1033E000C82AD92AEA2AFB2ACFE1D0E0D701C601B0
:1033F0000C2E04C0B695A795979587950A94D2F799
:1034000080FD04C0219790F7B12C07C0BC2EB801F5
:103410008C2F0E944C0D0197A9F38B2DDF91CF913A
:103420001F910F91FF90EF90DF90CF90BF90089584
:10343000CF93DF93EC010E94D619BE010E944C0D80
:10344000DF91CF9108951F93CF93DF93EB0190917C
:103450007802992321F0CB010E94181A13C0882307
:1034600049F0CB010E94D619182F682FCE010E9477
:103470007F1904C0CB010E94AA19182FBE01812F09
:103480000E944C0DDF91CF911F9108958091DC0235
:1034900085958595859508958091DC0287700895BE
:1034A0009091DC02977081E009F480E008958091AA
:1034B000E80208959091E802892B8093E80208952C
:1034C00080959091E80289238093E80208951092F4
:1034D000E80208959091E702892B8093E70208950E
:1034E00080959091E70289238093E70208951092D6
:1034F000E70208951092E60208958091DD02089592
:1035000008950C94801A0C94811A9091DD029817FA
:1035100021F08093DD020C94831A08958091DD02DE
:10352000882329F01092DD0280E00C94831A08951C
:10353000E0915D01F0915E018091E8028083E0916D
:103540005D01F0915E0190818091E702892B80837B
:10355000E0915D01F0915E0190818091E602892BFE
:1035600080838091DD02882381F0E0915D01F091FC
:103570005E019081892B808380915D0190915E0135
:103580000E94A71B81110E948E1A80915D0190916B
:103590005E010C9423110C94801A98E0899F90018D
:1035A0001124262B2093DC020E94E1188091DC027A
:1035B0008595859585950C94CB1A1092DC0280E058
:1035C0000C94CB1A2091DC02809582238093DC023C
:1035D000982F977079F430E0482F082E000C550B87
:1035E0002417350739F08595859585950E94021930
:1035F0000C94DD1A089580E090E00E94742621E08A
:103600008C3E9E4F09F020E0822F089582E090E0EA
:103610000C946C2683E090E00C946C26682F83E079
:1036200090E00C947A26CF9384E090E00E946C2680
:10363000C82F81E290E00E946C262C2F30E0A90177
:10364000582BCA01CF910895CF93C92F682F84E0DA
:1036500090E00E947A266C2F81E290E0CF910C944A
:103660007A26AB01BC018FE090E00C948C26AB0174
:10367000BC0183E190E00C948C2660E070E0CB010B
:103680000C94371B60E070E0CB010E94311B0C945E
:103690003D1B6CEE7EEF80E090E00E94982660E09B
:1036A00082E090E00E947A2660E083E090E00E9451
:1036B0007A261092D8021092D9021092DA02109251
:1036C000DB0260E084E090E00E947A2660E081E224
:1036D00090E00E947A2660E085E090E00E947A26E1
:1036E00060E086E090E00E947A266FEF87E090E04D
:1036F0000E947A2640E050E0BA0188E090E00E9403
:103700008C2660E08DE090E00E947A2640E050E058
:10371000BA0188E190E00E948C2660E087E190E0A9
:103720000E947A2640E050E0BA018CE190E00E94CD
:103730008C2660E080E290E00E947A260C94421B86
:103740000C94491B682F8EE090E00C947A26FC01C3
:10375000329697E080E0915029F021912223D9F30D
:103760008F5FF9CF0895662349F0FC0132960896E1
:103770002191621729F0E817F907D1F780E0089541
:1037800081E008959C01FC0132969FEF80E0419119
:10379000461789F09F3F19F4411101C0982F8F5FA0
:1037A0008630A9F79F3F39F0F901E90FF11D97FD28
:1037B000FA956283089508959C012A5F3F4FFC01AA
:1037C0004281461301C01282019682179307B9F70E
:1037D00008950C94C21B0C94DC1B029626E0FC019D
:1037E00011922A95E9F7089508950C94F41B0C940E
:1037F000F41BCF930E94F71B0E94430A0E94F51B03
:10380000C0E08C2F0E94AA0A811104C0CF5FC8308B
:10381000C1F701C081E0CF9108950C94F41B0C9482
:103820000D1C0E940F1C80917F03843049F110927F
:10383000EA0220E488E190E00FB6F894A89580931E
:1038400060000FBE2093600080E00E94E30C0E94A5
:103850000F1C83B7817F846083BF83B7816083BF80
:103860007894889583B78E7F83BF0FB6F894A89518
:1038700080916000886180936000109260000FBEAC
:1038800008950C94F41B0E9408150E9417110E94C1
:10389000E30C0C94411C1F920F920FB60F9211244F
:1038A0008F939F93AF93BF938091EA02811113C0CE
:1038B0008091750390917603A0917703B09178037E
:1038C0004196A11DB11D8093750390937603A0933B
:1038D0007703B0937803BF91AF919F918F910F9031
:1038E0000FBE0F901F90189582E084BD93E095BDA8
:1038F0009AEF97BD80936E0008952FB7F89480914A
:10390000750390917603A0917703B09178032FBF50
:1039100008959C014FB7F8948091750390917603B8
:10392000A0917703B09178034FBF821B930B08954A
:1039300078941F920F920FB60F9211248F939F933A
:10394000AF93BF938091750390917603A091770315
:10395000B09178030196A11DB11D809375039093DA
:103960007603A0937703B0937803BF91AF919F91B3
:103970008F910F900FBE0F901F90189587E797E7D4
:1039800090930108809300089AE088E10FB6F894BC
:10399000A895809360000FBE90936000FFCF0E94B7
:1039A000FB1A811102C00E94A01B0E94061B80937B
:1039B000E9020E94131B90937A03809379030E947B
:1039C0000A1B682F70E080E090E00C9481188091D1
:1039D000F302089508950895CF93DF93EC010E94B8
:1039E0008C1E823011F0843039F581E08093E9003B
:1039F0008FEF9091E800815095FD06C095ED9A9566
:103A0000F1F700008111F5CF8091E80085FF14C027
:103A100040E050E068E070E0CE010E94A91E809175
:103A2000E8008E778093E80088E0FE01ABEEB2E01C
:103A300001900D928A95E1F7DF91CF910895089555
:103A400080917E03811109C00E943A200E94972034
:103A50008091E20084608093E200089510927E03DA
:103A60000895089508950C94431C42E061EC81E0B0
:103A70000C94B31F80918103833009F460C030F44B
:103A8000813071F0823009F499C008958A3009F4C8
:103A900085C08B3009F46BC0893009F0A7C020C005
:103AA00080918003813A09F0A1C08091E800877F6E
:103AB0008093E8008091840390918503892B21F401
:103AC00068E08BEE92E003C060E080E090E070E0A0
:103AD0000E94F41E8091E8008B778093E80008959F
:103AE00080918003813209F081C08091840390919C
:103AF0008503892B09F07AC08091E800877F809345
:103B0000E8008091E80082FD05C080917F0381116B
:103B1000F8CF6CC02091F3008091F20090E0922BDE
:103B2000029729F48091F1008B7F813021F48091FC
:103B3000F1008093F3028091E8008B7753C080916D
:103B40008003813A09F052C08091840390918503EB
:103B5000892B09F04BC08091E800877F8093E800B3
:103B60008091E80080FFFCCF8091690136C0809190
:103B700080038132D9F58091840390918503892B4C
:103B8000A9F58091E800877F8093E8000E94E81FF4
:103B900080918203809369010C94081580918003C1
:103BA000813221F58091E800877F8093E8000E94B0
:103BB000E81F809183038093F4020895809180032D
:103BC000813AA1F48091E800877F8093E80080919A
:103BD000E80080FFFCCF8091F4028093F100809197
:103BE000E8008E778093E8000C94E81F089584B76E
:103BF000877F84BF0FB6F894A89580916000886194
:103C000080936000109260000FBE90E080E80FB6D5
:103C1000F89480936100909361000FBE0E94681138
:103C20000E943A200E9497208091E2008460809355
:103C3000E20078940E942C230E9472118FE591E09B
:103C40000E94121180917F03853069F40E94111C3B
:103C500080917D038823B1F30E94F91B882391F39F
:103C60000E94931EEFCF0E947A11ECCF0C94381E65
:103C7000292F332723303105C1F058F42130310585
:103C800079F022303105C1F582E290E02CEA37E08C
:103C900037C02132310511F12232310531F12CC00A
:103CA00082E190E02EEC37E02BC09927813091051E
:103CB00061F040F08230910559F00397E9F4E4E8AF
:103CC000F7E008C0E8EAF7E005C0EAE9F7E002C07B
:103CD000EAE8F7E0849190E09F0112C0672B61F45D
:103CE00089E090E02EEB37E00BC0672B29F480E4ED
:103CF00090E020EE37E004C080E090E020E030E08B
:103D0000FA0131832083089580917F03843011F07C
:103D100081E0089582E008958091F502811102C04A
:103D20000C94841E089580E189BD82E189BD09B4A7
:103D300000FEFDCF8091D8008F7D8093D8008091C8
:103D4000E00082608093E0008091E00081FDFCCF84
:103D50000895CF92DF92EF92FF920F931F93CF932C
:103D6000DF93EC018B017A010E940720811133C09F
:103D7000E114F10439F0F70180819181081B190BDE
:103D8000C80FD91FC12CD12C0115110519F1809133
:103D9000E80085FD16C08091E8008E778093E800EA
:103DA000E114F10449F0F70180819181C80ED91E18
:103DB000D182C08285E00FC00E940720882321F3B2
:103DC0000AC089918093F10001501109FFEFCF1AC9
:103DD000DF0ADACF80E0DF91CF911F910F91FF9042
:103DE000EF90DF90CF900895209186033091870364
:103DF0002617370748F06115710539F42091E8005E
:103E00002E772093E80001C0B901FC0120E0611584
:103E1000710579F180917F038823F1F18530F1F10B
:103E20008091E80083FD3CC08091E80082FD2EC0B7
:103E30008091E80080FFEBCF2091F3008091F200A9
:103E400090E0922B6115710551F08830910538F49E
:103E500021912093F100615071090196F3CF21E087
:103E6000089709F020E08091E8008E778093E800C1
:103E7000CECF2111CFCF0AC080917F03882361F07C
:103E8000853061F08091E80083FD0AC08091E800F0
:103E900082FFF2CF80E0089582E0089583E00895E4
:103EA00081E0089520918603309187032617370714
:103EB00048F06115710539F42091E8002E772093C0
:103EC000E80001C0B901FC0120E06115710591F124
:103ED00080917F03882309F440C0853009F43FC0F6
:103EE0008091E80083FD3DC08091E80082FD2FC0F5
:103EF0008091E80080FFE9CF2091F3008091F200EB
:103F000090E0922B6115710559F08830910540F4CD
:103F100024912093F1003196615071090196F2CFFE
:103F200021E0089709F020E08091E8008E778093E7
:103F3000E800CBCF2111CCCF0AC080917F0388232A
:103F400061F0853061F08091E80083FD0AC08091C6
:103F5000E80082FFF2CF80E0089582E0089583E0D8
:103F6000089581E00895982F973068F59093E900BF
:103F7000981739F07091EC002091ED005091F0000D
:103F800003C0242F762F50E021FD02C09F5FECCFAD
:103F90003091EB003E7F3093EB003091ED003D7FA0
:103FA0003093ED003091EB0031603093EB00709373
:103FB000EC002093ED005093F0002091EE0027FDDF
:103FC000E5CF80E008958F708093E90081E0089547
:103FD0008091800387FF11C08091E80082FD05C0B9
:103FE00080917F038111F8CF11C08091E8008B7719
:103FF0000BC080917F03882349F08091E80080FF07
:10400000F8CF8091E8008E778093E80008952091A2
:10401000E4003091E50095E64091EC00842F81703A
:1040200040FF23C08091E80080FD1DC080917F0388
:10403000882399F0853099F08091EB0085FD11C0BF
:104040004091E4005091E5002417350729F3915081
:1040500011F09A01E1CF84E0089582E0089583E0B1
:10406000089581E0089580E008954091E80042FFBE
:10407000DDCF08950E94A8200E94B020E0EEF0E07D
:10408000808181608083E8EDF0E080818F7780839C
:1040900019BCA7EDB0E08C918E7F8C9380818F7ED0
:1040A000808310927E0308950F931F93CF93DF9325
:1040B0000E94A8200E94B020C8EDD0E088818F77B0
:1040C000888388818068888388818F7D888319BCF4
:1040D00010927F0310927B0310927D0310927C0359
:1040E00000EE10E0F80180818B7F80838881816001
:1040F000888342E060E080E00E94B31FE1EEF0E0E0
:1041000080818E7F8083E2EEF0E080818160808319
:10411000808188608083F80180818E7F80838881A0
:1041200080618883DF91CF911F910F910895E8ED11
:10413000F0E080818F7E8083E7EDF0E08081816018
:10414000808384E082BF81E080937E030C945420BE
:10415000E8EDF0E080818E7F80831092E200089588
:104160001092DA001092E10008951F920F920FB69C
:104170000F9211242F933F934F935F936F937F93ED
:104180008F939F93AF93BF93EF93FF938091E10041
:1041900082FF0BC08091E20082FF07C08091E100A6
:1041A0008B7F8093E1000E942B238091DA0080FFB7
:1041B0001FC08091D80080FF1BC08091DA008E7FE5
:1041C0008093DA008091D90080FF0DC080E189BD25
:1041D00082E189BD09B400FEFDCF81E080937F03B9
:1041E0000E94201D05C019BC10927F030E942E1D45
:1041F0008091E10080FF19C08091E20080FF15C02E
:104200008091E2008E7F8093E2008091E2008061E5
:104210008093E2008091D80080628093D80019BC1E
:1042200085E080937F030E94321D8091E10084FF2E
:1042300030C08091E20084FF2CC080E189BD82E122
:1042400089BD09B400FEFDCF8091D8008F7D809399
:10425000D8008091E1008F7E8093E1008091E200A0
:104260008F7E8093E2008091E20081608093E20083
:1042700080917B03882311F084E007C08091E300E4
:1042800087FD02C081E001C083E080937F030E942C
:10429000331D8091E10083FF29C08091E20083FFFC
:1042A00025C08091E100877F8093E10082E08093C8
:1042B0007F0310927B038091E1008E7F8093E10069
:1042C0008091E2008E7F8093E2008091E200806125
:1042D0008093E20042E060E080E00E94B31F8091A2
:1042E000F00088608093F0000E94311DFF91EF91F3
:1042F000BF91AF919F918F917F916F915F914F91FE
:104300003F912F910F900FBE0F901F9018951F9205
:104310000F920FB60F9211242F933F934F935F93F9
:104320006F937F938F939F93AF93BF93CF93DF93BD
:10433000EF93FF93C091E900CF708091EC00D82FEC
:10434000D17080FDD0E81092E9008091F000877F65
:104350008093F00078940E94CB211092E900809124
:10436000F00088608093F000CD2BCF70C093E900FF
:10437000FF91EF91DF91CF91BF91AF919F918F917D
:104380007F916F915F914F913F912F910F900FBE51
:104390000F901F9018951F93CF93DF93CDB7DEB783
:1043A000AA970FB6F894DEBF0FBECDBFE0E8F3E0EA
:1043B0008091F100819323E0E838F207C9F70E9469
:1043C0003A1D8091E80083FF2EC180918003909177
:1043D0008103492F50E04A30510508F024C1FA0109
:1043E000E059FF4F0C945B23803821F0823809F0AC
:1043F0001AC108C080917C0390917D03992389F0B4
:1044000082600FC0809184038F70873008F00BC1E9
:104410008093E9008091EB0085FB882780F910925A
:10442000E9009091E800977F9093E8008093F10075
:104430001092F100D1C0282F2D7F09F0F4C08823FD
:1044400019F0823061F0EFC080918203813009F071
:10445000EAC0933009F080E080937D032EC0809104
:10446000820381112AC0809184038F702FEF280F5F
:10447000263008F0D8C08093E9002091EB0020FF9F
:104480001CC0933021F48091EB00806214C09091A5
:10449000EB0090619093EB0021E030E0A90102C0B5
:1044A000440F551F8A95E2F74093EA001092EA0004
:1044B0008091EB0088608093EB001092E90080917E
:1044C000E800877F8093E8000E94E81FACC081115C
:1044D000AAC0109182031F778091E3008078812B1E
:1044E0008093E3008091E800877F8093E8000E943A
:1044F000E81F8091E80080FFFCCF8091E300806896
:104500008093E300111102C082E001C083E0809338
:104510007F0389C08058823008F085C08091820373
:10452000909183038C3D53E0950779F583E08A836E
:104530008AE289834FB7F894DE01139620E03EE0CB
:1045400051E2E32FF0E050935700E49120FF03C0C5
:10455000E295EF703F5FEF708E2F90E0EA3010F041
:10456000C79601C0C0968D939D932F5F243149F764
:104570004FBF8091E800877F8093E8006AE270E097
:10458000CE0101960E94F41E16C0609184037091C2
:104590008503AE014F5F5F4F0E94361EBC01892B21
:1045A00009F441C09091E800977F9093E8008981D9
:1045B0009A810E94521F8091E8008B778093E800D7
:1045C00032C0803881F58091E800877F8093E800D1
:1045D00080917B038093F1008091E8008E7772CF09
:1045E000811121C0809182039091830399270297C2
:1045F000D4F48091E800877F8093E8008091820363
:1046000080937B030E94E81F80917B03811106C089
:104610008091E30087FD02C081E001C084E08093C7
:104620007F030E94351D8091E80083FF0AC08091BE
:10463000E800877F8093E8008091EB0080628093A0
:10464000EB00AA960FB6F894DEBF0FBECDBFDF9188
:10465000CF911F9108950895CF9380917F03882370
:10466000A1F0C091E900CF709091EC00892F81708A
:1046700090FD80E8C82B1092E9008091E80083FD4E
:104680000E94CB21CF70C093E900CF91089597FB92
:10469000072E16F4009407D077FD09D00E946123FD
:1046A00007FC05D03EF4909581959F4F0895709535
:1046B00061957F4F0895EE0FFF1F0590F491E02D57
:1046C0000994AA1BBB1B51E107C0AA1FBB1FA61759
:1046D000B70710F0A61BB70B881F991F5A95A9F7AB
:1046E00080959095BC01CD010895FB01DC0104C0CB
:1046F0008D910190801921F441505040C8F7881BDA
:10470000990B08956817790768F4FB01DC01E40F41
:10471000F51FA40FB51F02C002900E9241505040E9
:10472000D8F708950C94BE25DC0101C06D9341506B
:104730005040E0F70895FB01DC0101900D9200204C
:10474000E1F70895AEE0B0E0E8EAF3E20C94BC26AD
:104750000D891E898F89988D26E02C831A83098301
:1047600097FF02C080E090E801979E838D83AE01A1
:10477000455E5F4F698D7A8DCE0101960E94D223EE
:104780004D815E8157FD0AC02F813885421753073E
:104790000CF49A01F801E20FF31F10822E96E4E068
:1047A0000C94D826ABE0B0E0E8EDF3E20C94AE2632
:1047B0006C017B018A01FC0117821682838181FFD3
:1047C000CCC1CE0101963C01F6019381F70193FD26
:1047D000859193FF81917F01882309F4BAC18532C5
:1047E00039F493FD859193FF81917F01853229F4FE
:1047F000B60190E00E94D225E7CF912C212C312CDC
:10480000FFE1F315D8F08B3279F038F4803279F08B
:104810008332A1F4232D20611DC08D3261F08033DD
:1048200069F4232D216016C0832D8260382EE32D7C
:10483000E4603E2E2AC0F32DF8601DC037FC2DC069
:1048400020ED280F2A3040F08E32B9F436FC81C1B9
:10485000232D2064322E19C036FE06C08AE0989EB1
:10486000200D1124922E11C0EAE02E9E200D11245D
:10487000222EF32DF0623F2E08C08C3621F4832DBA
:104880008068382E02C0883641F4F70193FD859187
:1048900093FF81917F018111B3CF982F9F7D955414
:1048A000933028F40C5F1F4F9FE399830DC083362C
:1048B00031F0833771F0833509F059C021C0F80118
:1048C000808189830E5F1F4F88248394912C53012C
:1048D00013C02801F2E04F0E511CF801A080B180F6
:1048E00036FE03C0692D70E002C06FEF7FEFC50197
:1048F0000E94C7254C018201F32DFF773F2E16C081
:10490000280122E0420E511CF801A080B18036FE41
:1049100003C0692D70E002C06FEF7FEFC5010E94F8
:10492000B3254C01F32DF0683F2E820133FC1BC0F0
:10493000822D90E088169906B0F4B60180E290E0EE
:104940000E94D2252A94F4CFF50137FC859137FED9
:1049500081915F01B60190E00E94D22521102A9436
:1049600021E0821A91088114910471F7E8C084361D
:1049700011F0893641F5F80137FE07C06081718179
:10498000828193810C5F1F4F08C060817181072E67
:10499000000C880B990B0E5F1F4FF32DFF763F2EF7
:1049A00097FF09C090958095709561957F4F8F4FC7
:1049B0009F4FF0683F2E2AE030E0A3010E940E26B0
:1049C000882E861845C0853731F4232D2F7EB22ED0
:1049D0002AE030E025C0932D997FB92E8F36C1F0A3
:1049E00018F4883579F0B5C0803719F0883721F090
:1049F000B0C0E92FE061BE2EB4FE0DC0FB2DF46007
:104A0000BF2E09C034FE0AC0292F2660B22E06C070
:104A100028E030E005C020E130E002C020E132E0D3
:104A2000F801B7FE07C060817181828193810C5FBC
:104A30001F4F06C06081718180E090E00E5F1F4FC4
:104A4000A3010E940E26882E8618FB2DFF773F2E8D
:104A500036FE0DC0232D2E7FA22E891458F434FE6D
:104A60000BC032FC09C0832D8E7EA82E05C0B82C49
:104A7000A32C03C0B82C01C0B92CA4FE0FC0FE01AA
:104A8000E80DF11D8081803321F49A2D997EA92EA5
:104A900009C0A2FE06C0B394B39404C08A2D8678E0
:104AA00009F0B394A3FC11C0A0FE06C0B21488F4B0
:104AB000280C922C9B180EC0B21460F4B60180E250
:104AC00090E00E94D225B394F7CFB21418F42B18BB
:104AD00002C0982C212CA4FE10C0B60180E390E007
:104AE0000E94D225A2FE17C0A1FC03C088E790E077
:104AF00002C088E590E0B6010CC08A2D867859F096
:104B0000A1FE02C08BE201C080E2A7FC8DE2B601EB
:104B100090E00E94D225891438F4B60180E390E039
:104B20000E94D2259A94F7CF8A94F301E80DF11DE3
:104B30008081B60190E00E94D2258110F5CF22201D
:104B400009F442CEB60180E290E00E94D2252A9478
:104B5000F6CFF6018681978102C08FEF9FEF2B96EB
:104B6000E2E10C94CA26FC010590615070400110EE
:104B7000D8F7809590958E0F9F1F0895FB01DC015B
:104B800002C001900D9241505040D8F70895FC01A9
:104B90006150704001900110D8F7809590958E0F6C
:104BA0009F1F08950F931F93CF93DF93FB012381E2
:104BB00021FD03C08FEF9FEF2CC022FF16C046815E
:104BC0005781248135814217530744F4A081B18174
:104BD0009D012F5F3F4F318320838C932681378146
:104BE0002F5F3F4F3783268314C08B01EC01FB01FD
:104BF0000084F185E02D0995892BE1F6D801169600
:104C00008D919C911797019617969C938E9316976A
:104C1000CE01DF91CF911F910F910895FA01AA273C
:104C2000283051F1203181F1E8946F936E7F6E5FEF
:104C30007F4F8F4F9F4FAF4FB1E03ED0B4E03CD09D
:104C4000670F781F891F9A1FA11D680F791F8A1F80
:104C5000911DA11D6A0F711D811D911DA11D20D0E7
:104C600009F468943F912AE0269F11243019305DA1
:104C70003193DEF6CF010895462F4770405D419392
:104C8000B3E00FD0C9F7F6CF462F4F70405D4A33DF
:104C900018F0495D31FD4052419302D0A9F7EACFA7
:104CA000B4E0A6959795879577956795BA95C9F7D6
:104CB00000976105710508959B01AC010A2E0694C9
:104CC0005795479537952795BA95C9F7620F731F82
:104CD000841F951FA01D0895F999FECF92BD81BD37
:104CE000F89A992780B50895A8E1B0E042E050E035
:104CF0000C94A026262FF999FECF92BD81BDF89A7B
:104D0000019700B4021639F01FBA20BD0FB6F8940F
:104D1000FA9AF99A0FBE08950396272F0E947B26D0
:104D20000E947A26252F0E947B26242F0C947B2616
:104D30000196272F0E947B260C947A26DC01CB015A
:104D4000FC01F999FECF06C0F2BDE1BDF89A31969B
:104D500000B40D9241505040B8F708952F923F9201
:104D60004F925F926F927F928F929F92AF92BF927B
:104D7000CF92DF92EF92FF920F931F93CF93DF9327
:104D8000CDB7DEB7CA1BDB0B0FB6F894DEBF0FBE84
:104D9000CDBF09942A88398848885F846E847D84D1
:104DA0008C849B84AA84B984C884DF80EE80FD80D3
:104DB0000C811B81AA81B981CE0FD11D0FB6F89449
:0E4DC000DEBF0FBECDBFED010895F894FFCF0A
:104DCE000105012D02000000012B022D02042E020E
:104DDE00012B022C02000000043202FFFF808182B0
:104DEE00838485868788898A8B8C8D8E8F9091920D
:104DFE009394A0A1A2A3A4A5A6A7A8A9AAABACAD63
:104E0E00AEAFB0B1B2B3B4C0C1C2C3C4C5C6C7C8D9
:104E1E00C9CACBCCCDCECFD0D1D2D3D400DE02E70F
:104E2E001CEC1CEA1C1F1DEB1C0125730A00F4F57B
:104E3E00F6F7313332946697C6000000004C617964
:104E4E0065723A2044656661756C74004C617965D3
:104E5E00723A205261697365004C617965723A202D
:104E6E004C6F776572004C617965723A2041646AC5
:104E7E00757374004C617965723A20556E6465667F
:104E8E002D256C640025647825642C206B253264F6
:104E9E00203A20256300202020206162636465662D
:104EAE006768696A6B6C6D6E6F707172737475760C
:104EBE007778797A3132333435363738393052455E
:104ECE004254202020202020203B27202C2E2F2033
:024EDE00202092
:00000001FF
