:100000000C94C2050C9409060C9409060C94BD06C8
:100010000C9409060C9409060C9409060C94090624
:100020000C9409060C9409060C9467240C94392549
:100030000C94FD1F0C9409060C9409060C940906F7
:100040000C9409060C9409060C9409060C940906F4
:100050000C9409060C944A200C9409060C94090689
:100060000C9409060C9409060C9409060C940906D4
:100070000C9409060C9409060C9409060C940906C4
:100080000C9409060C9409060C9409060C940906B4
:100090000C943C0A0C9409060C9409060C9409066D
:1000A0000C9409060C9409060C94090613161316F1
:1000B00045164516A817A817A817A81792162717A8
:1000C000381738179817A817A817A1173C183C1805
:1000D0004E184E1845184E184E184E183C183C181D
:1000E0004A184E184E184A18A625CD25C526CD25E6
:1000F000C52619263C26C5269326A2260000000008
:1001000000003E5B4F5B3E003E6B4F6B3E001C3E73
:100110007C3E1C00183C7E3C18001C577D571C0080
:100120001C5E7F5E1C0000183C180000FFE7C3E760
:10013000FF00001824180000FFE7DBE7FF0030484D
:100140003A060E00262979292600407F050507007A
:10015000407F05253F005A3CE73C5A007F3E1C1C6F
:100160000800081C1C3E7F0014227F2214005F5FE1
:10017000005F5F0006097F017F00006689956A00C5
:1001800060606060600094A2FFA2940008047E0496
:10019000080010207E20100008082A1C0800081CF7
:1001A0002A0808001E10101010000C1E0C1E0C0057
:1001B00030383E383000060E3E0E060000000000CB
:1001C000000000005F000000000700070000147F2F
:1001D000147F1400242A7F2A12002313086462006B
:1001E000364956205000000807030000001C224139
:1001F00000000041221C00002A1C7F1C2A00080865
:100200003E08080000807030000008080808080058
:100210000000606000002010080402003E514945C3
:100220003E0000427F40000072494949460021419A
:10023000494D33001814127F1000274545453900F9
:100240003C4A4949310041211109070036494949D1
:100250003600464949291E000000140000000040F5
:100260003400000000081422410014141414140077
:100270000041221408000201590906003E415D595F
:100280004E007C1211127C007F49494936003E41E4
:10029000414122007F4141413E007F49494941009F
:1002A0007F09090901003E41415173007F08080898
:1002B0007F0000417F4100002040413F01007F0856
:1002C000142241007F40404040007F021C027F001A
:1002D0007F0408107F003E4141413E007F0909092B
:1002E00006003E4151215E007F091929460026493A
:1002F0004949320003017F0103003F4040403F0075
:100300001F2040201F003F4038403F006314081466
:1003100063000304780403006159494D4300007FE2
:1003200041414100020408102000004141417F008A
:10033000040201020400404040404000000307085E
:1003400000002054547840007F284444380038444A
:1003500044442800384444287F003854545418003A
:1003600000087E09020018A4A49C78007F080404F9
:10037000780000447D4000002040403D00007F1098
:100380002844000000417F4000007C04780478008D
:100390007C0804047800384444443800FC182424C1
:1003A000180018242418FC007C0804040800485491
:1003B0005454240004043F4424003C4040207C006A
:1003C0001C2040201C003C4030403C0044281028A9
:1003D00044004C9090907C004464544C44000008CD
:1003E00036410000000077000000004136080000A0
:1003F0000201020402003C2623263C0003071F7F63
:10040000FFFFFEF8F0C020F8FEFFFE79271F7FFFF8
:10041000FFFEF8F0C020F8FEFFFF7F3F3F7FFFFEAA
:10042000F8F0C000000000FFFFFFFFFFFF0000002A
:1004300000000000FF7F7F7FBFBFC0C0C0E0E0E0E2
:10044000E0F0F0F0F878787C3C3CFEFEFEFFFFFF29
:10045000000000000000000000008080BFBFDFDF60
:10046000EFEF0003071F7FFFFFFFFEF8E0C0E0F89B
:10047000FEFFFFFF7F1F07030000E0F0F0F0E0EC5D
:10048000EEF7F37020007C7C7C7E007E7E7E7F7F9A
:100490007F000080C0E07E5B4F5BFEC00000C000BC
:1004A000DCD7DEDEDED7DC00C0000000000000008C
:1004B000000000000000000000000000000000003C
:1004C000C1F3CFBF7FFFFFFCFBE78100000000808E
:1004D000E3CF3FFFFFFFFCFBE7810000000081E767
:1004E000FFFFFFFF3C0000FFFFFFFFFFFFF8F8FCEE
:1004F0007C7E7E3EFEFFFFFFFFFFF7F7F7FBFB7DF5
:100500007D7DBEBEBEDFDFE0E000FFFFFFFFFFFF3F
:1005100000FCFC7C7E7E3E3E1F1F1F0FFFFFFFFF87
:10052000FFFF000000000081E7FFFFFFFFFFFFFF6C
:10053000FFFFE7810000000000000F1F3F7F7F7F6B
:100540007F7F3F1E0C001F1F1F3F003F3F3F7F7FED
:100550007F00307B7F7830202030787F3B000300A5
:100560000F7F0F0F0F7F0F0003000000000000003F
:1005700000000000000000000000000060707C7FB0
:100580007F7F7F1F0601030F3F7F7F7E7C7C7E7F06
:100590007F7F1F0601070F3F7F7F7E7C7C7E7F7FF2
:1005A0003F0F03000000007F7F7F7F7F7F00000000
:1005B000000000007F7F7F7F7F7F7D7D3D3E1E1F8F
:1005C0001F1F0F0F0707070303007F7F7F7F7F7FBA
:1005D0007C7C7C7C7C7C7C7C7C7C7C007F7F7F7FCB
:1005E0007F7F004070787E7F7F7F3F0F0301030F86
:1005F0003F7F7F7F7E787040000000000000000099
:1006000000000000000000000000000000000000EA
:1006100000000000000000000000000000000000DA
:1006200000000000000000000000000000000000CA
:1006300000000000000000000000000080818283B4
:100640008485868788898A8B8C8D8E8F90919293F2
:1006500094A0A1A2A3A4A5A6A7A8A9AAABACADAE3D
:10066000AFB0B1B2B3B4C0C1C2C3C4C5C6C7C8C9B4
:10067000CACBCCCDCECFD0D1D2D3D400556E646509
:10068000662D0041646A757374004C6F7765720063
:1006900052616973650044656661756C74004C61F4
:1006A0007965723A20000A00202020200053434C34
:1006B0004B002020202000434150530020202020C8
:1006C000202020004E554D4C4F434B000A00200087
:1006D0000A000A00959600B5B600979800B7B800D2
:1006E0000102E2600103E2000102E2600103E200B4
:1006F00029001E001F0020002100220000002B0006
:1007000014001A000800150017000000E0000400A3
:100710001600070009000A000000E1001D001B0090
:10072000060019000500E3000D5D19010601E20055
:100730000C5D0B5D2A004C002700260025002400DC
:10074000230000002A00130012000C0018001C00F7
:100750000000340033000F000E000D000B000000FD
:10076000E50038003700360010001100E3000C5D92
:100770004F005200510050002C00280035001E0090
:100780001F0020002100220000002B0014001A008E
:10079000090013000A000000E00004001500160024
:1007A000170007000000E1001D001B0006001900F3
:1007B00005002F000D5D2900E200E3000F5D0B5DD9
:1007C0002C004C00270026002500240023000000F8
:1007D0002A0033001C0018000F000D000000340038
:1007E00012000C00080011000B0000002800380067
:1007F0003700360010000E0030004F00520051004C
:100800005000105D0C5D2C0035001E001F00200004
:100810002100220000002B003400360037001300B6
:100820001C000000E00004001200080018000C008A
:100830000000E100330014000D000E001B002F002B
:100840000D5D2900E200E3000F5D0B5D2C002A0026
:100850002700260025002400230000004C000F0084
:10086000150006000A0009000000380016001100FB
:1008700017000B000700000028001D0019001A00D7
:100880001000050030004F00520051005000105D74
:100890000C5D2C0035023A003B003C003D003E0060
:1008A000000035021E021F02200221022202000067
:1008B0000100010001000100010001000000010031
:1008C0000100010001000100010001000100010020
:1008D000010001000100010001004400430042004A
:1008E000410040003F00000045002702260225028B
:1008F000240223020000350230002F002E002D00BC
:1009000031000000010030022F022E022D023102C0
:100910003500AE00A900AA00AB00010001000100F3
:1009200035001E001F0020002100220000003500BD
:100930001E001F00200021002200000001004A00CC
:100940004E004B004D0001000000010001000100BD
:10095000010001000100010001000100010001008F
:100960000100010001002A002700260025002400C4
:10097000230000004C00270026002500240023004F
:10098000000001004F005200510050000100000023
:100990000100010001000100010001000100AE00A2
:1009A000A900AA00AB000100010001003A003B00D1
:1009B0003C003D003E003F0000000100005C115D76
:1009C00001000100010000000100010001001D5CA8
:1009D0001E5C135C00000100010001000100010029
:1009E00001000100010001000100010001000100FF
:1009F0000100450044004300420041004000000067
:100A00004C00010001000100010001000000010094
:100A100001000A5D095D085D0A5C0000C95CC75CF5
:100A2000C55CC25C010001000100CA5CC85CC65C18
:100A3000C35C010001000100000000000000000094
:100A40002A2B280000000000000000000000000029
:100A500000000029000000002C1E34202122243434
:100A60002627252E362D3738271E1F202122232406
:100A700025263333362E37381F0405060708090AA2
:100A80000B0C0D0E0F101112131415161718191A3E
:100A90001B1C1D2F3130232D350405060708090ABC
:100AA0000B0C0D0E0F101112131415161718191A1E
:100AB0001B1C1D2F3130354C0000000000000000D1
:100AC0000000000000000000000000007E0F00D4C5
:100AD000FFFFFFC70000007804033000000016038A
:100AE000480065006C006900780020004200650045
:100AF0007400610000001403590075007300680061
:100B000061006B006F0062006F00000004030904C5
:100B100009022200010100A03209040000010301C2
:100B2000010009211101000122400007058103088D
:100B3000000A1201100100000008653200000100E7
:100B40000102030105010906A101050719E029E7D2
:100B5000150025019508750181029501750881012F
:100B60000507190029FF150026FF00950675088165
:100B70000005081901290595057501910295017572
:100B8000039101C011241FBECFEFDAE0DEBFCDBF5D
:100B900004B603FE27C08091850290918602A09141
:100BA0008702B09188028730904BA740B04BD1F4B8
:100BB000109285021092860210928702109288028B
:100BC00014BE84B7877F84BF0FB6F894A895809130
:100BD0006000886180936000109260000FBEE0E0CA
:100BE000F8E3099511E0A0E0B1E0E4E2F5E502C028
:100BF00005900D92A034B107D9F722E0A0E4B1E04E
:100C000001C01D92A538B207E1F70E94A9210C94FA
:100C1000902A0C9400008EE14A9B02C08150E1F7BB
:100C20004A9BFECF08955A9880E28A95F1F75A9A26
:100C30000895FC012AE02A95F1F790E020E080E099
:100C400031E0261779F040E14A95F1F7880F4A9B89
:100C500002C08160932700C0000040E14A95F1F78F
:100C60002F5FEFCF20E12A95F1F729B100C00000F6
:100C700030E13A95F1F722FB222720F992272081D3
:100C8000920F90830895EF92FF920F931F93CF934B
:100C9000DF931F92CDB7DEB719828C017C01E60E7F
:100CA000F11C0E151F0559F00E940B0668E0CE01DD
:100CB00001960E941906F80181938F01F2CF81E01D
:100CC0009981911180E00F90DF91CF911F910F9149
:100CD000FF90EF90089590934201809341016093BB
:100CE0004001529A5A9A089590934201809341018B
:100CF0006093400152985A9AEA9AE9E6F0E08081BE
:100D00008F7C80830895615091E001C0990F6A95AE
:100D1000EAF720E031E0992361F0492F482319F0E8
:100D20005A9A232701C05A9840E24A95F1F79695BE
:100D3000F2CF222311F05A9A01C05A9880E28A9584
:100D4000F1F75A980895FF920F931F93CF93DF9373
:100D5000EC018C01060F111DC017D10741F0F9906D
:100D60000E94130668E08F2D0E948306F5CFDF9165
:100D7000CF911F910F91FF9008951F920F920FB680
:100D80000F9211240F931F932F933F934F935F93D1
:100D90006F937F938F939F93AF93BF93EF93FF9343
:100DA000CF93DF931F92CDB7DEB719820E940B0657
:100DB00067E0CE0101960E941906382F36953695C8
:100DC0003695932F96959570232F2570920F292F86
:100DD0002370969596958770920F891348C08981E4
:100DE000811145C080914001831708F440C080E123
:100DF0008A95F1F75A9A529AA2E0AA95F1F700C0A3
:100E00000091410110914201B8E03B9F000D111D7E
:100E100011245A98F8016581662321F08681978113
:100E20000E94A3060E941306F0E1FA95F1F75A9882
:100E300052985A9A80E18A95F1F7D80112966C91EE
:100E40001297662369F013968D919C9114970E94D6
:100E50004306D801ED91FC91811105C082E004C0E8
:100E6000D801ED91FC9188E080830E940B060F90E1
:100E7000DF91CF91FF91EF91BF91AF919F918F91B2
:100E80007F916F915F914F913F912F911F910F91A2
:100E90000F900FBE0F901F9018950F931F93CF9335
:100EA000DF932091400130E0281739070CF471C01E
:100EB0009C0193E0220F331F9A95E1F7C091410105
:100EC000D0914201C20FD31FF894529A5A9845E02C
:100ED0004A95F1F70000982F969595708570890FC7
:100EE000982F937086958695890F8901082B0E940B
:100EF000130684E08A95F1F700C067E0802F0E9416
:100F0000830640E14A95F1F752985A9A4A9902C0ED
:100F100000C0FCCF87E090E04A9B0EC0019751F4DF
:100F2000529A5A9AE881F98181E08083789481E02D
:100F300090E031C000C0F0CF6D81662381F08E81DA
:100F40009F810E94430681110AC0529A5A9AE881F1
:100F5000F98182E08083789482E090E01CC00E9456
:100F60000B0680E28A95F1F75A98529A40E14A9529
:100F7000F1F76A81662321F08B819C810E94A30690
:100F80000E941306E881F9811082789480E090E055
:100F900002C084E090E0DF91CF911F910F910895FE
:100FA000CF93DF93A1E3B1E046E351E061E070E06D
:100FB0008D91E82FE295EF70F0E021A18F70EB01A9
:100FC00002C0CC0FDD1F8A95E2F7CE019C2F9095D1
:100FD000922391A392A1892B82A34A175B0741F721
:100FE000DF91CF9108950C94100E0E9491090E94F8
:100FF000D007AAE2B1E041E050E08D91E82FE29500
:10100000EF70F0E021A18F70BA0102C0660F771F68
:101010008A95E2F7CB01962F9095922391A392A106
:10102000892B82A371E0A133B70739F7209A559A2B
:10103000289A5D9AEDE4F1E0A3E4B1E011921D92EB
:1010400081E0E735F807D1F70C94C40F9F92AF9277
:10105000BF92CF92DF92EF92FF920F931F93CF93A5
:10106000DF9380910101811103C0C5E0D0E002C08F
:10107000C0E0D0E0AE014D5B5E4F7A0181E3C82E47
:1010800081E0D82E8A01AA24A394B12C25E0922EC7
:10109000F6E3CF16F1E0DF0609F44AC0F6018191CC
:1010A0006F01E82FE295EF70F0E021A18F70A501AC
:1010B00002C0440F551F8A95E2F7CA01922F982B60
:1010C00091A392A18095892382A350EA5A95F1F7C2
:1010D000EAE2F1E020E040E050E03191A32FA29558
:1010E000AF70B0E090968C9190E03F7002C0959503
:1010F00087953A95E2F780FD07C0C501042E01C02F
:10110000880F0A94EAF702C080E090E0282B4F5F36
:101110005F4F4730510509F7F8018081821719F0B8
:101120002083909200010E94D0070F5F1F4FB0CF25
:10113000809100018823B1F08150809300018111DA
:1011400003C0C35BDE4F07C08FE99FE00197F1F753
:1011500000C0000007C0F70191917F0199938F5F54
:101160008530C9F781E0DF91CF911F910F91FF90FA
:10117000EF90DF90CF90BF90AF909F900895CF9366
:10118000DF9320910101211103C0C0E0D0E002C033
:10119000C5E0D0E00E94AC09009721F0029781F4ED
:1011A00028980EC0289ADE01A35BBE4F85E0E3E6D7
:1011B000F1E001900D928A95E1F780E090E002C0A5
:1011C00081E090E0DF91CF9108950E942608809100
:1011D0000101811103C0E5E0F0E002C0E0E0F0E0D1
:1011E000E35BFE4F20E030E080E0D901AD59BE4F17
:1011F0004C919191491381E09C932F5F3F4F253093
:10120000310599F790915B01890F80935B010895F7
:10121000CF93DF930E946F09882309F43FC00E9497
:10122000260880910101811103C0C5E0D0E002C011
:10123000C0E0D0E0C35BDE4F45E050E0BE018EE58C
:1012400091E00E94272725E0FE01AEE5B1E0019084
:101250000D922A95E1F70E94BF08892BD9F05D987D
:10126000809157018F5F80935701863058F18091AC
:101270000101811103C0E0E0F0E002C0E5E0F0E030
:10128000E35BFE4F80E090E011920196853091057E
:10129000D9F718C05D9A1092570114C00E94E50852
:1012A00080910101811103C0A0E0B0E002C0A5E07F
:1012B000B0E0A35BBE4F85E0EEE5F1E001900D925A
:1012C0008A95E1F70E94CC0F81E0DF91CF910895DC
:1012D000E82FF0E0E35BFE4F808108950895809150
:1012E0005801811112C08091D80080618093D8008C
:1012F0008AE18A95F1F700C08091D90080FD02C093
:1013000082E001C081E08093580181E09091580112
:10131000913009F080E008950E946F0991E08927DB
:1013200008950E948C09809301010E946F0988230F
:1013300019F00E94A00902C00E94A609789408959D
:1013400063E070E082E091E00C946B0663E070E093
:1013500082E091E00C9474060F931F93CF93DF9378
:101360008C0190911B0180911A01981761F082E025
:1013700090E00E944D07EC01892B39F480911A010D
:1013800080931B0102C0C0E0D0E0012B49F48091A2
:10139000590190915A01892B19F480E090E002C024
:1013A00081E090E00E944D07892B49F480915B0118
:1013B00080931A0110925A011092590106C081E0DF
:1013C00090E090935A0180935901CE01DF91CF9123
:1013D0001F910F91089583E390E02091BC0027FDB9
:1013E00002C00197D1F708951092B9008CE0809364
:1013F000B8000895CF93C82F84EA8093BC000E9460
:10140000EB098091B900887F883039F08091B9006C
:10141000887F803111F081E012C0C093BB0084E866
:101420008093BC000E94EB098091B900887F8831CD
:1014300029F08091B900887F803469F780E0CF91EE
:10144000089584E98093BC0083E390E02091BC0080
:1014500024FD02C00197D1F708958093BB0084E872
:101460008093BC000E94EB099091B900987F81E0C5
:10147000983209F480E008951F920F920FB60F92F0
:1014800011248F939F93EF93FF938091B900887FEE
:10149000803869F038F48823C9F18036C9F5109294
:1014A000680136C0883A09F1883BF9F031C0809173
:1014B0006801811111C08091BB0080936901809106
:1014C0006901803120F01092690180E001C081E063
:1014D00091E0909368011DC0E0916901F0E0809176
:1014E000BB00E55FFD4F808308C0E0916901F0E03B
:1014F000E55FFD4F80818093BB008091690190E0A2
:1015000001968F7099278093690102C01092BC00E8
:1015100081E09091BC008295880F880F807C95684F
:10152000892B8093BC00FF91EF919F918F910F9039
:101530000FBE0F901F901895CF93C82F88E70E9479
:10154000FA0981110AC080E00E942D0A811105C0AC
:101550008C2F0E942D0AC1E08111C0E00E94210A57
:101560008C2FCF910895CF93C62F0E949C0A882379
:1015700021F08C2FCF910C949C0A80E0CF9108959C
:10158000CF93C62F0E949C0A882349F080E00E94D6
:101590009C0A882321F08C2FCF910C949C0A80E028
:1015A000CF9108958EEA0C949C0A8FEA0C949C0AC1
:1015B0000F931F93CF93DF938C010C5A1F4FD801C9
:1015C000ED91FC91119760832D913C9111972F5FC4
:1015D0003F4F2D933C93281B390B24353105B9F42B
:1015E000EC01BC016B5E7F4F4FE350E00E9434275B
:1015F000CE01CF96F8019183808345E150E060E20F
:1016000070E0DF91CF911F910F910C944627DF91ED
:10161000CF911F910F9108951F93CF93DF93FC01FA
:10162000EA5AFF4F21E020836A3099F4EC013297A7
:10163000808191818C1B9D0B65E170E00E94F926F1
:10164000182F153158F460E2CE010E94D80A1F5FAE
:10165000F8CFDF91CF911F910C94D80ADF91CF91F1
:101660001F910895EF92FF920F931F93CF93DF93F3
:101670007C01EB01FB0101900020E9F78F01015093
:101680001109C017D10728F46991C7010E940C0BFA
:10169000F8CFDF91CF911F910F91FF90EF900895B8
:1016A0000F931F93CF93DF938C01EB01FE016491A5
:1016B000662329F0C8010E940C0B2196F7CFDF9119
:1016C000CF911F910F910895CF93DF93EC0144E5E3
:1016D00050E060E270E00E944627FE01EC5AFF4FA6
:1016E000D183C083CA5ADF4F81E08883DF91CF91D5
:1016F00008959F92AF92BF92CF92DF92EF92FF92A6
:101700000F931F93CF93DF93EC010E942F209093B0
:101710006B0180936A010E94D50A63E082E20E9415
:10172000C00A882309F43CC06DE781E20E94C00A28
:101730008823B1F188E70E94FA09811131C080E461
:101740000E942D0A81112CC06E0184E0982E00E0C9
:1017500010E0F601E00FF11FA08086E0A89E500186
:101760001124E12CF12CF501EE0DFF1DE450FF4F8B
:1017700084910E942D0A8FEFE81AF80A86E0E81695
:10178000F10489F70F5F1F4F0531110511F79A9486
:1017900085E1C80ED11C9110DACFCA5ADF4F1882EA
:1017A000DF91CF911F910F91FF90EF90DF90CF903D
:1017B000BF90AF909F900C94210A8BE192E00C9423
:1017C000790BCF93DF93C82F0E94F4098EEA0E9411
:1017D0009C0A811102C080E09BC060E885ED0E94F8
:1017E000B30A8823C1F36FE188EA0E94B30A882311
:1017F00091F360E083ED0E94B30A882361F380E4F3
:101800000E949C0A882339F364E18DE80E94B30AA0
:10181000882309F360E080E20E94B30A8823D9F2AA
:10182000CC2339F080EA0E949C0A8823A1F280EC44
:1018300006C081EA0E949C0A882369F288EC0E9413
:101840009C0A882341F262E08AED0E94B30A882351
:1018500011F26FE881E80E94B30A882309F4BBCF34
:1018600061EF89ED0E94B30A882309F4B4CF60E4E4
:101870008BED0E94B30A882309F4ADCF84EA0E945D
:101880009C0A882309F4A7CF86EA0E949C0A882331
:1018900009F4A1CF8EE20E949C0A882309F49BCF11
:1018A0008FEA0E949C0A882309F495CF60E081E8C2
:1018B0000E94B30A882309F48ECF8BE192E00E9444
:1018C000640B63E082E20E94C00A8823E1F06FE7C4
:1018D00081E20E94C00A8823B1F088E70E94FA09D9
:1018E000811111C080E40E942D0A81110CC0D4E046
:1018F000C0E080E00E942D0ACF5FC038D1F7D15000
:10190000B9F7109271020E94210A0E94DD0B81E05A
:10191000DF91CF9108950E94890E8091710281110B
:1019200004C080911C01882321F00E94DD0B1092DD
:101930001C0180916A0190916B010E943B208136CD
:101940009A4E10F00C94D20A089581E080931C0105
:1019500008950F931F93CF93DF93EC018B010E94A7
:10196000A50C882329F0B801CE010E94630D02C0A6
:1019700080E090E08170DF91CF911F910F910895E9
:1019800008950E946F0980936C010C940A0E0C94C8
:101990007A14EF92FF920F931F93CF93DF93CDB7FB
:1019A000DEB72A970FB6F894DEBF0FBECDBF8C010D
:1019B0006EE976E00E94500B8091E9019091EA0176
:1019C000A091EB01B091EC0180319105A105B10529
:1019D000C9F058F40097A105B10589F00897A10551
:1019E000B105C9F46AE876E012C080329105A1051C
:1019F000B10559F0C897A105B10539F00CC066E9E9
:101A000076E005C060E976E002C063E876E0C801F0
:101A10000E94500B28C06CE776E0C8010E94500B72
:101A20008091EC018F938091EB018F938091EA017B
:101A30008F938091E9018F938BE391E09F938F9334
:101A40001F928AE08F93CE0101967C019F938F9322
:101A50000E944D27B701C8010E94320B0FB6F894BF
:101A6000DEBF0FBECDBF2A960FB6F894DEBF0FBE05
:101A7000CDBFDF91CF911F910F91FF90EF9008950F
:101A8000CF93DF93EC010E94C01EBE0180E090E086
:101A9000DF91CF910C94061CCF93DF93D62FC42FE8
:101AA0000E94661C882351F08D2F0E94661C88239B
:101AB00029F08C2FDF91CF910C94861C8C2FDF9115
:101AC000CF910C94A71CCF93FB018B302DE592078F
:101AD000D9F190F488302DE59207F9F028F4833C91
:101AE0009C4509F493C017C089302DE59207E1F0B9
:101AF0008A309D4511F10FC08D302DE5920709F414
:101B000053C0A0F18F302DE5920709F457C0803102
:101B10009D4509F464C0C1E07AC0C281CC2309F4B8
:101B200076C081E090E006C0C281CC2309F46FC08A
:101B300082E090E00E94400D69C0C281CC2309F48C
:101B400066C084E090E0F6CFC281CC2349F080915A
:101B50006D01811103C081E080936D0183E011C0AC
:101B600010926D0183E00E94A71C18C0C281CC2393
:101B700081F080916D01811103C081E080936D013E
:101B800084E00E94861C45E064E083E00E944C0DE6
:101B90003DC084E00E94A71C10926D0145E064E006
:101BA00083E00E944C0D33C0C28185E0CC2319F044
:101BB0000E94861C2BC00E94A71C29C0C281CC2376
:101BC00061F08091760282FBCC27C0F982FD02C0D1
:101BD00081E910C088EE96E012C081E914C0C2818C
:101BE000CC2381F08091760282FBCC27C0F982FD64
:101BF00004C080E90E945D150AC080EE96E00E9454
:101C0000C10F04C080E90E94901501C0C0E08C2F74
:101C1000CF9108950E946F0991E089270C94E10B00
:101C20000C948B0C0F931F93CF93DF93EC018B01DC
:101C300044E550E00E942727892B59F084E5F801FC
:101C4000DE0101900D928A95E1F7CA5ADF4F81E0DB
:101C50008883DF91CF911F910F910895CF93DF93E8
:101C6000EC018091760282FD0DC064ED76E0CE013C
:101C70000E94500B62ED76E0CE010E94500B67EDA2
:101C800076E00CC06AED76E0CE010E94500B60ED6C
:101C900076E0CE010E94500B6DED76E0CE010E9401
:101CA000500B6EEC76E0CE010E94500BCE010E94EC
:101CB000C90C6CEC76E0CE010E94500B0E943014EF
:101CC00080FD03C06CEB76E002C064EC76E0CE01F0
:101CD0000E94500B0E94301481FD03C062EB76E03D
:101CE00002C067EB76E0CE010E94500B0E943014D8
:101CF00082FD03C068EA76E002C06DEA76E0CE01BC
:101D00000E94500B66EA76E0CE01DF91CF910C94F1
:101D1000500BCF93DF93CDB7DEB7C755D1090FB6C0
:101D2000F894DEBF0FBECDBFCE0101960E94640BBA
:101D300080916C01882329F0CE0101960E942E0E1D
:101D40000AC06CE376E0CE0101960E94500BCE01F2
:101D500001960E94C90CBE016F5F7F4F8BE192E03C
:101D60000E94120EC95ADF4F0FB6F894DEBF0FBEA5
:101D7000CDBFDF91CF91089581E0089508950C942F
:101D8000BE0E1F93CF93DF9300D000D01F92CDB72C
:101D9000DEB749835A836B833091830189819A81AD
:101DA000311114C0662359F0222349F00E947B1D93
:101DB000182F682F89819A810E94241D03C00E94D8
:101DC0004F1D182F69817A81812F04C00E947B1DCD
:101DD00069817A810F900F900F900F900F90DF9193
:101DE000CF911F910C942C10FC01262F4081518122
:101DF0006281738184810C94C10ECF93DF93EC01D7
:101E000060E00E94F40EBE01DF91CF910C94BF0EF2
:101E1000FF920F931F93CF93DF93E82FF0E0E85CDE
:101E2000F54FF490C82FC695C695C695D0E0FE0133
:101E3000E853F54F0491877010E0082E02C0159505
:101E400007950A94E2F701701127FE01E854F54F57
:101E5000C491D0E002C0D595C7958A95E2F7C170CC
:101E6000DD270115110519F081EE0E945D152097FF
:101E700019F086EE0E945D158F2D0E94BC15CD2BAA
:101E800019F086EE0E949015012B41F081EEDF9152
:101E9000CF911F910F91FF900C949015DF91CF91EE
:101EA0001F910F91FF900895EF92FF920F931F9350
:101EB000CF93DF938C01F62E8AE0E82EF80184910F
:101EC000882309F457C0813009F042C0E801219607
:101ED000FE018491813031F42196FE0184910E94AB
:101EE000BC1539C0823039F4E8012296FE01849194
:101EF0000E945D1530C0833039F4E8012296FE015E
:101F000084910E94901527C0843029F5E80122961B
:101F1000FE01249180E090E030E0205331092A3026
:101F2000310560F4E89EA001E99E500D1124C9011D
:101F3000840F951F2196FE012491EECF009759F052
:101F4000EFE9FFE03197F1F700C000000197F6CF0D
:101F50000E94080FE8018E010F5F1F4F8F2D88230D
:101F600009F4ACCFEFE9FFE03197F1F700C00000D2
:101F70008150F5CFDF91CF911F910F91FF90EF909E
:101F8000089560E00C94540F0E94AD1E811102C0B0
:101F90000E94521F0C94C10C0C94F30781E0089529
:101FA0000C94CE0FCF93C82F0E94C00C8C2F0E9490
:101FB000D00FCF91089508950E942A180E94DB0F38
:101FC0002FEF84E39CE0215080409040E1F700C077
:101FD00000000C9470200F931F93CF93DF93EC01BC
:101FE00061E00E94F40E8C01BE010E94A90C8823BE
:101FF00049F1BE01C8010E948E12882319F1BE0169
:10200000C8010E94CF128823E9F0BE01C8010E94D6
:10201000FA138823B9F08A81882369F001158CE5C9
:10202000180731F00E3D1C4531F40E94521F0AC0C2
:102030000E94DC0F07C0CE01DF91CF911F910F915D
:102040000C94BC0E80E0DF91CF911F910F91089509
:1020500080E090E00895089526E4829FC001112455
:10206000FC0127E0729FE00DF11D1124E60FF11D28
:10207000EE0FFF1FE051F94F859194910895880F5D
:10208000991FFC01E852F54F859194910895CF93E3
:10209000DF930E942C100E944311EC01811521E571
:1020A0009207A0F5811540E5940708F086C0C11598
:1020B00080E2D807F0F4C11521E0D20708F0DFC0B4
:1020C000C03ED10588F4C03CD10508F062C0C130E3
:1020D000D10509F4D4C008F4D0C0CE010497813AE8
:1020E000910508F4CCC0C9C0C83ED10508F4C7C0EA
:1020F000C4C0C11540E4D40708F05CC0C11580E33A
:10210000D80708F04DC0CE019F7046C0811525E567
:102110009207A0F4811544E5940708F095C0C11515
:1021200083E5D80708F07AC0C11522E5D20708F088
:102130005FC0DC2FCC27C16FD06AA1C0811549E5F3
:102140009407A0F4C11588E5D80708F082C0C1152E
:1021500026E5D20708F091C08C2F0E94D7118F710D
:10216000C82FD0E0DC2FCC27D06289C081154AE58A
:10217000940708F473C090568115904208F07DC012
:102180008D2F8F710E94D711DD27D0628F71D82BD0
:1021900076C0CE01805C91090E943F10EC016FC0B7
:1021A000CE019927D3FF03C0EC01D86C68C0EC01C5
:1021B000D06C65C0DF70D06A62C074E09695879578
:1021C0007A95E1F783709C2F937021E030E002C094
:1021D000220F331F9A95E2F73C68382BCF70C695D3
:1021E000C69540E2C49FE0011124C22BD32B47C007
:1021F000CE018370992721E030E002C0220F331F07
:102200008A95E2F78C2F8695869540E2849FC001DF
:102210001124E901C82BD92BDC6831C0CE018370B1
:10222000992721E030E002C0220F331F8A95E2F7A0
:102230008C2F8695869540E2849FC0011124E90188
:10224000C82BD92BDA681BC0D82FCC27C46FD06A13
:1022500016C0DC2FCC27C06FD06A11C08F700E94CF
:10226000D71194E0D695C7959A95E1F7CF70D0E055
:10227000DC2FCC27D069C82B02C0C0E0D0E0CE0153
:10228000DF91CF9108958238910569F1B0F48133DF
:10229000910509F46DC048F48932910509F463C0D1
:1022A0008A32910509F469C008958533910509F4CE
:1022B00055C089339105B9F00895833E910569F1C0
:1022C00038F4803E9105B1F0823E910509F1089500
:1022D000863E9105A9F1873E9105B9F1843E9105AD
:1022E00009F064C023C02091760220FD4FC021FD7B
:1022F0004DC008958091760280FD44C080917702A0
:1023000080FF44C08091760284FD42C083EE4DC0C0
:102310008091760282FF38C0F5CF8091760282FDEF
:1023200033C08091770280FD31C0ECCF809177027D
:1023300081FF32C08091760284FD2AC087EE35C0CD
:102340008091760283FF26C0F5CF8091760283FDCF
:1023500021C08091770281FD1FC0ECCF8091760271
:1023600085FD1CC01DC08091760285FD19C016C078
:102370008091760286FD16C017C08091760286FD98
:1023800013C010C089E311C082EE0FC080EE0DC0F3
:1023900080E00BC086EE09C084EE07C089E205C06C
:1023A00085E303C08AE201C081E390E00895909143
:1023B000760292FF0DC0282F2871283019F4877FEC
:1023C000846006C0282F2471243011F48B7F88602C
:1023D00093FF0DC0282F2871283119F4877E84615E
:1023E00006C0282F2471243111F48B7E886120913E
:1023F000770220FF0DC0382F3871383019F4877FED
:10240000816006C0382F3171313011F48E7F8860C1
:1024100021FF0DC0282F2871283119F4877E816192
:1024200006C0282F2171213111F48E7E886194FD20
:10243000877E08950F931F93CF93DF93C62FD42FDA
:10244000122FFC0182818823C9F0609370010E94E1
:102450002F2090936F0180936E0180E28C0F883063
:1024600008F057C0C77081E001C0880FCA95EAF72D
:10247000DF91CF911F910F910C94CF158091700136
:10248000681330C080916E0190916F010E943B20D3
:102490008436910538F500E20D0FCD17B9F080E2D2
:1024A0008C0F883040F4C77081E001C0880FCA9556
:1024B000EAF70E94D615083028F581E09D2F977025
:1024C00001C0880F9A95EAF70E94CF15812F0E94CC
:1024D000BC150830F0F4D77081E001C0880FDA95A0
:1024E000EAF70AC080E28C0F883098F4C77081E068
:1024F00001C0880FCA95EAF7DF91CF911F910F9124
:102500000C94D615812FDF91CF911F910F910C94D0
:10251000BC15DF91CF911F910F9108959C01CB01C4
:10252000233F4CE53407F9F078F4283DFCE53F07FC
:10253000B9F0293D4CE5340711F1273D3C4531F513
:1025400026E241EE61EE1EC0253FFCE53F0799F013
:1025500070F0263F3C45D1F427E245EE66EE12C00E
:1025600027E245EE0EC026E241EE60EE0BC027E208
:1025700045EE64EE07C026E241EE62EE03C028E2BB
:1025800041E065EE0E941A1280E00895FC0182810C
:10259000882319F010927001089581E00895CF9377
:1025A000DF93EC01FB018281882309F41FC1C23053
:1025B000FCE5DF0708F41BC1C6319CE5D90738F0FC
:1025C0009E012A5F3C452930310508F010C10E9468
:1025D000C51E9093770280937602C031ECE5DE074A
:1025E00009F4C3C008F041C0C8308CE5D80709F42D
:1025F0009AC0F0F4C430ECE5DE0709F487C068F453
:10260000C2308CE5D80709F477C0C330DC4509F047
:10261000E3C080917602826076C0C630ECE5DE07CA
:1026200009F46EC008F07BC08091760288606BC0B0
:10263000CC308CE5D80709F485C068F4CA30ECE5E5
:10264000DE0709F474C008F079C00E942A1880914E
:102650007602806858C0CE308CE5D80709F476C081
:1026600008F07FC0809176028BC0CB3FECE5DE079F
:1026700009F44FC018F5C3318CE5D80709F47DC0C3
:1026800078F4C131ECE5DE0709F473C0C231DC45F2
:1026900009F0A2C00E942A18809176028F7733C079
:1026A000C5318CE5D80709F472C008F486C0CA3F6A
:1026B000DC4509F091C0809177023EC0CF3FFCE538
:1026C000DF0709F45FC058F4CD3F9CE5D90709F452
:1026D00044C008F43FC08091770282602DC0C130B1
:1026E000FDE5DF0709F475C008F45DC0C230DD45C3
:1026F00009F072C080E06EC080917602816003C0F4
:102700008091760280618093760266C08091760225
:1027100011C0809177028260809377025DC08091C2
:1027200076028062F0CF809176028064ECCF809157
:10273000760288608460E7CF8160EECF8091760278
:102740008E7FE1CF809176028D7FDDCF8091760202
:10275000877FD9CF8091770218C0809177028D7FD3
:10276000DBCF809176028F7ECECF809176028F7DF7
:10277000CACF809176028F7BC6CF80917602877F09
:102780008B7FC1CF809177028D7F8E7FC5CF809167
:10279000760282FB222720F991E0922790FB82F9B2
:1027A00090FB83F9B0CF80917702982F909591702C
:1027B0008E7F892B90FB81F9AFCF0E942A188091E0
:1027C000760287FB222720F991E0922790FB87F978
:1027D0009ACF81E00E94541F8091760290917702F7
:1027E0000E94D61E0E942A1880E001C081E0DF917D
:1027F000CF910895CF93DF9386319C4541F5EB014E
:102800000E94FC1D982F8A8120911D0130911E018C
:10281000882379F09A7A81E009F480E0809371014D
:10282000911102C069E201C065E3C9010E949B1FCA
:102830000AC080917101811102C069E201C065E3A3
:10284000C9010E949D1F0E944A1E80E001C081E0D4
:10285000DF91CF9108959093770180937601089549
:10286000E0917601F0917701309721F00190F081AD
:10287000E02D099480E00895E0917601F0917701D0
:10288000309721F00280F381E02D09940895209182
:102890007401309175012817390771F09093750113
:1028A00080937401E0917601F0917701309721F0E7
:1028B0000680F781E02D09940895209172013091EE
:1028C00073012817390771F0909373018093720197
:1028D000E0917601F0917701309721F00084F18545
:1028E000E02D0994089585B7806885BF85B7806815
:1028F00085BF089508950C947A140C947B140C945D
:102900007A140E9473140E947F140C947D1481E049
:1029100008950C9487140E9426200E94F5070E94B7
:1029200081200C94C70CAF92BF92CF92DF92EF92AE
:10293000FF920F931F93CF93DF93CDB7DEB72A9704
:102940000FB6F894DEBF0FBECDBF0E9408090E94EB
:102950008914811111C08FEF89838A831B820E94A1
:102960002F208160782F9D838C8349815A816B81D0
:102970008D810E94291540C089E7A82E81E0B82EDC
:1029800000E010E0C02E802F0E946809E82EF501BB
:10299000D1905F01D82631F40F5F1F4F0A30110527
:1029A00089F7D9CF8091FE0181FD0E946E0980E0F8
:1029B000FF24F3949D2D9F21D1F08E83CF82EF20B1
:1029C00081E009F480E088870E942F208160782FC1
:1029D0009A8789874E815F8168858A850E9429153B
:1029E000F801E758FE4F8081F826F08205C08F5F1E
:1029F000FF0C8730F9F6D0CF0E9430149091780107
:102A00008917B1F00E943014809378012A960FB68E
:102A1000F894DEBF0FBECDBFDF91CF911F910F9114
:102A2000FF90EF90DF90CF90BF90AF900C94D20FBB
:102A30002A960FB6F894DEBF0FBECDBFDF91CF91BF
:102A40001F910F91FF90EF90DF90CF90BF90AF90CC
:102A50000895CF93DF93CDB7DEB72B970FB6F894D9
:102A6000DEBF0FBECDBF4F83588769877A878B87BC
:102A7000DE01119686E0FD0111928A95E9F785E065
:102A8000FE01379601900D928A95E1F749815A81AE
:102A90006B817C818D819E810E94C91A2B960FB615
:102AA000F894DEBF0FBECDBFDF91CF910895FC013A
:102AB000808191810E94BD1D0895CF93882371F17B
:102AC000C82F8CEF8C0F813AD0F46C2F80911D01B0
:102AD00090911E010E94651F882349F06C2F809100
:102AE0001D0190911E010E949D1F0E944A1E6C2F85
:102AF00080911D0190911E010E949B1F0CC080E2DD
:102B00008C0F883058F4C77081E001C0880FCA95D7
:102B1000EAF70E94FF1DCF910C944A1ECF910895B1
:102B2000882349F1682F8CEF860F813A38F4809121
:102B30001D0190911E010E949D1F0CC080E2860F16
:102B4000883050F4677081E001C0880F6A95EAF719
:102B50000E94051E0C944A1E8BE5860F833020F4DC
:102B600080E090E00C944714685A673120F480E0CC
:102B700090E00C945D140895CF93C82F0E945D15CA
:102B8000C93349F42FEF87EE93E021508040904005
:102B9000E1F700C000008C2FCF910C949015882392
:102BA00021F00E94FF1D0C944A1E0895882321F0F5
:102BB0000E94051E0C944A1E0895CF92DF92EF9258
:102BC000FF920F931F93CF93DF937C01062FC72FA4
:102BD000FC01D581D295DF70128111110E941C1E5B
:102BE0000E94F51D882399F0112389F08C2F807F96
:102BF000803421F080E2800F883048F082E00E942B
:102C0000941E0E94F51D91E0D82ED92601C0D12C2A
:102C1000CC2EC2948FE0C8228C2D90E0FC01EA5AA1
:102C2000FF4F0C940D278C2F807FCF70882311F0DD
:102C3000C295C07F112399F0CC2309F464C180E2CE
:102C4000800F883010F0011104C08C2F0E94FF1DEE
:102C500003C08C2F0E940F1E0E944A1E54C1802F59
:102C60000E949015CC2309F473C180E2800F883054
:102C700010F0011104C08C2F0E94051E03C08C2F80
:102C80000E94151E0E944A1E63C18C2F807FCF7048
:102C9000803211F0C295C07F002319F00130C9F0D5
:102CA00022C0112371F0DD2341F0D13031F40E94B4
:102CB0002F1E8C2B0E94371E4BC10E942F1E8C2B67
:102CC0001DC0DD2319F0D13009F442C10E94401E1D
:102CD00025C0112321F0D63008F03AC10EC0D530FE
:102CE00008F036C11BC0112361F0DD2331F0F7017C
:102CF000858180FF08C18F7085838C2F0E94CF153E
:102D000027C1DD2359F0093309F00EC1FFEF27EE8B
:102D100083E0F15020408040E1F704C18C2F0E94F5
:102D2000D61516C18C2F837009F045C0111114C13E
:102D3000402F429546954770440F440F602F6F70A7
:102D4000862F90E0A0E0B0E0042E04C0880F991F09
:102D5000AA1FBB1F0A94D2F704FF10C00FE010E0B7
:102D600020E030E004C0000F111F221F331F4A95DE
:102D7000D2F7009510952095309503C000E010E043
:102D80009801C695C695C370BC01CD01602B712B0F
:102D9000822B932BC23049F058F4C13019F00E94B5
:102DA0001A1CDAC00E94081CD7C00E942C1CD4C078
:102DB0000E94061CD1C0112319F08C2F817001C014
:102DC0008695882309F4C8C0402F429546954770E0
:102DD000440F440F602F6F70862F90E0A0E0B0E0AA
:102DE000042E04C0880F991FAA1FBB1F0A94D2F794
:102DF00004FF10C00FE010E020E030E004C0000F3E
:102E0000111F221F331F4A95D2F700951095209568
:102E1000309503C000E010E09801C695C695C370D8
:102E2000BC01CD01602B712B822B932BC23049F05A
:102E300058F4C13019F00E94FF1C8EC00E94ED1C96
:102E40008BC00E94111D88C00E94401C85C0CF709D
:102E5000112339F08C2F0E94861C802F0E94CF15E1
:102E60007BC0802F0E94D6158C2F0E94A71C74C097
:102E7000023F01F128F4003F41F0013FA1F03FC0C3
:102E8000033FF9F0043F39F13AC0112341F0D53046
:102E900008F05EC08C2F8F710E94CC1C59C0D630B8
:102EA00008F056C0F7CF112339F08C2F8F710E9494
:102EB000861C4EC01123C9F38C2F8F710E94A71C52
:102EC00047C0112329F08C2F8F710E94711C40C0C4
:102ED0000E944C1C3DC0112349F0CF718C2F0E94E1
:102EE000861C63E08C2F0E947F1E32C081E00E940E
:102EF000941ED23068F182E00E94941E29C01123F2
:102F000031F0DD2391F2802F0E945D1521C0DD2379
:102F100099F2093349F49FEFE7EEF3E09150E04076
:102F2000F040E1F700C00000802F0E94901510C013
:102F30004C2F4F70602FC7010E9428100E94771BF2
:102F40000FC04C2F4F70602FC7010E942B1008C07C
:102F500088EF8C0D843020F40E9430140E94D20F30
:102F6000DD20C9F00E94F11D80FD15C0F70112821D
:102F70000E94EB1D0E94861CC7010E94EC170E9454
:102F8000EB1DDF91CF911F910F91FF90EF90DF909C
:102F9000CF900C94A71CDF91CF911F910F91FF90C0
:102FA000EF90DF90CF9008950F931F93CF93DF930F
:102FB000EC01688179818A810E94C81D8C010E9480
:102FC000231D0E94F41BB801CE010E94DD15DF9184
:102FD000CF911F910F910895CF93DF93EC019881CA
:102FE00089812B813C81232B31F08F3F31F481E0AB
:102FF0009F3F19F403C081E001C080E080FD19C04B
:10300000CE010E94EB0F81110CC00E94F51D882398
:1030100081F08A81882369F082E0DF91CF910C945E
:10302000941ECE010E94D417CE01DF91CF910C9453
:10303000FD0EDF91CF9108950E941C1E0E942C1E50
:103040000C944A1E80911D0190911E010E949F1FA9
:103050000C941C180E940C1E0C942218E92FE29567
:10306000EF704E2F50E0FA013297EE30F105B0F4D8
:10307000EA59FF4F0C940D27803F91F018F4883ED9
:1030800068F40EC0843F51F40BC0883E48F0813F85
:1030900029F406C093FB882780F9089580E00895FD
:1030A00081E008950E94BD1D0E942E180895CF93BF
:1030B000DF9300D000D01F92CDB7DEB70F900F90F6
:1030C0000F900F900F90DF91CF910895CF93DF93E2
:1030D00000D000D000D0CDB7DEB726960FB6F8945A
:1030E000DEBF0FBECDBFDF91CF9108951F93CF9369
:1030F000DF93C091840116E080918501C81799F093
:10310000D0E01C9FF0011D9FF00D1124EA57FE4FE7
:103110004081518162817381848195810E9466180A
:103120002196C770E9CFDF91CF911F91089540910B
:10313000B6015091B7016091B8017091B9018091C9
:10314000BA019091BB010C9466180F931F93CF9313
:10315000DF938091BB0182958F7009F05DC08091F3
:10316000B801882309F458C0809184011091850129
:103170006091B6017091B701C091B901D091BA01C7
:1031800091E06F3F09F090E0292F06E0811709F4E4
:1031900043C0209721F07F3F21F030E003C031E0B1
:1031A00001C0322F90E030FD34C0089FF001099F2C
:1031B000F00D1124DF01AA57BE4F11963C911197D3
:1031C000371327C03C91361324C012963C911297B6
:1031D00031111FC013964D915C9114974C1B5D0BE0
:1031E00044365105B0F48091BB018F7080618093AB
:1031F000BB01E557FE4F80818F708061808386EB35
:1032000091E00E94EC17DF91CF911F910F910C94E8
:10321000761801968770BACFDF91CF911F910F91E9
:1032200008959F92AF92BF92CF92DF92EF92FF925A
:103230000F931F93CF93DF93CDB7DEB761970FB690
:10324000F894DEBF0FBECDBF8C0185E0F801DE0132
:103250001D9601900D928A95E1F7F8014081518108
:10326000E2809091B6016091B7012091B90130914F
:10327000BA012115310531F06F3F31F481E09F3FF4
:1032800019F403C081E001C080E0F82FF1709F2E97
:1032900080FD2CC1F801A380B48086EBC82E81E0AC
:1032A000D82EF090B801F501E21BF30BFF2009F4D2
:1032B000EBC08091BB01E436F10508F0A7C0282FD0
:1032C000207F09F052C0561313C0491311C0FE2CC1
:1032D000E1100EC08F7080618093BB010E9497182F
:1032E000C6010E94EC178091BB01F80185833EC1A5
:1032F000AB2831F05F3F31F481E04F3F19F403C058
:1033000081E001C080E080FD03C081E08E2502C025
:1033100080E090E0F82FF170FF2E80FF1CC08091BC
:1033200084012091850136E0821709F4FDC090E008
:10333000389FF001399FF00D1124EA57FE4F61814B
:10334000561306C06081461303C06281E61203C0B3
:1033500001968770E9CFFE2CEE2009F407C1809119
:10336000BB0181608093BB0166C0561312C0491334
:1033700010C0E1100EC0F8018583C8010E94EC174F
:1033800086E0F801A6EBB1E001900D928A95E1F795
:10339000C8C04D875E878D859E850E945218882300
:1033A00079F1EE2069F12091BB01822F82958F7017
:1033B00090E0029774F08091B6019091B7019887E0
:1033C0008F831986BB86AA862C87CE0107960E941A
:1033D000EC1786E0F801A6EBB1E001900D928A951A
:1033E000E1F70E94A5180E9497180DC0561729F101
:1033F0004D875E878D859E850E94521881112CC055
:10340000C8010E94EC17FF24F394B0C0282F207F3E
:1034100069F77A2DB98AA88A6E2D89890E94571872
:1034200086EB91E00E94EC1786E0F60111928A95F6
:10343000E9F70E949718F12C99C04913D9CFE110F0
:10344000D7CFF8018583C8010E94EC1786E0F6010A
:1034500011928A95E9F78AC0EE2091F22091BB0182
:10346000822F82958F7090E002970CF4B2CF8091FA
:10347000B6019091B7019A8389831B82BD82AC8289
:103480002E83CE010196A3CFE436F10510F5FE2C74
:10349000EE2009F4B5CF56130BC0491309C086E0DE
:1034A000F801A6EBB1E001900D928A95E1F75EC0BC
:1034B0004D875E878D859E850E945218811189CF28
:1034C0008091BB0181608093BB01C8010E94EC1711
:1034D0004DC07A2DB98AA88A6E2D89890E94571805
:1034E00086E0F60111928A95E9F71BC0EE2009F4F7
:1034F00087CF4D875E878D859E850E945218F82E56
:10350000882309F47DCF86E0F801A6EBB1E00190B5
:103510000D928A95E1F786EB91E00E9457150E9483
:10352000A5180E94971822C04D875E878D859E85BD
:103530000E94BD1D292F22952F70223028F49F70E4
:1035400039F0811105C00BC0243028F49F7049F474
:10355000805E883020F0C8010E94EC179F2CF92C67
:1035600005C0F8019581907F99F7F9CF8F2D61966D
:103570000FB6F894DEBF0FBECDBFDF91CF911F9184
:103580000F91FF90EF90DF90CF90BF90AF909F9002
:1035900008951F93CF93DF93CDB7DEB72C970FB667
:1035A000F894DEBF0FBECDBF4F83588769877A87F7
:1035B0008B879C87CE0107960E9411198823D1F032
:1035C0009F8188852A853B85232B31F08F3F31F4FD
:1035D00081E09F3F19F403C081E001C080E080FDDD
:1035E00047C04F81588569857A858B859C850E9467
:1035F00066183EC086E0FE013796DE011196019006
:103600000D928A95E1F7FF81E8856A857B856115D2
:10361000710531F0EF3F31F481E0FF3F19F403C051
:1036200081E001C080E080FD23C02091850130E071
:10363000C9010196877099274091840150E0841751
:103640009507F1F1F983EA837D836C8396E0929F7D
:10365000D001939FB00D1124AA57BE4FFE013196A1
:1036600001900D929A95E1F7809385010E9476185A
:1036700016E08091840190918501891771F1189F5E
:10368000C00111248A579E4F0E941119882329F1E5
:10369000E09184011E9FF0011124EA57FE4F408102
:1036A000518162817381848195810E946618809125
:1036B000840190E001968770992780938401D9CF87
:1036C0000E942A181092850110928401E6EBF1E025
:1036D00086E0DF011D928A95E9F72C960FB6F894E3
:1036E000DEBF0FBECDBFDF91CF911F910895EF9246
:1036F000FF920F931F93CF93DF938C01892B09F4D3
:103700006CC0F12CEE24E394E8012196F801849139
:10371000843740F4843008F051C0813081F0823029
:1037200019F15BC0853709F444C0A8F19CE7980FF4
:10373000903708F052C08F770E94901541C00E5FFD
:103740001F4FFE01849190E2980F983050F48770DB
:10375000FE2D01C0FF0F8A95EAF78F2F0E941F1ED2
:1037600014C00E945D152DC00E5F1F4FFE01849195
:1037700090E2980F983060F48770FE2D01C0FF0F23
:103780008A95EAF78F2F0E94251E0E944A1E19C0B3
:103790000E94901516C00E5F1F4FFE01C491CC23EE
:1037A00081F08FE99FE00197F1F700C00000C15060
:1037B000F6CF0E5F1F4FFE01F49003C00E945D150F
:1037C0008E018F2D882309F49FCFEFE9FFE0319719
:1037D000F1F700C000008150F5CFDF91CF911F912C
:1037E0000F91FF90EF900895089508950C94F51BA4
:1037F0000C94F61B0E94F81B6093ED017093EE0190
:103800008093EF019093F0010C941C180C94FA1B18
:103810000F931F930091ED011091EE012091EF01A4
:103820003091F001602B712B822B932B1F910F9104
:103830000C94FA1B0F931F930091ED011091EE0170
:103840002091EF013091F0016023712382239323B3
:103850001F910F910C94FA1B0F931F930091ED0190
:103860001091EE012091EF013091F0016027712756
:10387000822793271F910F910C94FA1B0C94F51B30
:103880000E943E1C6093E9017093EA018093EB0172
:103890009093EC010C941C1860E070E0CB010C9448
:1038A000401C611571058105910529F481E04423CF
:1038B00061F080E00895DC01CB0104C0B695A795C6
:1038C000979587954A95D2F781700895482F609112
:1038D000E9017091EA018091EB019091EC010C9467
:1038E000511C0F931F9341E050E060E070E08A01AB
:1038F0009B0104C0000F111F221F331F8A95D2F7AE
:10390000C901B8011F910F910C94401C0F931F9394
:1039100041E050E060E070E004C0440F551F661FB6
:10392000771F8A95D2F78091E9019091EA01A091E1
:10393000EB01B091EC018A019B01082B192B2A2B7A
:103940003B2BC901B8011F910F910C94401C0F93A0
:103950001F9341E050E060E070E004C0440F551F49
:10396000661F771F8A95D2F74095509560957095A0
:103970008091E9019091EA01A091EB01B091EC01F5
:103980008A019B01082319232A233B23C901B8017B
:103990001F910F910C94401C0F931F9341E050E036
:1039A00060E070E004C0440F551F661F771F8A95C2
:1039B000D2F78091E9019091EA01A091EB01B091D9
:1039C000EC018A019B01082719272A273B27C901F7
:1039D000B8011F910F910C94401C0F931F930091FD
:1039E000E9011091EA012091EB013091EC01602B8B
:1039F000712B822B932B1F910F910C94401C0F93D2
:103A00001F930091E9011091EA012091EB0130919F
:103A1000EC0160237123822393231F910F910C9457
:103A2000401C0F931F930091E9011091EA0120912E
:103A3000EB013091EC0160277127822793271F91BA
:103A40000F910C94401C089527E0929F800D112443
:103A5000E82FE695E695E695877051E001C0550F91
:103A60008A95EAF785E0E89FF0011124E454FE4FBF
:103A700020E030E070E04081CB01022E02C096953C
:103A800087950A94E2F7817081958427852384279E
:103A900081932F5F3F4F2530310569F7089527E067
:103AA000929F800D1124682F669566956695982FD4
:103AB000977085E0689FB001112440E050E080E0FD
:103AC000FB01E40FF51FE454FE4F208130E0092E86
:103AD00002C0369527950A94E2F721703327042E09
:103AE00001C0220F0A94EAF7822B4F5F5F4F4530E7
:103AF000510531F70895BF92CF92DF92EF92FF9276
:103B00000F931F93CF93DF938C01C090E901D09066
:103B1000EA01E090EB01F090EC018091ED019091D1
:103B2000EE01A091EF01B091F001C82AD92AEA2A4A
:103B3000FB2ACFE1D0E0D701C6010C2E04C0B69518
:103B4000A795979587950A94D2F780FD04C0219791
:103B500090F7B12C07C0BC2EB8018C2F0E944710E3
:103B60000197A9F38B2DDF91CF911F910F91FF90BA
:103B7000EF90DF90CF90BF900895CF93DF93EC014B
:103B80000E947B1DBE010E944710DF91CF910895D6
:103B90001F93CF93DF93EB0190918301992321F041
:103BA000CB010E94BD1D13C0882349F0CB010E94A8
:103BB0007B1D182F682FCE010E94241D04C0CB014D
:103BC0000E944F1D182FBE01812F0E944710DF91C8
:103BD000CF911F9108958091F101859585958595E7
:103BE00008958091F101877008959091F101977087
:103BF00081E009F480E008958091FD01089590919D
:103C0000FD01892B8093FD01089580959091FD0120
:103C100089238093FD0108951092FD0108959091EC
:103C2000FC01892B8093FC01089580959091FC0103
:103C300089238093FC0108951092FC0108959091CE
:103C4000FB01892B8093FB01089580959091FB01E6
:103C500089238093FB0108951092FB0108958091C0
:103C6000F201089508950C94321E0C94331E909125
:103C7000F201981721F08093F2010C94351E0895FB
:103C80008091F201882329F01092F20180E00C94D7
:103C9000351E0895E0911D01F0911E018091FD01F6
:103CA0008083E0911D01F0911E0190818091FC01C3
:103CB000892B8083E0911D01F0911E0190818091FC
:103CC000FB01892B80838091F201882381F0E091B0
:103CD0001D01F0911E019081892B808380911D012F
:103CE00090911E010E94591F81110E94401E8091D7
:103CF0001D0190911E010C943C140C94321E98E00E
:103D0000899F90011124262B2093F1010E94861C8B
:103D10008091F1018595859585950C947D1E109275
:103D2000F10180E00C947D1E2091F10180958223A9
:103D30008093F101982F977079F430E0482F082E86
:103D4000000C550B2417350739F085958595859519
:103D50000E94A71C0C948F1E089580E090E00E94A2
:103D60001F2A21E08C3E9E4F09F020E0822F08950B
:103D700082E090E00C94172A83E090E00C94172ADC
:103D8000682F83E090E00C94252ACF9384E090E0A4
:103D90000E94172AC82F81E290E00E94172A2C2F38
:103DA00030E0A901582BCA01CF910895CF93C92FB4
:103DB000682F84E090E00E94252A6C2F81E290E039
:103DC000CF910C94252AAB01BC018FE090E00C94BC
:103DD000372AAB01BC0183E190E00C94372A60E004
:103DE00070E0CB010C94E91E60E070E0CB010E9412
:103DF000E31E0C94EF1E6CEE7EEF80E090E00E94DC
:103E0000432A60E082E090E00E94252A60E083E09F
:103E100090E00E94252A1092ED011092EE0110927E
:103E2000EF011092F00160E084E090E00E94252A0A
:103E300060E081E290E00E94252A60E085E090E069
:103E40000E94252A60E086E090E00E94252A6FEF1C
:103E500087E090E00E94252A40E050E0BA0188E027
:103E600090E00E94372A60E08DE090E00E94252AD1
:103E700040E050E0BA0188E190E00E94372A60E01B
:103E800087E190E00E94252A40E050E0BA018CE1F1
:103E900090E00E94372A60E080E290E00E94252AAC
:103EA0000C94F41E0C94FB1E682F8EE090E00C9492
:103EB000252AFC01329697E080E0915029F021916B
:103EC0002223D9F38F5FF9CF0895662349F0FC01CF
:103ED000329608962191621729F0E817F907D1F771
:103EE00080E0089581E008959C01FC0132969FEFE7
:103EF00080E04191461789F09F3F19F4411101C0BC
:103F0000982F8F5F8630A9F79F3F39F0F901E90FAD
:103F1000F11D97FDFA956283089508959C012A5F2B
:103F20003F4FFC014281461301C012820196821765
:103F30009307B9F708950C94741F0C948E1F029682
:103F400026E0FC0111922A95E9F7089508950C9452
:103F5000A61F0C94A61FCF930E94A91F0E940809B8
:103F60000E94A71FC0E08C2F0E946809811104C025
:103F7000CF5FCA30C1F701C081E0CF9108950C94A2
:103F8000A61F0C94BF1F0E94C11F80917C02843029
:103F900049F11092FF0120E488E190E00FB6F89417
:103FA000A895809360000FBE2093600080E00E947F
:103FB000D20F0E94C11F83B7817F846083BF83B704
:103FC000816083BF7894889583B78E7F83BF0FB657
:103FD000F894A895809160008861809360001092A9
:103FE00060000FBE08950C94A61F0E942A180E941C
:103FF00030140E94D20F0C94F31F1F920F920FB631
:104000000F9211248F939F93AF93BF938091FF01E1
:10401000811113C08091720290917302A091740279
:10402000B09175024196A11DB11D809372029093CB
:104030007302A0937402B0937502BF91AF919F91E8
:104040008F910F900FBE0F901F90189582E084BD46
:1040500093E095BD9AEF97BD80936E0008952FB7BA
:10406000F8948091720290917302A0917402B091C1
:1040700075022FBF08959C014FB7F894809172028A
:1040800090917302A0917402B09175024FBF821B90
:10409000930B089578941F920F920FB60F921124EC
:1040A0008F939F93AF93BF9380917202909173020D
:1040B000A0917402B09175020196A11DB11D80936B
:1040C000720290937302A0937402B0937502BF9131
:1040D000AF919F918F910F900FBE0F901F901895E9
:1040E00087E797E790930108809300089AE088E1BA
:1040F0000FB6F894A895809360000FBE909360006F
:10410000FFCF0E94AD1E811102C00E94521F0E946B
:10411000B81E8093FE010E94C51E90937702809383
:1041200076020E94BC1E682F70E080E090E00C9444
:10413000061C80910802089508950895CF93DF9397
:10414000EC010E943E22823011F0843039F581E08A
:104150008093E9008FEF9091E800815095FD06C0B3
:1041600095ED9A95F1F700008111F5CF8091E80067
:1041700085FF14C040E050E068E070E0CE010E948E
:104180005B228091E8008E778093E80088E0FE0152
:10419000A0E0B2E001900D928A95E1F7DF91CF9116
:1041A0000895089580917B02811109C00E94EC233B
:1041B0000E9449248091E20084608093E200089587
:1041C00010927B020895089508950C94F51F42E023
:1041D00061EC81E00C94652380917E02833009F4C8
:1041E00060C030F4813071F0823009F499C00895D4
:1041F0008A3009F485C08B3009F46BC0893009F02E
:10420000A7C020C080917D02813A09F0A1C08091B1
:10421000E800877F8093E80080918102909182027C
:10422000892B21F468E080E092E003C060E080E048
:1042300090E070E00E94A6228091E8008B77809346
:10424000E800089580917D02813209F081C080915B
:10425000810290918202892B09F07AC08091E80056
:10426000877F8093E8008091E80082FD05C08091FF
:104270007C028111F8CF6CC02091F3008091F20094
:1042800090E0922B029729F48091F1008B7F81308E
:1042900021F48091F100809308028091E8008B77EF
:1042A00053C080917D02813A09F052C08091810211
:1042B00090918202892B09F04BC08091E800877FA2
:1042C0008093E8008091E80080FFFCCF8091290175
:1042D00036C080917D028132D9F580918102909122
:1042E0008202892BA9F58091E800877F8093E800FE
:1042F0000E949A2380917F02809329010C942A18AE
:1043000080917D02813221F58091E800877F809342
:10431000E8000E949A238091800280930902089508
:1043200080917D02813AA1F48091E800877F80939B
:10433000E8008091E80080FFFCCF80910902809323
:10434000F1008091E8008E778093E8000C949A2326
:10435000089584B7877F84BF0FB6F894A89580919D
:104360006000886180936000109260000FBE90E052
:1043700080E80FB6F89480936100909361000FBEBF
:104380000E9481140E94EC230E9449248091E20043
:1043900084608093E20078940E94DE260E948B1451
:1043A0008FE191E00E942B1480917C02853069F4AA
:1043B0000E94C31F80917A028823B1F30E94AB1F31
:1043C000882391F30E944522EFCF0E949314ECCFF3
:1043D0000C94EA21292F332723303105C1F058F4FA
:1043E0002130310579F022303105C1F582E290E0CB
:1043F00020E13BE037C02132310511F12232310595
:1044000031F12CC082E190E022E33BE02BC0992700
:104410008130910561F040F08230910559F00397A9
:10442000E9F4E8EDFAE008C0ECE0FBE005C0E6EFF7
:10443000FAE002C0EEEDFAE0849190E09F0112C034
:10444000672B61F489E090E022E23BE00BC0672B30
:1044500029F480E490E024E43BE004C080E090E0B4
:1044600020E030E0FA0131832083089580917C02BE
:10447000843011F081E0089582E0089580910A026D
:10448000811102C00C943622089580E189BD82E139
:1044900089BD09B400FEFDCF8091D8008F7D809347
:1044A000D8008091E00082608093E0008091E0007D
:1044B00081FDFCCF0895CF92DF92EF92FF920F9390
:1044C0001F93CF93DF93EC018B017A010E94B923F4
:1044D000811133C0E114F10439F0F7018081918139
:1044E000081B190BC80FD91FC12CD12C01151105A0
:1044F00019F18091E80085FD16C08091E8008E7763
:104500008093E800E114F10449F0F7018081918182
:10451000C80ED91ED182C08285E00FC00E94B92387
:10452000882321F30AC089918093F1000150110979
:10453000FFEFCF1ADF0ADACF80E0DF91CF911F9132
:104540000F91FF90EF90DF90CF900895209183021C
:10455000309184022617370748F06115710539F448
:104560002091E8002E772093E80001C0B901FC01FA
:1045700020E06115710579F180917C028823F1F1C9
:104580008530F1F18091E80083FD3CC08091E80026
:1045900082FD2EC08091E80080FFEBCF2091F300D8
:1045A0008091F20090E0922B6115710551F08830F6
:1045B000910538F421912093F10061507109019621
:1045C000F3CF21E0089709F020E08091E8008E7792
:1045D0008093E800CECF2111CFCF0AC080917C021A
:1045E000882361F0853061F08091E80083FD0AC086
:1045F0008091E80082FFF2CF80E0089582E0089584
:1046000083E0089581E0089520918302309184022F
:104610002617370748F06115710539F42091E80035
:104620002E772093E80001C0B901FC0120E061155C
:10463000710591F180917C02882309F440C0853096
:1046400009F43FC08091E80083FD3DC08091E800FF
:1046500082FD2FC08091E80080FFE9CF2091F30018
:104660008091F20090E0922B6115710559F088302D
:10467000910540F424912093F10031966150710925
:104680000196F2CF21E0089709F020E08091E80040
:104690008E778093E800CBCF2111CCCF0AC08091D8
:1046A0007C02882361F0853061F08091E80083FD11
:1046B0000AC08091E80082FFF2CF80E0089582E096
:1046C000089583E0089581E00895982F973068F564
:1046D0009093E900981739F07091EC002091ED006B
:1046E0005091F00003C0242F762F50E021FD02C02E
:1046F0009F5FECCF3091EB003E7F3093EB00309129
:10470000ED003D7F3093ED003091EB003160309350
:10471000EB007093EC002093ED005093F00020919B
:10472000EE0027FDE5CF80E008958F708093E900CB
:1047300081E0089580917D0287FF11C08091E8009B
:1047400082FD05C080917C028111F8CF11C080915B
:10475000E8008B770BC080917C02882349F0809120
:10476000E80080FFF8CF8091E8008E778093E80022
:1047700008952091E4003091E50095E64091EC0029
:10478000842F817040FF23C08091E80080FD1DC010
:1047900080917C02882399F0853099F08091EB001C
:1047A00085FD11C04091E4005091E50024173507C4
:1047B00029F3915011F09A01E1CF84E0089582E04D
:1047C000089583E0089581E0089580E00895409180
:1047D000E80042FFDDCF08950E945A240E9462241F
:1047E000E0EEF0E0808181608083E8EDF0E08081A0
:1047F0008F77808319BCA7EDB0E08C918E7F8C936E
:1048000080818F7E808310927B0208950F931F9387
:10481000CF93DF930E945A240E946224C8EDD0E017
:1048200088818F77888388818068888388818F7D5D
:10483000888319BC10927C021092780210927A023E
:104840001092790200EE10E0F80180818B7F808366
:1048500088818160888342E060E080E00E94652377
:10486000E1EEF0E080818E7F8083E2EEF0E08081F7
:1048700081608083808188608083F80180818E7F61
:104880008083888180618883DF91CF911F910F9110
:104890000895E8EDF0E080818F7E8083E7EDF0E021
:1048A00080818160808384E082BF81E080937B028D
:1048B0000C940624E8EDF0E080818E7F80831092D6
:1048C000E20008951092DA001092E10008951F921C
:1048D0000F920FB60F9211242F933F934F935F9334
:1048E0006F937F938F939F93AF93BF93EF93FF93B8
:1048F0008091E10082FF0BC08091E20082FF07C03F
:104900008091E1008B7F8093E1000E94DD26809101
:10491000DA0080FF1FC08091D80080FF1BC080910B
:10492000DA008E7F8093DA008091D90080FF0DC07D
:1049300080E189BD82E189BD09B400FEFDCF81E03F
:1049400080937C020E94D22005C019BC10927C0288
:104950000E94E0208091E10080FF19C08091E20078
:1049600080FF15C08091E2008E7F8093E2008091ED
:10497000E20080618093E2008091D80080628093A1
:10498000D80019BC85E080937C020E94E4208091CD
:10499000E10084FF30C08091E20084FF2CC080E100
:1049A00089BD82E189BD09B400FEFDCF8091D800A8
:1049B0008F7D8093D8008091E1008F7E8093E1000D
:1049C0008091E2008F7E8093E2008091E20081601E
:1049D0008093E20080917802882311F084E007C080
:1049E0008091E30087FD02C081E001C083E08093F5
:1049F0007C020E94E5208091E10083FF29C0809124
:104A0000E20083FF25C08091E100877F8093E10071
:104A100082E080937C02109278028091E1008E7F88
:104A20008093E1008091E2008E7F8093E20080918C
:104A3000E20080618093E20042E060E080E00E945A
:104A400065238091F00088608093F0000E94E3204D
:104A5000FF91EF91BF91AF919F918F917F916F9156
:104A60005F914F913F912F910F900FBE0F901F902C
:104A700018951F920F920FB60F9211242F933F9308
:104A80004F935F936F937F938F939F93AF93BF9356
:104A9000CF93DF93EF93FF93C091E900CF708091A4
:104AA000EC00D82FD17080FDD0E81092E900809101
:104AB000F000877F8093F00078940E947D2510920B
:104AC000E9008091F00088608093F000CD2BCF70DA
:104AD000C093E900FF91EF91DF91CF91BF91AF912A
:104AE0009F918F917F916F915F914F913F912F9106
:104AF0000F900FBE0F901F9018951F93CF93DF93C9
:104B0000CDB7DEB7AA970FB6F894DEBF0FBECDBF04
:104B1000EDE7F2E08091F100819322E0E538F207C1
:104B2000C9F70E94EC208091E80083FF2EC180919C
:104B30007D0290917E02492F50E04A30510508F0E5
:104B400024C1FA01EC58FF4F0C940D27803821F056
:104B5000823809F01AC108C08091790290917A02D6
:104B6000992389F082600FC0809181028F70873015
:104B700008F00BC18093E9008091EB0085FB88274A
:104B800080F91092E9009091E800977F9093E800F7
:104B90008093F1001092F100D1C0282F2D7F09F0F1
:104BA000F4C0882319F0823061F0EFC080917F0259
:104BB000813009F0EAC0933009F080E080937A02F6
:104BC0002EC080917F0281112AC0809181028F7056
:104BD0002FEF280F263008F0D8C08093E9002091ED
:104BE000EB0020FF1CC0933021F48091EB00806229
:104BF00014C09091EB0090619093EB0021E030E0C5
:104C0000A90102C0440F551F8A95E2F74093EA00BC
:104C10001092EA008091EB0088608093EB00109284
:104C2000E9008091E800877F8093E8000E949A2342
:104C3000ACC08111AAC010917F021F778091E30060
:104C40008078812B8093E3008091E800877F8093B8
:104C5000E8000E949A238091E80080FFFCCF8091B9
:104C6000E30080688093E300111102C082E001C07C
:104C700083E080937C0289C08058823008F085C030
:104C800080917F02909180028C3D53E0950779F5E9
:104C900083E08A838AE289834FB7F894DE01139612
:104CA00020E03EE051E2E32FF0E050935700E49122
:104CB00020FF03C0E295EF703F5FEF708E2F90E012
:104CC000EA3010F0C79601C0C0968D939D932F5F78
:104CD000243149F74FBF8091E800877F8093E80037
:104CE0006AE270E0CE0101960E94A62216C0609191
:104CF000810270918202AE014F5F5F4F0E94E821F6
:104D0000BC01892B09F441C09091E800977F9093F2
:104D1000E80089819A810E9404238091E8008B77C2
:104D20008093E80032C0803881F58091E800877F69
:104D30008093E800809178028093F1008091E800F0
:104D40008E7772CF811121C080917F029091800275
:104D500099270297D4F48091E800877F8093E80038
:104D600080917F02809378020E949A23809178023A
:104D7000811106C08091E30087FD02C081E001C07F
:104D800084E080937C020E94E7208091E80083FF0A
:104D90000AC08091E800877F8093E8008091EB0053
:104DA00080628093EB00AA960FB6F894DEBF0FBE28
:104DB000CDBFDF91CF911F9108950895CF9380913A
:104DC0007C028823A1F0C091E900CF709091EC00A3
:104DD000892F817090FD80E8C82B1092E9008091A6
:104DE000E80083FD0E947D25CF70C093E900CF913C
:104DF000089597FB072E16F4009407D077FD09D08D
:104E00000E94132707FC05D03EF4909581959F4F93
:104E10000895709561957F4F0895EE0FFF1F0590DF
:104E2000F491E02D0994AA1BBB1B51E107C0AA1FF6
:104E3000BB1FA617B70710F0A61BB70B881F991F3B
:104E40005A95A9F780959095BC01CD010895FB0175
:104E5000DC0104C08D910190801921F44150504033
:104E6000C8F7881B990B08956817790768F4FB0148
:104E7000DC01E40FF51FA40FB51F02C002900E92D3
:104E800041505040D8F708950C946929DC0101C0C5
:104E90006D9341505040E0F70895AEE0B0E0E3E597
:104EA000F7E20C94672A0D891E898F89988D26E078
:104EB0002C831A83098397FF02C080E090E8019752
:104EC0009E838D83AE01455E5F4F698D7A8DCE01E5
:104ED00001960E947D274D815E8157FD0AC02F817A
:104EE0003885421753070CF49A01F801E20FF31FBB
:104EF00010822E96E4E00C94832AABE0B0E0E3E865
:104F0000F7E20C94592A6C017B018A01FC0117829B
:104F10001682838181FFCCC1CE0101963C01F6014E
:104F20009381F70193FD859193FF81917F01882300
:104F300009F4BAC1853239F493FD859193FF8191CB
:104F40007F01853229F4B60190E00E947D29E7CFE8
:104F5000912C212C312CFFE1F315D8F08B3279F014
:104F600038F4803279F08332A1F4232D20611DC002
:104F70008D3261F0803369F4232D216016C0832DBA
:104F80008260382EE32DE4603E2E2AC0F32DF860B7
:104F90001DC037FC2DC020ED280F2A3040F08E3286
:104FA000B9F436FC81C1232D2064322E19C036FE9F
:104FB00006C08AE0989E200D1124922E11C0EAE0CE
:104FC0002E9E200D1124222EF32DF0623F2E08C0BC
:104FD0008C3621F4832D8068382E02C0883641F447
:104FE000F70193FD859193FF81917F018111B3CFEB
:104FF000982F9F7D9554933028F40C5F1F4F9FE3AB
:1050000099830DC0833631F0833771F0833509F011
:1050100059C021C0F801808189830E5F1F4F882409
:105020008394912C530113C02801F2E04F0E511CC0
:10503000F801A080B18036FE03C0692D70E002C087
:105040006FEF7FEFC5010E9472294C018201F32DA1
:10505000FF773F2E16C0280122E0420E511CF801B6
:10506000A080B18036FE03C0692D70E002C06FEFF2
:105070007FEFC5010E945E294C01F32DF0683F2EA1
:10508000820133FC1BC0822D90E088169906B0F493
:10509000B60180E290E00E947D292A94F4CFF501C8
:1050A00037FC859137FE81915F01B60190E00E9447
:1050B0007D2921102A9421E0821A910881149104FB
:1050C00071F7E8C0843611F0893641F5F80137FEF2
:1050D00007C060817181828193810C5F1F4F08C07E
:1050E00060817181072E000C880B990B0E5F1F4F9A
:1050F000F32DFF763F2E97FF09C090958095709510
:1051000061957F4F8F4F9F4FF0683F2E2AE030E030
:10511000A3010E94B929882E861845C0853731F42D
:10512000232D2F7EB22E2AE030E025C0932D997FCB
:10513000B92E8F36C1F018F4883579F0B5C08037B4
:1051400019F0883721F0B0C0E92FE061BE2EB4FE1F
:105150000DC0FB2DF460BF2E09C034FE0AC0292FFC
:105160002660B22E06C028E030E005C020E130E025
:1051700002C020E132E0F801B7FE07C06081718112
:10518000828193810C5F1F4F06C06081718180E036
:1051900090E00E5F1F4FA3010E94B929882E861848
:1051A000FB2DFF773F2E36FE0DC0232D2E7FA22E26
:1051B000891458F434FE0BC032FC09C0832D8E7E56
:1051C000A82E05C0B82CA32C03C0B82C01C0B92C44
:1051D000A4FE0FC0FE01E80DF11D8081803321F493
:1051E0009A2D997EA92E09C0A2FE06C0B394B3944D
:1051F00004C08A2D867809F0B394A3FC11C0A0FEE8
:1052000006C0B21488F4280C922C9B180EC0B2145D
:1052100060F4B60180E290E00E947D29B394F7CF5C
:10522000B21418F42B1802C0982C212CA4FE10C024
:10523000B60180E390E00E947D29A2FE17C0A1FC88
:1052400003C088E790E002C088E590E0B6010CC09A
:105250008A2D867859F0A1FE02C08BE201C080E25F
:10526000A7FC8DE2B60190E00E947D29891438F4F4
:10527000B60180E390E00E947D299A94F7CF8A944A
:10528000F301E80DF11D8081B60190E00E947D29B7
:105290008110F5CF222009F442CEB60180E290E0E1
:1052A0000E947D292A94F6CFF6018681978102C05B
:1052B0008FEF9FEF2B96E2E10C94752AFC0105908D
:1052C000615070400110D8F7809590958E0F9F1F08
:1052D0000895FB01DC0102C001900D924150504045
:1052E000D8F70895FC016150704001900110D8F783
:1052F000809590958E0F9F1F08950F931F93CF93C6
:10530000DF93FB01238121FD03C08FEF9FEF2CC0B2
:1053100022FF16C0468157812481358142175307E9
:1053200044F4A081B1819D012F5F3F4F31832083E1
:105330008C93268137812F5F3F4F3783268314C09C
:105340008B01EC01FB010084F185E02D0995892B8F
:10535000E1F6D80116968D919C91179701961796B4
:105360009C938E931697CE01DF91CF911F910F9151
:105370000895FA01AA27283051F1203181F1E894EB
:105380006F936E7F6E5F7F4F8F4F9F4FAF4FB1E038
:105390003ED0B4E03CD0670F781F891F9A1FA11D33
:1053A000680F791F8A1F911DA11D6A0F711D811D34
:1053B000911DA11D20D009F468943F912AE0269FF9
:1053C00011243019305D3193DEF6CF010895462F58
:1053D0004770405D4193B3E00FD0C9F7F6CF462F39
:1053E0004F70405D4A3318F0495D31FD40524193A2
:1053F00002D0A9F7EACFB4E0A6959795879577955F
:105400006795BA95C9F700976105710508959B01E5
:10541000AC010A2E06945795479537952795BA956E
:10542000C9F7620F731F841F951FA01D0895F99976
:10543000FECF92BD81BDF89A992780B50895A8E165
:10544000B0E042E050E00C944B2A262FF999FECFB1
:1054500092BD81BDF89A019700B4021639F01FBAC7
:1054600020BD0FB6F894FA9AF99A0FBE08950396E4
:10547000272F0E94262A0E94252A252F0E94262AAD
:10548000242F0C94262A0196272F0E94262A0C945A
:10549000252ADC01CB01FC01F999FECF06C0F2BD43
:1054A000E1BDF89A319600B40D9241505040B8F7E2
:1054B00008952F923F924F925F926F927F928F92B8
:1054C0009F92AF92BF92CF92DF92EF92FF920F9393
:1054D0001F93CF93DF93CDB7DEB7CA1BDB0B0FB69D
:1054E000F894DEBF0FBECDBF09942A88398848885A
:1054F0005F846E847D848C849B84AA84B984C884F0
:10550000DF80EE80FD800C811B81AA81B981CE0FE6
:10551000D11D0FB6F894DEBF0FBECDBFED010895CB
:04552000F894FFCF2D
:1055240005015D01000000015B015D01055E0101F3
:105534005B015C01000000056301FFFF01F30199B9
:10554400209E209C20D1209D2001F4F5F6F73133D4
:1055540032946697C6340000000000256C64000095
:00000001FF
