:100000000C94E1060C9428070C9428070C94DC0748
:100010000C9428070C9428070C9428070C942807A4
:100020000C9428070C9428070C94052C0C94D72CBE
:100030000C949B270C9428070C9428070C942807F1
:100040000C9428070C9428070C9428070C94280774
:100050000C9428070C94E8270C9428070C94280784
:100060000C9428070C9428070C9428070C94280754
:100070000C9428070C9428070C9428070C94280744
:100080000C9428070C9428070C9428070C94280734
:100090000C945B0B0C9428070C9428070C942807ED
:1000A0000C9428070C9428070C942807301933194E
:1000B00038193F19441949194E19531958195D191E
:1000C0006219671969196C196F19721975197819FC
:1000D0007C198319B11DB11DE31DE31D461F461F89
:1000E000461F461F301EC51ED61ED61E361F461F73
:1000F000461F3F1FDA1FDA1FEC1FEC1FE31FEC1F28
:10010000EC1FEC1FDA1FDA1FE81FEC1FEC1FE81FC3
:10011000442D6B2D632E6B2D632EB72DDA2D632EA0
:10012000312E402E0000000000003E5B4F5B3E0081
:100130003E6B4F6B3E001C3E7C3E1C00183C7E3CE0
:1001400018001C577D571C001C5E7F5E1C000018A9
:100150003C180000FFE7C3E7FF0000182418000068
:10016000FFE7DBE7FF0030483A060E002629792931
:100170002600407F05050700407F05253F005A3CCB
:10018000E73C5A007F3E1C1C0800081C1C3E7F00F8
:1001900014227F2214005F5F005F5F0006097F0169
:1001A0007F00006689956A0060606060600094A2CC
:1001B000FFA2940008047E04080010207E20100096
:1001C00008082A1C0800081C2A0808001E10101025
:1001D00010000C1E0C1E0C0030383E383000060E8D
:1001E0003E0E060000000000000000005F0000005E
:1001F000000700070000147F147F1400242A7F2AC0
:10020000120023130864620036495620500000088B
:1002100007030000001C224100000041221C0000D6
:100220002A1C7F1C2A0008083E0808000080703045
:1002300000000808080808000000606000002010A6
:10024000080402003E5149453E0000427F40000044
:100250007249494946002141494D33001814127F23
:1002600010002745454539003C4A494931004121A4
:1002700011090700364949493600464949291E00F7
:1002800000001400000000403400000000081422A8
:100290004100141414141400004122140800020137
:1002A000590906003E415D594E007C1211127C0036
:1002B0007F49494936003E41414122007F41414149
:1002C0003E007F49494941007F09090901003E413B
:1002D000415173007F0808087F0000417F41000002
:1002E0002040413F01007F08142241007F404040F0
:1002F00040007F021C027F007F0408107F003E4107
:1003000041413E007F09090906003E4151215E003E
:100310007F091929460026494949320003017F0116
:1003200003003F4040403F001F2040201F003F404F
:1003300038403F006314081463000304780403008A
:100340006159494D4300007F4141410002040810BA
:100350002000004141417F000402010204004040AE
:10036000404040000003070800002054547840003B
:100370007F28444438003844444428003844442802
:100380007F0038545454180000087E09020018A455
:10039000A49C78007F080404780000447D4000009D
:1003A0002040403D00007F102844000000417F4075
:1003B00000007C04780478007C0804047800384449
:1003C00044443800FC182424180018242418FC0085
:1003D0007C080404080048545454240004043F4496
:1003E00024003C4040207C001C2040201C003C405D
:1003F00030403C004428102844004C9090907C00F1
:100400004464544C4400000836410000000077006A
:1004100000000041360800000201020402003C26F0
:1004200023263C0003071F7FFFFFFEF8F0C020F8E3
:10043000FEFFFE79271F7FFFFFFEF8F0C020F8FEC9
:10044000FFFF7F3F3F7FFFFEF8F0C000000000FF8E
:10045000FFFFFFFFFF00000000000000FF7F7F7F25
:10046000BFBFC0C0C0E0E0E0E0F0F0F0F878787C1A
:100470003C3CFEFEFEFFFFFF00000000000000000D
:1004800000008080BFBFDFDFEFEF0003071F7FFFAB
:10049000FFFFFEF8E0C0E0F8FEFFFFFF7F1F07034D
:1004A0000000E0F0F0F0E0ECEEF7F37020007C7C70
:1004B0007C7E007E7E7E7F7F7F000080C0E07E5B52
:1004C0004F5BFEC00000C000DCD7DEDEDED7DC0004
:1004D000C00000000000000000000000000000005C
:1004E0000000000000000000C1F3CFBF7FFFFFFC51
:1004F000FBE7810000000080E3CF3FFFFFFFFCFB34
:10050000E7810000000081E7FFFFFFFF3C0000FFE4
:10051000FFFFFFFFFFF8F8FC7C7E7E3EFEFFFFFF43
:10052000FFFFF7F7F7FBFB7D7D7DBEBEBEDFDFE0A3
:10053000E000FFFFFFFFFFFF00FCFC7C7E7E3E3EF5
:100540001F1F1F0FFFFFFFFFFFFF000000000081C4
:10055000E7FFFFFFFFFFFFFFFFFFE7810000000055
:1005600000000F1F3F7F7F7F7F7F3F1E0C001F1FFC
:100570001F3F003F3F3F7F7F7F00307B7F783020F1
:100580002030787F3B0003000F7F0F0F0F7F0F009D
:100590000300000000000000000000000000000058
:1005A0000000000060707C7F7F7F7F1F0601030FCB
:1005B0003F7F7F7E7C7C7E7F7F7F1F0601070F3F12
:1005C0007F7F7E7C7C7E7F7F3F0F03000000007F6B
:1005D0007F7F7F7F7F000000000000007F7F7F7FA4
:1005E0007F7F7D7D3D3E1E1F1F1F0F0F07070703E7
:1005F00003007F7F7F7F7F7F7C7C7C7C7C7C7C7C1E
:100600007C7C7C007F7F7F7F7F7F004070787E7F57
:100610007F7F3F0F0301030F3F7F7F7F7E78704016
:1006200000000000000000000000000000000000CA
:1006300000000000000000000000000000000000BA
:1006400000000000000000000000000000000000AA
:10065000000000000000000000000000000000009A
:1006600000000000808182838485868788898A8B48
:100670008C8D8E8F9091929394A0A1A2A3A4A5A6F5
:10068000A7A8A9AAABACADAEAFB0B1B2B3B4C0C16C
:10069000C2C3C4C5C6C7C8C9CACBCCCDCECFD0D1C2
:1006A000D2D3D400556E6465662D0041646A7573BB
:1006B00074004C6F77657200526169736500446520
:1006C0006661756C74004C617965723A20000A00AD
:1006D000202020200053434C4B00202020200043AA
:1006E0004150530020202020202020004E554D4C0A
:1006F0004F434B000A0020000A000A00959600B5FF
:10070000B600979800B7B8000102E2600103E2006A
:100710000102E2600103E20029001E001F00200028
:100720002100220000002B0014001A000800150010
:1007300017000000E00004001600070009000A008E
:100740000000E1001D001B00060019000500E30089
:100750000D5D19010601E2000C5D0B5D2A004C00E5
:100760002700260025002400230000002A00130093
:1007700012000C0018001C000000340033000F00B1
:100780000E000D000B000000E500380037003600B9
:1007900010001100E3000C5D4F00520051005000AA
:1007A0002C00280035001E001F0020002100220020
:1007B00000002B0014001A00090013000A000000BA
:1007C000E000040015001600170007000000E1001B
:1007D0001D001B000600190005002F000D5D2900FB
:1007E000E200E3000F5D0B5D2C004C0027002600AB
:1007F00025002400230000002A0033001C001800FC
:100800000F000D000000340012000C000800110061
:100810000B000000280038003700360010000E00E2
:1008200030004F00520051005000105D0C5D2C0054
:1008300035001E001F0020002100220000002B00B8
:1008400034003600370013001C000000E0000400F4
:100850001200080018000C000000E1003300140032
:100860000D000E001B002F000D5D2900E200E300CB
:100870000F5D0B5D2C002A002700260025002400B8
:10088000230000004C000F00150006000A000900BC
:10089000000038001600110017000B0007000000D0
:1008A00028001D0019001A001000050030004F003C
:1008B000520051005000105D0C5D2C0035023A00D2
:1008C0003B003C003D003E00000035021E021F02BE
:1008D00020022102220200000100010001000100AB
:1008E0000100010000000100010001000100010001
:1008F00001000100010001000100010001000100F0
:100900000100440043004200410040003F0000005D
:100910004500270226022502240223020000350298
:1009200030002F002E002D003100000001003002A9
:100930002F022E022D0231023500AE00A900AA00BE
:10094000AB0001000100010035001E001F00200067
:1009500021002200000035001E001F0020002100A1
:100960002200000001004A004E004B004D00010033
:100970000000010001000100010001000100010070
:1009800001000100010001000100010001002A0036
:100990002700260025002400230000004C0027002B
:1009A00026002500240023000000010001004F0064
:1009B0005200510050000000010001000100010040
:1009C000010001000100AE00A900AA00AB00010077
:1009D000010001003A003B003C003D003E003F00AA
:1009E00000000100005C115D010001000100000039
:1009F0000100010001001D5C1E5C135C0000010091
:100A000001000100010001000100010001000100DE
:100A10000100010001000100010045004400430005
:100A200042004100400000004C00010001000100B4
:100A3000010001000000010001000A5D095D085D80
:100A40000A5C0000C95CC75CC55CC25C01000100B7
:100A50000100CA5CC85CC65CC35C01000100010007
:100A600000000000000000002A2B28000000000009
:100A7000000000000000000000000029000000004D
:100A80002C1E3420212224342627252E362D3738BB
:100A9000271E1F202122232425263333362E3738C4
:100AA0001F0405060708090A0B0C0D0E0F10111282
:100AB000131415161718191A1B1C1D2F3130232D4E
:100AC000350405060708090A0B0C0D0E0F1011124C
:100AD000131415161718191A1B1C1D2F3130354CFD
:100AE0000000000000000000000000000000000006
:100AF000000000007E0F00D4FFFFFFC70000007859
:100B00007F3F1F643214643214783C1E1E140A05A1
:100B10002223252628292A2C2D2F3032333536380A
:100B20003A3B3D3E4042434547494A4C4E50515363
:100B30005557595A5C5E6062646668696B6D6F7187
:100B4000737577797B7D7F81838587898A8C8E9089
:100B5000929496989A9C9E9FA1A3A5A7A8AAACAE92
:100B6000AFB1B3B4B6B8B9BBBCBEBFC1C2C3C5C6D2
:100B7000C7C9CACBCCCDCED0D1D2D2D3D4D5D6D77B
:100B8000D7D8D9D9DADADBDBDBDCDCDCDCDCDDDDB9
:100B9000DDDDDCDCDCDCDCDBDBDBDADAD9D9D8D7A9
:100BA000D7D6D5D4D3D2D2D1D0CECDCCCBCAC9C74B
:100BB000C6C5C3C2C1BFBEBCBBB9B8B6B4B3B1AF82
:100BC000AEACAAA8A7A5A3A19F9E9C9A9896949222
:100BD000908E8C8A89878583817F7D7B79777573F9
:100BE000716F6D6B6968666462605E5C5A595755D7
:100BF0005351504E4C4A4947454342403E3D3B3A93
:100C00003836353332302F2D2C2A29282625232219
:100C1000FFAA7F554000010101010101010101020C
:100C2000020202020202020203030303030303039C
:100C30000404040404040405050505050606060667
:100C400006070707070708080808090909090A0A23
:100C50000A0B0B0B0C0C0C0D0D0D0E0E0E0F0F0FC7
:100C60001010111111121213131414151516161752
:100C700017181819191A1A1B1B1C1D1D1E1E1F20C0
:100C800020212222232424252626272829292A2B0D
:100C90002C2D2D2E2F303132323334353637383932
:100CA0003A3B3C3D3E3F404142434445464748492C
:100CB0004A4C4D4E4F50515354555658595A5B5DFE
:100CC0005E5F616264656668696B6C6D6F7072739C
:100CD0007577787A7B7D7E8082838587888A8C8E03
:100CE0008F91939596989A9C9EA0A2A3A5A7A9AB35
:100CF000ADAFB1B3B5B7BABCBEC0C2C4C6C9CBCD27
:100D0000CFD1D4D6D8DBDDDFE2E4E7E9EBEEF0F3D8
:100D1000F5F8FAFDFF0403300000001603480065F3
:100D2000006C0069007800200042006500740061DA
:100D30000000001403590075007300680061006B27
:100D4000006F0062006F0000000403090409022222
:100D500000010100A0C8090400000103010100090D
:100D600021110100012240000705810308000A1239
:100D700001100100000008653200000100010203BB
:100D80000105010906A101050719E029E71500255C
:100D90000195087501810295017508810105071902
:100DA0000029FF150026FF0095067508810005083B
:100DB00019012905950575019102950175039101A8
:100DC000C00011241FBECFEFDAE0DEBFCDBF04B6F6
:100DD00003FE27C08091F9029091FA02A091FB02D4
:100DE000B091FC028730904BA740B04BD1F41092E9
:100DF000F9021092FA021092FB021092FC0214BE49
:100E000084B7877F84BF0FB6F894A895809160005F
:100E1000886180936000109260000FBEE0E0F8E30C
:100E2000099511E0A0E0B1E0EAEBF4E602C005901C
:100E30000D92A039B107D9F722E0A0E9B1E001C0D5
:100E40001D92A93FB207E1F70E9447290C945B323B
:100E50000C9400008EE14A9B02C08150E1F74A9B4E
:100E6000FECF08955A9880E28A95F1F75A9A08952C
:100E7000FC012AE02A95F1F790E020E080E031E0E3
:100E8000261779F040E14A95F1F7880F4A9B02C096
:100E90008160932700C0000040E14A95F1F72F5F81
:100EA000EFCF20E12A95F1F729B100C0000030E131
:100EB0003A95F1F722FB222720F992272081920F01
:100EC00090830895EF92FF920F931F93CF93DF9338
:100ED0001F92CDB7DEB719828C017C01E60EF11CA2
:100EE0000E151F0559F00E942A0768E0CE010196F1
:100EF0000E943807F80181938F01F2CF81E0998138
:100F0000911180E00F90DF91CF911F910F91FF9091
:100F1000EF900895909392018093910160939001D6
:100F2000529A5A9A089590939201809391016093F6
:100F3000900152985A9AEA9AE9E6F0E080818F7C13
:100F400080830895615091E001C0990F6A95EAF796
:100F500020E031E0992361F0492F482319F05A9A93
:100F6000232701C05A9840E24A95F1F79695F2CFAF
:100F7000222311F05A9A01C05A9880E28A95F1F71B
:100F80005A980895FF920F931F93CF93DF93EC012C
:100F90008C01060F111DC017D10741F0F9900E9476
:100FA000320768E08F2D0E94A207F5CFDF91CF9125
:100FB0001F910F91FF9008951F920F920FB60F92FD
:100FC00011240F931F932F933F934F935F936F932E
:100FD0007F938F939F93AF93BF93EF93FF93CF93A1
:100FE000DF931F92CDB7DEB719820E942A0767E010
:100FF000CE0101960E943807382F369536953695E2
:10100000932F96959570232F2570920F292F23707B
:10101000969596958770920F891348C089818111A2
:1010200045C080919001831708F440C080E18A9503
:10103000F1F75A9A529AA2E0AA95F1F700C00091EE
:10104000910110919201B8E03B9F000D111D1124F8
:101050005A98F8016581662321F0868197810E9464
:10106000C2070E943207F0E1FA95F1F75A985298B8
:101070005A9A80E18A95F1F7D80112966C911297ED
:10108000662369F013968D919C9114970E946207D4
:10109000D801ED91FC91811105C082E004C0D80116
:1010A000ED91FC9188E080830E942A070F90DF91E8
:1010B000CF91FF91EF91BF91AF919F918F917F91D0
:1010C0006F915F914F913F912F911F910F910F90D1
:1010D0000FBE0F901F9018950F931F93CF93DF9320
:1010E0002091900130E0281739070CF471C09C0161
:1010F00093E0220F331F9A95E1F7C0919101D091AF
:101100009201C20FD31FF894529A5A9845E04A951B
:10111000F1F70000982F969595708570890F982F9C
:10112000937086958695890F8901082B0E94320756
:1011300084E08A95F1F700C067E0802F0E94A20743
:1011400040E14A95F1F752985A9A4A9902C000C074
:10115000FCCF87E090E04A9B0EC0019751F4529A71
:101160005A9AE881F98181E08083789481E090E067
:1011700031C000C0F0CF6D81662381F08E819F81E8
:101180000E94620781110AC0529A5A9AE881F98135
:1011900082E08083789482E090E01CC00E942A075D
:1011A00080E28A95F1F75A98529A40E14A95F1F710
:1011B0006A81662321F08B819C810E94C2070E9474
:1011C0003207E881F9811082789480E090E002C0D3
:1011D00084E090E0DF91CF911F910F910895CF931C
:1011E000DF93A3E4B1E048E451E061E070E08D9169
:1011F000E82FE295EF70F0E021A18F70EB0102C0C3
:10120000CC0FDD1F8A95E2F7CE019C2F909592239B
:1012100091A392A1892B82A34A175B0741F7DF9123
:10122000CF9108950C94640F0E94B00A0E94EF08B9
:10123000ACE3B1E041E050E08D91E82FE295EF7032
:10124000F0E021A18F70BA0102C0660F771F8A9566
:10125000E2F7CB01962F9095922391A392A1892B2F
:1012600082A371E0A334B70739F7209A559A289AD8
:101270005D9AEDE9F1E0A3E9B1E011921D9281E000
:10128000E73AF807D1F70C9485119F92AF92BF927D
:10129000CF92DF92EF92FF920F931F93CF93DF9342
:1012A00080910101811103C0C5E0D0E002C0C0E01F
:1012B000D0E0AE014D565E4F7A0183E4C82E81E046
:1012C000D82E8A01AA24A394B12C25E0922EF8E40A
:1012D000CF16F1E0DF0609F44AC0F60181916F01F3
:1012E000E82FE295EF70F0E021A18F70A50102C018
:1012F000440F551F8A95E2F7CA01922F982B91A3AC
:1013000092A18095892382A350EA5A95F1F7ECE3E4
:10131000F1E020E040E050E03191A32FA295AF70C2
:10132000B0E090968C9190E03F7002C095958795C3
:101330003A95E2F780FD07C0C501042E01C0880F71
:101340000A94EAF702C080E090E0282B4F5F5F4FDD
:101350004730510509F7F8018081821719F0208381
:10136000909200010E94EF080F5F1F4FB0CF809155
:1013700000018823B1F0815080930001811103C0E6
:10138000C356DE4F07C08FE99FE00197F1F700C019
:10139000000007C0F70191917F0199938F5F85301D
:1013A000C9F781E0DF91CF911F910F91FF90EF90EE
:1013B000DF90CF90BF90AF909F900895CF93DF9331
:1013C00020910101211103C0C0E0D0E002C0C5E0BE
:1013D000D0E00E94CB0A009721F0029781F4289870
:1013E0000EC0289ADE01A356BE4F85E0E3EBF1E084
:1013F00001900D928A95E1F780E090E002C081E0D3
:1014000090E0DF91CF9108950E94450980910101FC
:10141000811103C0E5E0F0E002C0E0E0F0E0E35657
:10142000FE4F20E030E080E0D901AD54BE4F4C913A
:101430009191491381E09C932F5F3F4F25303105F7
:1014400099F79091AB01890F8093AB010895CF93E9
:10145000DF930E948E0A882309F43FC00E94450949
:1014600080910101811103C0C5E0D0E002C0C0E05D
:10147000D0E0C356DE4F45E050E0BE018EEA91E079
:101480000E94EC2E25E0FE01AEEAB1E001900D9243
:101490002A95E1F70E94DE09892BD9F05D988091A9
:1014A000A7018F5F8093A701863058F180910101D9
:1014B000811103C0E0E0F0E002C0E5E0F0E0E356B7
:1014C000FE4F80E090E01192019685309105D9F7AA
:1014D00018C05D9A1092A70114C00E94040A80915E
:1014E0000101811103C0A0E0B0E002C0A5E0B0E0BE
:1014F000A356BE4F85E0EEEAF1E001900D928A9589
:10150000E1F70E948D1181E0DF91CF910895E82FDE
:10151000F0E0E356FE4F8081089508958091A80180
:10152000811112C08091D80080618093D8008AE137
:101530008A95F1F700C08091D90080FD02C082E059
:1015400001C081E08093A80181E09091A8019130D1
:1015500009F080E008950E948E0A91E0892708959D
:101560000E94AB0A809301010E948E0A882319F021
:101570000E94BF0A02C00E94C50A7894089563E0E1
:1015800070E082E091E00C948A0763E070E082E012
:1015900091E00C9493070F931F93CF93DF938C01EB
:1015A00090911B0180911A01981761F082E090E000
:1015B0000E946C08EC01892B39F480911A01809308
:1015C0001B0102C0C0E0D0E0012B49F48091A901C9
:1015D0009091AA01892B19F480E090E002C081E08B
:1015E00090E00E946C08892B49F48091AB018093B4
:1015F0001A011092AA011092A90106C081E090E0A0
:101600009093AA018093A901CE01DF91CF911F9100
:101610000F91089583E390E02091BC0027FD02C064
:101620000197D1F708951092B9008CE08093B8002B
:101630000895CF93C82F84EA8093BC000E940A0BC0
:101640008091B900887F883039F08091B900887F17
:10165000803111F081E012C0C093BB0084E8809318
:10166000BC000E940A0B8091B900887F883129F064
:101670008091B900887F803469F780E0CF91089528
:1016800084E98093BC0083E390E02091BC0024FDBA
:1016900002C00197D1F708958093BB0084E880933E
:1016A000BC000E940A0B9091B900987F81E09832AB
:1016B00009F480E008951F920F920FB60F92112443
:1016C0008F939F93EF93FF938091B900887F803829
:1016D00069F038F48823C9F18036C9F51092B80151
:1016E00036C0883A09F1883BF9F031C08091B801E1
:1016F000811111C08091BB008093B9018091B90123
:10170000803120F01092B90180E001C081E091E0C9
:101710009093B8011DC0E091B901F0E08091BB0049
:10172000EA59FD4F808308C0E091B901F0E0EA5921
:10173000FD4F80818093BB008091B90190E00196BC
:101740008F7099278093B90102C01092BC0081E08C
:101750009091BC008295880F880F807C9568892BBA
:101760008093BC00FF91EF919F918F910F900FBEDE
:101770000F901F901895CF93C82F88E70E94190BE0
:1017800081110AC080E00E944C0B811105C08C2F92
:101790000E944C0BC1E08111C0E00E94400B8C2FD5
:1017A000CF910895CF93C62F0E94BB0B882321F0C1
:1017B0008C2FCF910C94BB0B80E0CF910895CF93E9
:1017C000C62F0E94BB0B882349F080E00E94BB0B10
:1017D000882321F08C2FCF910C94BB0B80E0CF910C
:1017E00008958EEA0C94BB0B8FEA0C94BB0B0F93FD
:1017F0001F93CF93DF938C010C5A1F4FD801ED91AB
:10180000FC91119760832D913C9111972F5F3F4F71
:101810002D933C93281B390B24353105B9F4EC0189
:10182000BC016B5E7F4F4FE350E00E94F92ECE016A
:10183000CF96F8019183808345E150E060E270E04B
:10184000DF91CF911F910F910C940B2FDF91CF91CE
:101850001F910F9108951F93CF93DF93FC01EA5AD4
:10186000FF4F21E020836A3099F4EC0132978081A8
:1018700091818C1B9D0B65E170E00E94C52E182F95
:10188000153158F460E2CE010E94F70B1F5FF8CFCC
:10189000DF91CF911F910C94F70BDF91CF911F91A6
:1018A0000895EF92FF920F931F93CF93DF937C01E4
:1018B000EB01FB0101900020E9F78F0101501109B4
:1018C000C017D10728F46991C7010E942B0CF8CFEB
:1018D000DF91CF911F910F91FF90EF9008950F939B
:1018E0001F93CF93DF938C01EB01FE01649166237C
:1018F00029F0C8010E942B0C2196F7CFDF91CF91E0
:101900001F910F910895CF93DF93EC0144E550E0D0
:1019100060E270E00E940B2FFE01EC5AFF4FD18372
:10192000C083CA5ADF4F81E08883DF91CF91089549
:101930009F92AF92BF92CF92DF92EF92FF920F935E
:101940001F93CF93DF93EC010E94CD279093BB01AF
:101950008093BA010E94F40B63E082E20E94DF0BE5
:10196000882309F43CC06DE781E20E94DF0B8823E5
:10197000B1F188E70E94190B811131C080E40E9407
:101980004C0B81112CC06E0184E0982E00E010E019
:10199000F601E00FF11FA08086E0A89E50011124FF
:1019A000E12CF12CF501EE0DFF1DEC5DFE4F849155
:1019B0000E944C0B8FEFE81AF80A86E0E816F10453
:1019C00089F70F5F1F4F0531110511F79A9485E1D3
:1019D000C80ED11C9110DACFCA5ADF4F1882DF919E
:1019E000CF911F910F91FF90EF90DF90CF90BF901C
:1019F000AF909F900C94400B86E792E00C94980C6B
:101A0000CF93DF93C82F0E94130B8EEA0E94BB0B6B
:101A1000811102C080E09BC060E885ED0E94D20B7E
:101A20008823C1F36FE188EA0E94D20B882391F3E7
:101A300060E083ED0E94D20B882361F380E40E9472
:101A4000BB0B882339F364E18DE80E94D20B882315
:101A500009F360E080E20E94D20B8823D9F2CC2304
:101A600039F080EA0E94BB0B8823A1F280EC06C00B
:101A700081EA0E94BB0B882369F288EC0E94BB0BB1
:101A8000882341F262E08AED0E94D20B882311F292
:101A90006FE881E80E94D20B882309F4BBCF61EF85
:101AA00089ED0E94D20B882309F4B4CF60E48BED5A
:101AB0000E94D20B882309F4ADCF84EA0E94BB0BAD
:101AC000882309F4A7CF86EA0E94BB0B882309F478
:101AD000A1CF8EE20E94BB0B882309F49BCF8FEA33
:101AE0000E94BB0B882309F495CF60E081E80E9437
:101AF000D20B882309F48ECF86E792E00E94830CF4
:101B000063E082E20E94DF0B8823E1F06FE781E26D
:101B10000E94DF0B8823B1F088E70E94190B811126
:101B200011C080E40E944C0B81110CC0D4E0C0E0D5
:101B300080E00E944C0BCF5FC038D1F7D150B9F78D
:101B40001092CC020E94400B0E94FC0C81E0DF91BD
:101B5000CF9108950E9427108091CC02811104C07A
:101B600080911C01882321F00E94FC0C10921C0122
:101B70008091BA019091BB010E94D92781369A4E7B
:101B800010F00C94F10B089581E080931C010895EE
:101B90000F931F93CF93DF93EC018B010E94C40D31
:101BA000882329F0B801CE010E94820E02C080E095
:101BB00090E08170DF91CF911F910F91089508956A
:101BC0000E948E0A8093BC010C94560F0C94141C36
:101BD000EF92FF920F931F93CF93DF93CDB7DEB7B2
:101BE0002A970FB6F894DEBF0FBECDBF8C0166EC0E
:101BF00076E00E946F0C8091440290914502A09182
:101C00004602B091470280319105A105B105C9F0A6
:101C100058F40097A105B10589F00897A105B10511
:101C2000C9F462EB76E012C080329105A105B105DE
:101C300059F0C897A105B10539F00CC06EEB76E0FC
:101C400005C068EB76E002C06BEA76E0C8010E944E
:101C50006F0C28C064EA76E0C8010E946F0C809186
:101C600047028F93809146028F93809145028F9314
:101C7000809144028F938DE491E09F938F931F9204
:101C80008AE08F93CE0101967C019F938F930E94EF
:101C9000122FB701C8010E94510C0FB6F894DEBF95
:101CA0000FBECDBF2A960FB6F894DEBF0FBECDBFD4
:101CB000DF91CF911F910F91FF90EF900895CF93F7
:101CC000DF93EC010E945E26BE0180E090E0DF9190
:101CD000CF910C94A423CF93DF93D62FC42F0E94CF
:101CE0000424882351F08D2F0E940424882329F096
:101CF0008C2FDF91CF910C9424248C2FDF91CF91E6
:101D00000C944524CF93FB018B302DE5920709F409
:101D100044C090F488302DE5920739F128F4833CD3
:101D20009C4509F474C0BEC089302DE5920721F1AD
:101D30008A309D4559F1B6C08F302DE5920709F4E0
:101D400079C048F48C302DE59207C9F18D309D455E
:101D500009F453C0A7C080312DE5920709F47BC078
:101D600081319D4509F48EC09DC0C281CC2309F408
:101D70009AC081E090E006C0C281CC2309F493C0F0
:101D800082E090E00E945F0EC0E08DC0C281CC2353
:101D900009F489C084E090E0F5CFC281CC2349F0FA
:101DA0008091BD01811103C081E08093BD0183E07A
:101DB00011C01092BD0183E00E94452418C0C28169
:101DC000CC2381F08091BD01811103C081E080931B
:101DD000BD0184E00E94242445E064E083E00E9489
:101DE0006B0ED2CF84E00E9445241092BD0145E0E5
:101DF00064E083E00E946B0E56C0C28185E0CC2374
:101E000019F00E942424C0CF0E9445244CC0C281F6
:101E1000CC2309F448C08091CD020E942C180E9466
:101E20001C188091CF02869590E09093CE0280930B
:101E3000CD02AACFC281CC2361F08091EA0282FB5D
:101E4000CC27C0F982FD02C081E910C080E197E093
:101E500012C081E914C0C281CC2381F08091EA02D2
:101E600082FBCC27C0F982FD04C080E90E94FB1CE4
:101E70001AC088E097E00E94821186CF80E90E9414
:101E80002E1D11C0C281CC2369F00E94A4140E94AF
:101E90002F188091CF02869590E09093CE02809388
:101EA000CD0201C0C1E08C2FCF9108958091CF0267
:101EB000869590E09093CE028093CD020E948E0A88
:101EC00091E089270C94000D0C94AA0D0F931F9399
:101ED000CF93DF93EC018B0144E550E00E94EC2EA0
:101EE000892B59F084E5F801DE0101900D928A9565
:101EF000E1F7CA5ADF4F81E08883DF91CF911F91CC
:101F00000F910895EF92FF920F931F93CF93DF935A
:101F1000CDB7DEB76E970FB6F894DEBF0FBECDBF5C
:101F20008C018091EA0282FD0DC06CEF76E0C80161
:101F30000E946F0C6AEF76E0C8010E946F0C6FEF91
:101F400076E00CC062E077E0C8010E946F0C68EF99
:101F500076E0C8010E946F0C65E077E0C8010E943E
:101F60006F0C66EF76E0C8010E946F0CC8010E94FA
:101F7000E80D64EF76E0C8010E946F0C0E94CA1B56
:101F800080FD03C064EE76E002C06CEE76E0C8012E
:101F90000E946F0C0E94CA1B81FD03C06AED76E0AF
:101FA00002C06FED76E0C8010E946F0C0E94CA1B50
:101FB00082FD03C060ED76E002C065ED76E0C80109
:101FC0000E946F0C6EEC76E0C8010E946F0C2091AD
:101FD000CF0220FF2FC08091D20231E1632F0E94F7
:101FE000972E1F928F938091D1020E94972E1F925D
:101FF0008F938091D0026AE00E94972E1F928F9358
:1020000026951F922F9381E591E09F938F931F92C6
:102010008EE18F93CE0101967C019F938F930E9456
:10202000122FB701C8010E94510C0FB6F894DEBF01
:102030000FBECDBF6E960FB6F894DEBF0FBECDBFFC
:10204000DF91CF911F910F91FF90EF9008950F9323
:102050001F93CF93DF93CDB7DEB7C557D1090FB626
:10206000F894DEBF0FBECDBFCE0101960E94830C57
:102070008091BC01882329F0CE0101960E94820F35
:1020800029C064E676E0CE0101960E946F0C809133
:10209000CF0280FF1BC086951F928F9385E691E04B
:1020A0009F938F931F928EE18F938E01085A1F4F3B
:1020B0001F930F930E94122FB801CE0101960E9428
:1020C000510C0FB6F894DEBF0FBECDBFCE01019606
:1020D0000E94E80DBE016F5F7F4F86E792E00E948D
:1020E000660FCB58DF4F0FB6F894DEBF0FBECDBFE3
:1020F000DF91CF911F910F91089581E00895089588
:102100000C947F101F93CF93DF9300D000D01F92C9
:10211000CDB7DEB749835A836B833091DE01898165
:102120009A81311114C0662359F0222349F00E948C
:102130001925182F682F89819A810E94C22403C013
:102140000E94ED24182F69817A81812F04C00E949A
:10215000192569817A810F900F900F900F900F9041
:10216000DF91CF911F910C94F311FC01262F408138
:1021700051816281738184810C948210CF93DF93AB
:10218000EC0160E00E94B510BE01DF91CF910C948C
:102190008010FF920F931F93CF93DF93E82FF0E00F
:1021A000E05AF54FF490C82FC695C695C695D0E075
:1021B000FE01E051F54F0491877010E0082E02C037
:1021C000159507950A94E2F701701127FE01E05278
:1021D000F54FC491D0E002C0D595C7958A95E2F736
:1021E000C170DD270115110519F081EE0E94FB1C5D
:1021F000209719F086EE0E94FB1C8F2D0E945A1D1D
:10220000CD2B19F086EE0E942E1D012B41F081EEA0
:10221000DF91CF911F910F91FF900C942E1DDF91B4
:10222000CF911F910F91FF900895EF92FF920F931E
:102230001F93CF93DF938C01F62E8AE0E82EF801EE
:102240008491882309F457C0813009F042C0E80125
:102250002196FE018491813031F42196FE01849112
:102260000E945A1D39C0823039F4E8012296FE01DD
:1022700084910E94FB1C30C0833039F4E80122961F
:10228000FE0184910E942E1D27C0843029F5E801AB
:102290002296FE01249180E090E030E02053310945
:1022A0002A30310560F4E89EA001E99E500D11240A
:1022B000C901840F951F2196FE012491EECF00974E
:1022C00059F0EFE9FFE03197F1F700C00000019706
:1022D000F6CF0E94C910E8018E010F5F1F4F8F2DAE
:1022E000882309F4ACCFEFE9FFE03197F1F700C0A4
:1022F00000008150F5CFDF91CF911F910F91FF909A
:10230000EF90089560E00C9415110E944B26811106
:1023100002C00E94F0260C94E00D0C94120981E09A
:1023200008950C948F11CF93C82F0E94DF0D8C2F2E
:102330000E949111CF91089508950E94C81F0E9494
:102340009C112FEF84E39CE0215080409040E1F706
:1023500000C000000C940E280F931F93CF93DF93BF
:10236000EC0161E00E94B5108C01BE010E94C80D15
:10237000882379F1BE01C8010E94281A882349F1F7
:10238000BE01C8010E94691A882319F1BE01C80163
:102390000E94941B8823E9F0BE01C8010E9419190C
:1023A0008823B9F08A81882369F001158CE5180724
:1023B00031F00E3D1C4531F40E94F0260AC00E9407
:1023C0009D1107C0CE01DF91CF911F910F910C9409
:1023D0007D1080E0DF91CF911F910F91089580E0F3
:1023E00090E00895089526E4829FC0011124FC0125
:1023F00027E0729FE00DF11D1124E60FF11DEE0F95
:10240000FF1FE85EF84F859194910895880F991FFA
:10241000FC01E050F54F859194910895CF93DF939F
:102420000E94F3110E940A13EC01811521E5920725
:10243000A0F5811540E5940708F086C0C11580E23B
:10244000D807F0F4C11521E0D20708F0DFC0C03E84
:10245000D10588F4C03CD10508F062C0C130D10577
:1024600009F4D4C008F4D0C0CE010497813A910594
:1024700008F4CCC0C9C0C83ED10508F4C7C0C4C068
:10248000C11540E4D40708F05CC0C11580E3D8074B
:1024900008F04DC0CE019F7046C0811525E592071A
:1024A000A0F4811544E5940708F095C0C11583E5B3
:1024B000D80708F07AC0C11522E5D20708F05FC03E
:1024C000DC2FCC27C16FD06AA1C0811549E59407E4
:1024D000A0F4C11588E5D80708F082C0C11526E52B
:1024E000D20708F091C08C2F0E949E138F71C82FC5
:1024F000D0E0DC2FCC27D06289C081154AE5940753
:1025000008F473C090568115904208F07DC08D2F5D
:102510008F710E949E13DD27D0628F71D82B76C0F9
:10252000CE01805C91090E940612EC016FC0CE01C1
:102530009927D3FF03C0EC01D86C68C0EC01D06CC4
:1025400065C0DF70D06A62C074E0969587957A9511
:10255000E1F783709C2F937021E030E002C0220FDE
:10256000331F9A95E2F73C68382BCF70C695C69515
:1025700040E2C49FE0011124C22BD32B47C0CE01FF
:102580008370992721E030E002C0220F331F8A9523
:10259000E2F78C2F8695869540E2849FC001112436
:1025A000E901C82BD92BDC6831C0CE018370992793
:1025B00021E030E002C0220F331F8A95E2F78C2F12
:1025C0008695869540E2849FC0011124E901C82BBD
:1025D000D92BDA681BC0D82FCC27C46FD06A16C09D
:1025E000DC2FCC27C06FD06A11C08F700E949E1361
:1025F00094E0D695C7959A95E1F7CF70D0E0DC2F9F
:10260000CC27D069C82B02C0C0E0D0E0CE01DF915A
:10261000CF9108958238910569F1B0F48133910525
:1026200009F46DC048F48932910509F463C08A3217
:10263000910509F469C008958533910509F455C0E1
:1026400089339105B9F00895833E910569F138F415
:10265000803E9105B1F0823E910509F10895863ED4
:102660009105A9F1873E9105B9F1843E910509F0E4
:1026700064C023C02091EA0220FD4FC021FD4DC05F
:1026800008958091EA0280FD44C08091EB0280FFB2
:1026900044C08091EA0284FD42C083EE4DC0809127
:1026A000EA0282FF38C0F5CF8091EA0282FD33C092
:1026B0008091EB0280FD31C0ECCF8091EB0281FF75
:1026C00032C08091EA0284FD2AC087EE35C0809135
:1026D000EA0283FF26C0F5CF8091EA0283FD21C084
:1026E0008091EB0281FD1FC0ECCF8091EA0285FD55
:1026F0001CC01DC08091EA0285FD19C016C08091E2
:10270000EA0286FD16C017C08091EA0286FD13C05A
:1027100010C089E311C082EE0FC080EE0DC080E0D2
:102720000BC086EE09C084EE07C089E205C085E3D0
:1027300003C08AE201C081E390E008959091EA022B
:1027400092FF0DC0282F2871283019F4877F8460EC
:1027500006C0282F2471243011F48B7F886093FFEA
:102760000DC0282F2871283119F4877E846106C096
:10277000282F2471243111F48B7E88612091EB0283
:1027800020FF0DC0382F3871383019F4877F8160F1
:1027900006C0382F3171313011F48E7F886021FFEF
:1027A0000DC0282F2871283119F4877E816106C059
:1027B000282F2171213111F48E7E886194FD877E4E
:1027C0000895EF92FF920F931F93CF93DF93F62E0E
:1027D000472FE82FF0E0711106C0EB5EF34F6491D4
:1027E000762F862F72C0272F30E0EB5EF34FE491F7
:1027F0000E2F10E056E0659FC0011124CFEFD0E00E
:10280000BE010E94B12E5BEA5603C001579F900D96
:1028100011248F0D911D8F0D911D982F990F890FE8
:102820007E01E21AF30AE09ED001E19EB00DF09E17
:10283000B00D1124489FA0011124452F55277E017A
:10284000E41AF50AE09EA001E19E500DF09E500DA5
:1028500011247E01E81AF108E29EC001E39E900D6A
:10286000F29E900D1124892F9927C81BD90BC09F68
:10287000C001C19F900DD09F900D11246230710551
:1028800091F048F461157105E1F061307105A9F42A
:102890008B2F752F19C06430710561F038F06630E8
:1028A000710579F00AC0892F7B2F0EC08E2F7B2FE8
:1028B000E52F0AC08E2F792F02C0852F7E2FEB2F98
:1028C00003C08B2F7E2FE92F6E2FDF91CF911F91A9
:1028D0000F91FF90EF9008950895CF93DF93762F97
:1028E000E901682F842F0E94E113798368838A832A
:1028F000DF91CF9108958091CF02282F269530E067
:102900002115310519F48170826005C0233231052B
:1029100024F0817084648093CF02089588E090E071
:102920000C94E431CF92DF92EF92FF926B017C0125
:102930000E947B14B701A60188E090E0FF90EF9021
:10294000DF90CF900C940232EFECF2E083E08083D2
:1029500011828FEF828383831482608171818281EF
:1029600093810C9492148091CF0280FF02C08695CF
:10297000089580E008958091D302833018F48F5F2A
:102980008093D3026091CF027091D0028091D102E6
:102990009091D2020C9492148091D302882319F062
:1029A00081508093D3026091CF027091D0028091C8
:1029B000D1029091D2020C94921470E00C94891977
:1029C000609120018091CF0280FF0AC080911F0199
:1029D00023E0829FC00111248C529D4F0C94DD1482
:1029E0008091210190912201891780F7E82FF0E072
:1029F0009F01220F331FE20FF31FEC52FD4F118294
:102A0000108212828F5FF0CF9091CF0290FF16C09C
:102A10009091210120912201921770F4E92FF0E0AA
:102A2000DF01AA0FBB1FEA0FFB1FEC52FD4F818392
:102A3000608342839F5FF0CF0C94E0140895CF939E
:102A4000DF9300D01F92CDB7DEB79091CF0290FFF9
:102A50000AC09E012F5F3F4F0E946D144B81698118
:102A60008A810E9404150F900F900F90DF91CF91F3
:102A70000895CF93DF93EC01EC81F0E0E05FF44F39
:102A80004491EFECF2E0628181810E941F158C81FC
:102A90008F5F8C83DF91CF910895CF93DF93EC010B
:102AA000EFECF2E0438162818C810E941F158C81E2
:102AB0008F5F8C83DF91CF910895AF92BF92CF92B9
:102AC000DF92EF92FF920F931F93CF93DF9300D08B
:102AD0001F92CDB7DEB7182FF62E042FE22E90915D
:102AE000CF0290FF6DC0E92FE695AE2FB0E0A4595C
:102AF000BE4F8C918093C7019E7F923061F49E01FE
:102B00002F5F3F4F812F0E946D144B8169818A8115
:102B10000E94041543C0823019F40091D2023EC0D5
:102B2000863019F41091D00239C08930D9F3893137
:102B3000A9F5E9518E2F8170D82EE695F0E0E05F7F
:102B4000F34FA590B490C12CBB2460912301C6160D
:102B500018F52C2D30E0A29EC001A39E900DB29ED0
:102B6000900D112470E00E94B12E812FD11002C06F
:102B7000860F01C0861B90912101290F311DA901EB
:102B8000440F551F240F351F2C523D4F402F6F2DE2
:102B90000E946D14C394D9CF0E94E0141093D00208
:102BA000F092D1020093D202EE2051F06091CF0258
:102BB0007091D0028091D1029091D2020E94921421
:102BC0000F900F900F90DF91CF911F910F91FF9079
:102BD000EF90DF90CF90BF90AF900895EFECF2E0D0
:102BE0009181282F438162818AE0890F0C945D15C1
:102BF00081E00C94EE15EFECF2E09181282F4381F7
:102C0000628186EF890F0C945D1581E00C94FB15B1
:102C1000EFECF2E0628121E1620F08F46FEF282F00
:102C2000438181810C945D1581E00C940816EFECD2
:102C3000F2E0628121E1621B08F460E0282F438109
:102C400081810C945D1581E00C941716EFECF2E095
:102C5000438121E1420F08F44FEF282F62818181E7
:102C60000C945D1581E00C942616EFECF2E04381A4
:102C700021E1421B08F440E0282F628181810C94FD
:102C80005D1581E00C94351620E00C945D15FF92E3
:102C90000F931F93CF93DF93EC01F12C0FEF10E014
:102CA00060912301F616F0F4809121012F2D30E080
:102CB000280F311DC901880F991F280F391F2C5269
:102CC0003D4F70E0C8010E94C52E962F8C81409127
:102CD000D2026091D102F99E800D11240E946D14E0
:102CE000F394DECF0E94E0149A818C8190FF02C0A1
:102CF0008F5F01C081508C83DF91CF911F910F9125
:102D0000FF900895AF92BF92CF92DF92EF92FF9221
:102D10000F931F93CF93DF93FC01828180FF02C04A
:102D20000FEF01C001E010E046E0A42E80912301E6
:102D3000181708F043C080912101C12ED12CE60163
:102D4000C80FD11DCE01880F991FC80FD91FCC52B3
:102D5000DD4F198218821A8234E0E32EF12CB12C57
:102D60008091BF018B0D87302CF06A2D0E94A32E1D
:102D7000892F05C087FF03C090912301890F082E7A
:102D8000000C990BC816D90691F48091D2028E9D41
:102D9000A0018F9D500D1124559547955595479548
:102DA0009E016091D1028091D0020E946D14B00EFC
:102DB000F1E0EF1AF108A1F61F5FB8CF0E94E0140E
:102DC0008091BF01013031F4811102C08091230153
:102DD000815007C090E001966091230170E00E944D
:102DE000C52E8093BF01DF91CF911F910F91FF906E
:102DF000EF90DF90CF90BF90AF900895CF938091E8
:102E0000210190912201891770F4E82FF0E09F01D1
:102E1000220F331FE20FF31FEC52FD4F118210827D
:102E200012828F5FF0CFC0E060912301C617C0F51A
:102E3000EC2FF0E070E0CF010E94C52E209121011F
:102E4000820F2091BE01022E000C330B90E0E2179E
:102E5000F307CCF020911E01022E000C330B2E172D
:102E60003F078CF09C01220F331F820F931F9C01A0
:102E70002C523D4F4091D2026091D1028091D002FC
:102E80000E946D140BC0FC01EE0FFF1F8E0F9F1FE1
:102E9000FC01EC52FD4F118210821282CF5FC4CF31
:102EA0000E94E01420911D018091BE01820F809349
:102EB000BE0190911E01920F90931E0119165CF4B1
:102EC000082E000C990B4091230150E0415051090C
:102ED000841795071CF0219520931D01CF9108952B
:102EE0000F931F93CF93DF938C01FC018481958115
:102EF00001968170992795838483C0E0D5E5809100
:102F00002301C81700F5809121012C2F30E0280FF4
:102F1000311DC901880F991F280F391F2C523D4FB1
:102F20004C2F4695F80184819581840F911D817005
:102F30004091D2026091D1028D9F802D11240E9478
:102F40006D14CF5FDCCFDF91CF911F910F910C9467
:102F5000E014EFECF2E080818E7F808360817181EC
:102F6000828193810E9492141092C8012FEF80E712
:102F700092E0215080409040E1F700C000000C94A6
:102F8000E0146091CF02669570E04BE050E084E27F
:102F900091E00E94DF2E892B19F481E08093C80113
:102FA0000E94CD279093C1018093C0010895909114
:102FB000CF0290FF35C09170811102C0926006C0AF
:102FC000833210F0946402C0880F982B9093CF0244
:102FD000662351F06091CF027091D0028091D102AE
:102FE0009091D2020E9492146091CF02669570E097
:102FF0004BE050E084E291E00E94DF2E892B19F033
:103000001092C80102C00E94C11781E08093C301E1
:103010004091D2026091D1028091D0020C9444166A
:103020000895682F9091CF02969581E0890F8332A1
:1030300008F081E00C94D71781E00C941118682FE8
:103040009091CF0296958FEF890F09F482E20C944C
:10305000D71781E00C941F1861E00C94D717EFECA0
:10306000F2E080818160808386950C942C18809199
:10307000CF0280FD0C94A9170C942F1860E00C94DB
:10308000D7178091C60181112EC00E944B26811155
:1030900004C00E94F0260E94A4140E948E14609323
:1030A000CF027093D0028093D1029093D2026E7FB0
:1030B00061F40E94A4140E948E146093CF02709356
:1030C000D0028093D1029093D2020E947B1410927E
:1030D000C8018091CF0280FF03C086950E943E18F0
:1030E00081E08093C60108950F931F93CF93DF93E0
:1030F0008091C801882309F47CC08091C701E091C8
:10310000CF02E695E81BE093C201823049F4F0E07B
:10311000E45FF44FE491CE2FD0E009E315E139C02C
:10312000863049F4F0E0E75FF44FE491CE2FD0E031
:103130000DE415E12EC0893051F4E695F0E0EA5F28
:10314000F44FE491CE2FD0E007E416E122C08F3097
:1031500051F4E695F0E0ED5FF44FE491CE2FD0E02E
:1031600002E816E116C0853149F4F0E0E050F54F71
:10317000E491CE2FD0E00EEF16E10BC0883129F498
:10318000C8EED3E000E717E104C0C0EDD7E00CE6DD
:1031900014E18091C301882389F01092C3010E9439
:1031A000CD279E0120953095820F931F9093C101EA
:1031B0008093C0011092C5011092C4018091C0019A
:1031C0009091C1010E94D9278C179D0790F0E09142
:1031D000C001F091C101CE0FDF1FD093C101C09398
:1031E000C00180EC91E0F801DF91CF911F910F9128
:1031F0000994DF91CF911F910F910895882311F0C9
:10320000FA0101C0FB010994CF93DF93C82FD62F99
:103210000E94B3148C1740F00E94B3148D1720F451
:10322000DF91CF910C941C188C2FDF91CF910C94CF
:103230002C180F931F93CF93FB01C281CC2309F469
:1032400060C08C010E949A258272F801E25CFC4504
:10325000E431F10508F058C0EA5AFF4F0C94D92E1A
:103260000E94371850C049E258E16CE178E104C08F
:103270004CE158E169E278E10E94FE1844C045E063
:1032800056E168EF75E1F8CF48EF55E165E076E18A
:10329000F3CF43E256E164E176E1EECF44E156E15B
:1032A00063E276E1E9CF41E456E162E376E1E4CF1F
:1032B00042E356E161E476E1DFCF4CEC54E16BEBA5
:1032C00074E1DACF4BEB54E16CEC74E1D5CF81E0E3
:1032D00010C065E082E012C068E086E00FC06EE0DA
:1032E00089E00CC064E18FE009C067E185E106C0B8
:1032F00088E10E942C1807C062E289E10E9404194B
:1033000002C0C1E001C0C0E08C2FCF911F910F918E
:103310000895539A2BB1277F3BB138604FB7F8948B
:10332000FC01CB01880F991F680F791F6E0F7F1F5B
:10333000E617F70789F0819198E03BB9000000C0DB
:1033400087FF2BB9880F000000C000C000C02BB958
:1033500000C09A9591F7ECCF4FBF8FE594E00197AD
:10336000F1F700C0000008950F931F93CF93DF93F0
:10337000C62FD42F122FFC0182818823C9F06093BD
:10338000CB010E94CD279093CA018093C90180E2AE
:103390008C0F883008F057C0C77081E001C0880FDB
:1033A000CA95EAF7DF91CF911F910F910C946D1D93
:1033B0008091CB01681330C08091C9019091CA01FE
:1033C0000E94D9278436910538F500E20D0FCD17FC
:1033D000B9F080E28C0F883040F4C77081E001C002
:1033E000880FCA95EAF70E94741D083028F581E01D
:1033F0009D2F977001C0880F9A95EAF70E946D1D66
:10340000812F0E945A1D0830F0F4D77081E001C06E
:10341000880FDA95EAF70AC080E28C0F883098F4BA
:10342000C77081E001C0880FCA95EAF7DF91CF919C
:103430001F910F910C94741D812FDF91CF911F91DB
:103440000F910C945A1DDF91CF911F910F91089508
:103450009C01CB01233F4CE53407F9F078F4283D7B
:10346000FCE53F07B9F0293D4CE5340711F1273D54
:103470003C4531F526E241EE61EE1EC0253FFCE5FC
:103480003F0799F070F0263F3C45D1F427E245EE26
:1034900066EE12C027E245EE0EC026E241EE60EE77
:1034A0000BC027E245EE64EE07C026E241EE62EE75
:1034B00003C028E241E065EE0E94B41980E008955F
:1034C000FC018281882319F01092CB01089581E0DC
:1034D0000895CF93DF93EC01FB018281882309F4E7
:1034E0001FC1C230FCE5DF0708F41BC1C6319CE5F3
:1034F000D90738F09E012A5F3C452930310508F094
:1035000010C10E9463269093EB028093EA02C031BF
:10351000ECE5DE0709F4C3C008F041C0C8308CE513
:10352000D80709F49AC0F0F4C430ECE5DE0709F4DA
:1035300087C068F4C2308CE5D80709F477C0C3307F
:10354000DC4509F0E3C08091EA02826076C0C630B3
:10355000ECE5DE0709F46EC008F07BC08091EA025A
:1035600088606BC0CC308CE5D80709F485C068F45E
:10357000CA30ECE5DE0709F474C008F079C00E9497
:10358000C81F8091EA02806858C0CE308CE5D80709
:1035900009F476C008F07FC08091EA028BC0CB3F6F
:1035A000ECE5DE0709F44FC018F5C3318CE5D80708
:1035B00009F47DC078F4C131ECE5DE0709F473C08D
:1035C000C231DC4509F0A2C00E94C81F8091EA0206
:1035D0008F7733C0C5318CE5D80709F472C008F481
:1035E00086C0CA3FDC4509F091C08091EB023EC025
:1035F000CF3FFCE5DF0709F45FC058F4CD3F9CE501
:10360000D90709F444C008F43FC08091EB028260FE
:103610002DC0C130FDE5DF0709F475C008F45DC0B9
:10362000C230DD4509F072C080E06EC08091EA02D0
:10363000816003C08091EA0280618093EA0266C0E3
:103640008091EA0211C08091EB0282608093EB02CC
:103650005DC08091EA028062F0CF8091EA028064CE
:10366000ECCF8091EA0288608460E7CF8160EECF82
:103670008091EA028E7FE1CF8091EA028D7FDDCFDB
:103680008091EA02877FD9CF8091EB0218C08091A8
:10369000EB028D7FDBCF8091EA028F7ECECF8091CF
:1036A000EA028F7DCACF8091EA028F7BC6CF8091DC
:1036B000EA02877F8B7FC1CF8091EB028D7F8E7F67
:1036C000C5CF8091EA0282FB222720F991E0922760
:1036D00090FB82F990FB83F9B0CF8091EB02982F99
:1036E000909591708E7F892B90FB81F9AFCF0E94CE
:1036F000C81F8091EA0287FB222720F991E09227D8
:1037000090FB87F99ACF81E00E94F2268091EA022D
:103710009091EB020E9474260E94C81F80E001C0B5
:1037200081E0DF91CF910895CF93DF9386319C455F
:1037300041F5EB010E949A25982F8A8120912F0153
:1037400030913001882379F09A7A81E009F480E0A1
:103750008093CC01911102C069E201C065E3C90107
:103760000E9439270AC08091CC01811102C069E210
:1037700001C065E3C9010E943B270E94E82580E063
:1037800001C081E0DF91CF9108959093D2018093A1
:10379000D1010895E091D101F091D201309721F04B
:1037A0000190F081E02D099480E00895E091D1012D
:1037B000F091D201309721F00280F381E02D09943D
:1037C00008952091CF013091D0012817390771F069
:1037D0009093D0018093CF01E091D101F091D2017B
:1037E000309721F00680F781E02D0994089520910B
:1037F000CD013091CE012817390771F09093CE0199
:103800008093CD01E091D101F091D201309721F068
:103810000084F185E02D0994089585B7806885BFFF
:1038200085B7806885BF089508950C94141C0C9486
:10383000151C0C94141C0E940D1C0E94191C0C9445
:10384000171C81E008950C94211C0E94C4270E943B
:1038500014090E941F280E9441180C94E60DAF9293
:10386000BF92CF92DF92EF92FF920F931F93CF936D
:10387000DF93CDB7DEB72A970FB6F894DEBF0FBE41
:10388000CDBF0E94270A0E94231C811111C08FEF17
:1038900089838A831B820E94CD278160782F9D8334
:1038A0008C8349815A816B818D810E94C71C40C0E5
:1038B00084EDA82E81E0B82E00E010E0C02E802F0D
:1038C0000E94870AE82EF501D1905F01D82631F4D5
:1038D0000F5F1F4F0A30110589F7D9CF8091590228
:1038E00081FD0E948D0A80E0FF24F3949D2D9F218D
:1038F000D1F08E83CF82EF2081E009F480E08887C9
:103900000E94CD278160782F9A8789874E815F81B9
:1039100068858A850E94C71CF801EC52FE4F8081A1
:10392000F826F08205C08F5FFF0C8730F9F6D0CF04
:103930000E9474180E94CA1B9091D3018917B1F09C
:103940000E94CA1B8093D3012A960FB6F894DEBF5B
:103950000FBECDBFDF91CF911F910F91FF90EF90E0
:10396000DF90CF90BF90AF900C9493112A960FB632
:10397000F894DEBF0FBECDBFDF91CF911F910F91A5
:10398000FF90EF90DF90CF90BF90AF900895CF93CE
:10399000DF93CDB7DEB72B970FB6F894DEBF0FBE1F
:1039A000CDBF4F83588769877A878B87DE01119651
:1039B00086E0FD0111928A95E9F785E0FE013796D0
:1039C00001900D928A95E1F749815A816B817C8142
:1039D0008D819E810E9467222B960FB6F894DEBFE0
:1039E0000FBECDBFDF91CF910895FC018081918101
:1039F0000E945B250895CF93882371F1C82F8CEF27
:103A00008C0F813AD0F46C2F80912F01909130016E
:103A10000E940327882349F06C2F80912F019091F9
:103A200030010E943B270E94E8256C2F80912F01D6
:103A3000909130010E9439270CC080E28C0F8830B1
:103A400058F4C77081E001C0880FCA95EAF70E9458
:103A50009D25CF910C94E825CF910895882349F1B5
:103A6000682F8CEF860F813A38F480912F01909166
:103A700030010E943B270CC080E2860F883050F452
:103A8000677081E001C0880F6A95EAF70E94A3255C
:103A90000C94E8258BE5860F833020F480E090E0DD
:103AA0000C94E11B685A673120F480E090E00C949C
:103AB000F71B0895CF93C82F0E94FB1CC93349F40C
:103AC0002FEF87EE93E0215080409040E1F700C057
:103AD00000008C2FCF910C942E1D882321F00E9482
:103AE0009D250C94E8250895882321F00E94A325A4
:103AF0000C94E8250895CF92DF92EF92FF920F93F6
:103B00001F93CF93DF937C01062FC72FFC01D58134
:103B1000D295DF70128111110E94BA250E9493255F
:103B2000882399F0112389F08C2F807F803421F035
:103B300080E2800F883048F082E00E9432260E94A6
:103B4000932591E0D82ED92601C0D12CCC2EC29439
:103B50008FE0C8228C2D90E0FC01E659FF4F0C94B9
:103B6000D92E8C2F807FCF70882311F0C295C07F13
:103B7000112399F0CC2309F464C180E2800F8830CE
:103B800010F0011104C08C2F0E949D2503C08C2FC2
:103B90000E94AD250E94E82554C1802F0E942E1D51
:103BA000CC2309F473C180E2800F883010F001113A
:103BB00004C08C2F0E94A32503C08C2F0E94B32524
:103BC0000E94E82563C18C2F807FCF70803211F076
:103BD000C295C07F002319F00130C9F022C0112323
:103BE00071F0DD2341F0D13031F40E94CD258C2BD2
:103BF0000E94D5254BC10E94CD258C2B1DC0DD23F5
:103C000019F0D13009F442C10E94DE2525C01123EC
:103C100021F0D63008F03AC10EC0D53008F036C1D8
:103C20001BC0112361F0DD2331F0F701858180FF96
:103C300008C18F7085838C2F0E946D1D27C1DD23E5
:103C400059F0093309F00EC1FFEF27EE83E0F15080
:103C500020408040E1F704C18C2F0E94741D16C1E2
:103C60008C2F837009F045C0111114C1402F42956B
:103C700046954770440F440F602F6F70862F90E079
:103C8000A0E0B0E0042E04C0880F991FAA1FBB1F3C
:103C90000A94D2F704FF10C00FE010E020E030E0FB
:103CA00004C0000F111F221F331F4A95D2F7009541
:103CB00010952095309503C000E010E09801C6955E
:103CC000C695C370BC01CD01602B712B822B932B49
:103CD000C23049F058F4C13019F00E94B823DAC05C
:103CE0000E94A623D7C00E94CA23D4C00E94A42346
:103CF000D1C0112319F08C2F817001C086958823C3
:103D000009F4C8C0402F429546954770440F440FB0
:103D1000602F6F70862F90E0A0E0B0E0042E04C00A
:103D2000880F991FAA1FBB1F0A94D2F704FF10C067
:103D30000FE010E020E030E004C0000F111F221F50
:103D4000331F4A95D2F7009510952095309503C002
:103D500000E010E09801C695C695C370BC01CD0186
:103D6000602B712B822B932BC23049F058F4C13059
:103D700019F00E949D248EC00E948B248BC00E944B
:103D8000AF2488C00E94DE2385C0CF70112339F094
:103D90008C2F0E942424802F0E946D1D7BC0802FB9
:103DA0000E94741D8C2F0E94452474C0023F01F1B3
:103DB00028F4003F41F0013FA1F03FC0033FF9F07C
:103DC000043F39F13AC0112341F0D53008F05EC00C
:103DD0008C2F8F710E946A2459C0D63008F056C0CB
:103DE000F7CF112339F08C2F8F710E9424244EC0FD
:103DF0001123C9F38C2F8F710E94452447C01123D2
:103E000029F08C2F8F710E940F2440C00E94EA235A
:103E10003DC0112349F0CF718C2F0E94242463E010
:103E20008C2F0E941D2632C081E00E943226D230A3
:103E300068F182E00E94322629C0112331F0DD238F
:103E400091F2802F0E94FB1C21C0DD2399F20933DF
:103E500049F49FEFE7EEF3E09150E040F040E1F7E6
:103E600000C00000802F0E942E1D10C04C2F4F70EC
:103E7000602FC7010E94EF110E9415230FC04C2F25
:103E80004F70602FC7010E94F21108C088EF8C0D9F
:103E9000843020F40E94CA1B0E949311DD20C9F0D7
:103EA0000E948F2580FD15C0F70112820E9489258E
:103EB0000E942424C7010E948A1F0E948925DF9145
:103EC000CF911F910F91FF90EF90DF90CF900C94C6
:103ED0004524DF91CF911F910F91FF90EF90DF90DC
:103EE000CF9008950F931F93CF93DF93EC016881D8
:103EF00079818A810E9466258C010E94C1240E94DA
:103F00009223B801CE010E947B1DDF91CF911F91BA
:103F10000F910895CF93DF93EC01988189812B81D4
:103F20003C81232B31F08F3F31F481E09F3F19F426
:103F300003C081E001C080E080FD19C0CE010E9475
:103F4000AC1181110CC00E949325882381F08A81D5
:103F5000882369F082E0DF91CF910C943226CE0164
:103F60000E94721FCE01DF91CF910C94BE10DF91A1
:103F7000CF9108950E94BA250E94CA250C94E82585
:103F800080912F01909130010E943D270C94BA1F1F
:103F90000E94AA250C94C01FE92FE295EF704E2FC6
:103FA00050E0FA013297EE30F105B0F4E658FF4FD9
:103FB0000C94D92E803F91F018F4883E68F40EC01E
:103FC000843F51F40BC0883E48F0813F29F406C07D
:103FD00093FB882780F9089580E0089581E0089593
:103FE0000E945B250E94CC1F0895CF93DF9300D0E1
:103FF00000D01F92CDB7DEB70F900F900F900F90AB
:104000000F90DF91CF910895CF93DF9300D000D030
:1040100000D0CDB7DEB726960FB6F894DEBF0FBE40
:10402000CDBFDF91CF9108951F93CF93DF93C091C0
:10403000DF0116E08091E001C81799F0D0E01C9FE5
:10404000F0011D9FF00D1124EF51FE4F4081518171
:1040500062817381848195810E9404202196C770BA
:10406000E9CFDF91CF911F910895409111025091B6
:1040700012026091130270911402809115029091C6
:1040800016020C9404200F931F93CF93DF9380911B
:10409000160282958F7009F05DC08091130288230B
:1040A00009F458C08091DF011091E0016091110284
:1040B00070911202C0911402D091150291E06F3FED
:1040C00009F090E0292F06E0811709F443C02097FA
:1040D00021F07F3F21F030E003C031E001C0322FFA
:1040E00090E030FD34C0089FF001099FF00D1124CD
:1040F000DF01AF51BE4F11963C911197371327C086
:104100003C91361324C012963C91129731111FC076
:1041100013964D915C9114974C1B5D0B44365105E1
:10412000B0F4809116028F70806180931602EA517C
:10413000FE4F80818F708061808381E192E00E94D8
:104140008A1FDF91CF911F910F910C94142001963B
:104150008770BACFDF91CF911F910F9108959F92F1
:10416000AF92BF92CF92DF92EF92FF920F931F9385
:10417000CF93DF93CDB7DEB761970FB6F894DEBF6C
:104180000FBECDBF8C0185E0F801DE011D960190C8
:104190000D928A95E1F7F80140815181E28090917A
:1041A0001102609112022091140230911502211522
:1041B000310531F06F3F31F481E09F3F19F403C0C6
:1041C00081E001C080E0F82FF1709F2E80FD2CC1AE
:1041D000F801A380B48081E1C82E82E0D82EF0904F
:1041E0001302F501E21BF30BFF2009F4EBC08091F1
:1041F0001602E436F10508F0A7C0282F207F09F049
:1042000052C0561313C0491311C0FE2CE1100EC04A
:104210008F708061809316020E943520C6010E9433
:104220008A1F80911602F80185833EC1AB2831F0C8
:104230005F3F31F481E04F3F19F403C081E001C0DA
:1042400080E080FD03C081E08E2502C080E090E028
:10425000F82FF170FF2E80FF1CC08091DF012091AC
:10426000E00136E0821709F4FDC090E0389FF001CC
:10427000399FF00D1124EF51FE4F6181561306C096
:104280006081461303C06281E61203C00196877005
:10429000E9CFFE2CEE2009F407C18091160281605F
:1042A0008093160266C0561312C0491310C0E11065
:1042B0000EC0F8018583C8010E948A1F86E0F801BC
:1042C000A1E1B2E001900D928A95E1F7C8C04D8757
:1042D0005E878D859E850E94F01F882379F1EE20F0
:1042E00069F120911602822F82958F7090E00297DB
:1042F00074F0809111029091120298878F83198631
:10430000BB86AA862C87CE0107960E948A1F86E06C
:10431000F801A1E1B2E001900D928A95E1F70E94C7
:1043200043200E9435200DC0561729F14D875E8726
:104330008D859E850E94F01F81112CC0C8010E94AE
:104340008A1FFF24F394B0C0282F207F69F77A2DAD
:10435000B98AA88A6E2D89890E94F51F81E192E0B1
:104360000E948A1F86E0F60111928A95E9F70E9461
:104370003520F12C99C04913D9CFE110D7CFF801DE
:104380008583C8010E948A1F86E0F60111928A95F2
:10439000E9F78AC0EE2091F220911602822F8295D1
:1043A0008F7090E002970CF4B2CF8091110290913F
:1043B00012029A8389831B82BD82AC822E83CE0136
:1043C0000196A3CFE436F10510F5FE2CEE2009F49A
:1043D000B5CF56130BC0491309C086E0F801A1E11F
:1043E000B2E001900D928A95E1F75EC04D875E873D
:1043F0008D859E850E94F01F811189CF80911602C4
:10440000816080931602C8010E948A1F4DC07A2DD8
:10441000B98AA88A6E2D89890E94F51F86E0F60167
:1044200011928A95E9F71BC0EE2009F487CF4D87DA
:104430005E878D859E850E94F01FF82E882309F4E3
:104440007DCF86E0F801A1E1B2E001900D928A955E
:10445000E1F781E192E00E94F51C0E9443200E9456
:10446000352022C04D875E878D859E850E945B2505
:10447000292F22952F70223028F49F7039F0811156
:1044800005C00BC0243028F49F7049F4805E88304A
:1044900020F0C8010E948A1F9F2CF92C05C0F8014A
:1044A0009581907F99F7F9CF8F2D61960FB6F8948B
:1044B000DEBF0FBECDBFDF91CF911F910F91FF9057
:1044C000EF90DF90CF90BF90AF909F9008951F9393
:1044D000CF93DF93CDB7DEB72C970FB6F894DEBF3E
:1044E0000FBECDBF4F83588769877A878B879C879C
:1044F000CE0107960E94AF208823D1F09F81888546
:104500002A853B85232B31F08F3F31F481E09F3F9B
:1045100019F403C081E001C080E080FD47C04F81F5
:10452000588569857A858B859C850E9404203EC0CC
:1045300086E0FE013796DE01119601900D928A9574
:10454000E1F7FF81E8856A857B856115710531F0AA
:10455000EF3F31F481E0FF3F19F403C081E001C077
:1045600080E080FD23C02091E00130E0C901019688
:10457000877099274091DF0150E084179507F1F18A
:10458000F983EA837D836C8396E0929FD001939FA9
:10459000B00D1124AF51BE4FFE01319601900D9226
:1045A0009A95E1F78093E0010E94142016E0809133
:1045B000DF019091E001891771F1189FC00111246A
:1045C0008F519E4F0E94AF20882329F1E091DF0197
:1045D0001E9FF0011124EF51FE4F408151816281F5
:1045E0007381848195810E9404208091DF0190E095
:1045F0000196877099278093DF01D9CF0E94C81F49
:104600001092E0011092DF01E1E1F2E086E0DF01CB
:104610001D928A95E9F72C960FB6F894DEBF0FBE6F
:10462000CDBFDF91CF911F910895EF92FF920F932D
:104630001F93CF93DF938C01892B09F46CC0F12C6D
:10464000EE24E394E8012196F8018491843740F444
:10465000843008F051C0813081F0823019F15BC0A4
:10466000853709F444C0A8F19CE7980F903708F00B
:1046700052C08F770E942E1D41C00E5F1F4FFE015A
:10468000849190E2980F983050F48770FE2D01C00D
:10469000FF0F8A95EAF78F2F0E94BD2514C00E9454
:1046A000FB1C2DC00E5F1F4FFE01849190E2980FFE
:1046B000983060F48770FE2D01C0FF0F8A95EAF7ED
:1046C0008F2F0E94C3250E94E82519C00E942E1D2D
:1046D00016C00E5F1F4FFE01C491CC2381F08FE9FD
:1046E0009FE00197F1F700C00000C150F6CF0E5FC8
:1046F0001F4FFE01F49003C00E94FB1C8E018F2D02
:10470000882309F49FCFEFE9FFE03197F1F700C06C
:1047100000008150F5CFDF91CF911F910F91FF9055
:10472000EF900895089508950C9493230C94942386
:104730000E949623609348027093490280934A0234
:1047400090934B020C94BA1F0C9498230F931F93D1
:10475000009148021091490220914A0230914B0287
:10476000602B712B822B932B1F910F910C9498230C
:104770000F931F93009148021091490220914A0221
:1047800030914B0260237123822393231F910F9159
:104790000C9498230F931F930091480210914902A3
:1047A00020914A0230914B0260277127822793277C
:1047B0001F910F910C9498230C9493230E94DC2357
:1047C000609344027093450280934602909347029F
:1047D0000C94BA1F60E070E0CB010C94DE236115ED
:1047E00071058105910529F481E0442361F080E0A1
:1047F0000895DC01CB0104C0B695A79597958795E0
:104800004A95D2F781700895482F609144027091C3
:10481000450280914602909147020C94EF230F933A
:104820001F9341E050E060E070E08A019B0104C00A
:10483000000F111F221F331F8A95D2F7C901B8013B
:104840001F910F910C94DE230F931F9341E050E0D2
:1048500060E070E004C0440F551F661F771F8A9503
:10486000D2F78091440290914502A0914602B09106
:1048700047028A019B01082B192B2A2B3B2BC901CC
:10488000B8011F910F910C94DE230F931F9341E009
:1048900050E060E070E004C0440F551F661F771FB2
:1048A0008A95D2F740955095609570958091440215
:1048B00090914502A0914602B09147028A019B0166
:1048C000082319232A233B23C901B8011F910F9103
:1048D0000C94DE230F931F9341E050E060E070E002
:1048E00004C0440F551F661F771F8A95D2F7809129
:1048F000440290914502A0914602B09147028A017C
:104900009B01082719272A273B27C901B8011F91B6
:104910000F910C94DE230F931F930091440210918A
:1049200045022091460230914702602B712B822B69
:10493000932B1F910F910C94DE230F931F930091E3
:1049400044021091450220914602309147026023B3
:104950007123822393231F910F910C94DE230F93D5
:104960001F9300914402109145022091460230911C
:10497000470260277127822793271F910F910C947C
:10498000DE23089527E0929F800D1124E82FE695FD
:10499000E695E695877051E001C0550F8A95EAF7D4
:1049A00085E0E89FF0011124E95EFD4F20E030E052
:1049B00070E04081CB01022E02C0969587950A9443
:1049C000E2F78170819584278523842781932F5F67
:1049D0003F4F2530310569F7089527E0929F800DFC
:1049E0001124682F669566956695982F977085E0D7
:1049F000689FB001112440E050E080E0FB01E40F2B
:104A0000F51FE95EFD4F208130E0092E02C036958A
:104A100027950A94E2F721703327042E01C0220F54
:104A20000A94EAF7822B4F5F5F4F4530510531F70B
:104A30000895BF92CF92DF92EF92FF920F931F9350
:104A4000CF93DF938C01C0904402D0904502E09058
:104A50004602F09047028091480290914902A0914D
:104A60004A02B0914B02C82AD92AEA2AFB2ACFE18E
:104A7000D0E0D701C6010C2E04C0B695A795979536
:104A800087950A94D2F780FD04C0219790F7B12C46
:104A900007C0BC2EB8018C2F0E940E120197A9F3FB
:104AA0008B2DDF91CF911F910F91FF90EF90DF90B1
:104AB000CF90BF900895CF93DF93EC010E9419250A
:104AC000BE010E940E12DF91CF9108951F93CF93E4
:104AD000DF93EB019091DE01992321F0CB010E943D
:104AE0005B2513C0882349F0CB010E941925182F9C
:104AF000682FCE010E94C22404C0CB010E94ED2485
:104B0000182FBE01812F0E940E12DF91CF911F91AD
:104B1000089580914C02859585958595089580919D
:104B20004C028770089590914C02977081E009F4CF
:104B300080E0089580915802089590915802892B41
:104B4000809358020895809590915802892380930C
:104B50005802089510925802089590915702892B97
:104B600080935702089580959091570289238093EE
:104B70005702089510925702089590915602892B7A
:104B800080935602089580959091560289238093D0
:104B90005602089510925602089580914D0208958C
:104BA00008950C94D0250C94D12590914D0298171E
:104BB00021F080934D020C94D325089580914D02ED
:104BC000882329F010924D0280E00C94D32508959B
:104BD000E0912F01F0913001809158028083E091A3
:104BE0002F01F0913001908180915702892B8083B1
:104BF000E0912F01F0913001908180915602892B34
:104C0000808380914D02882381F0E0912F01F09103
:104C100030019081892B808380912F019091300108
:104C20000E94F72681110E94DE2580912F0190912C
:104C300030010C94D61B0C94D02598E0899F9001EC
:104C40001124262B20934C020E94242480914C0294
:104C50008595859585950C941B2610924C0280E0D5
:104C60000C941B2620914C028095822380934C0249
:104C7000982F977079F430E0482F082E000C550BD0
:104C80002417350739F08595859585950E9445242B
:104C90000C942D26089580E090E00E94EA3121E0F6
:104CA0008C3E9E4F09F020E0822F089582E090E034
:104CB0000C94DC3183E090E00C94DC31682F83E0CD
:104CC00090E00C94F031CF9384E090E00E94DC31CE
:104CD000C82F81E290E00E94DC312C2F30E0A90146
:104CE000582BCA01CF910895CF93C92F682F84E024
:104CF00090E00E94F0316C2F81E290E0CF910C9413
:104D0000F031AB01BC018FE090E00C940232AB01BA
:104D1000BC0183E190E00C94023260E070E0CB01D2
:104D20000C94872660E070E0CB010E9481260C94F1
:104D30008D266CEE7EEF80E090E00E940E3260E007
:104D400082E090E00E94F03160E083E090E00E9419
:104D5000F031109248021092490210924A021092C9
:104D60004B0260E084E090E00E94F03160E081E27C
:104D700090E00E94F03160E085E090E00E94F03128
:104D800060E086E090E00E94F0316FEF87E090E015
:104D90000E94F03140E050E0BA0188E090E00E94CB
:104DA000023260E08DE090E00E94F03140E050E09F
:104DB000BA0188E190E00E94023260E087E190E071
:104DC0000E94F03140E050E0BA018CE190E00E9496
:104DD000023260E080E290E00E94F0310C94922672
:104DE0000C949926682F8EE090E00C94F031FC0131
:104DF000329697E080E0915029F021912223D9F357
:104E00008F5FF9CF0895662349F0FC01329608962A
:104E10002191621729F0E817F907D1F780E008958A
:104E200081E008959C01FC0132969FEF80E0419162
:104E3000461789F09F3F19F4411101C0982F8F5FE9
:104E40008630A9F79F3F39F0F901E90FF11D97FD71
:104E5000FA956283089508959C012A5F3F4FFC01F3
:104E60004281461301C01282019682179307B9F757
:104E700008950C9412270C942C27029626E0FC012E
:104E800011922A95E9F7089508950C9444270C94FB
:104E90004427CF930E9447270E94270A0E94452754
:104EA000C0E08C2F0E94870A811104C0CF5FCA30F6
:104EB000C1F701C081E0CF9108950C9444270C9470
:104EC0005D270E945F278091F002843049F11092A3
:104ED0005A0220E488E190E00FB6F894A8958093F8
:104EE00060000FBE2093600080E00E9493110E943A
:104EF0005F2783B7817F846083BF83B7816083BF6F
:104F00007894889583B78E7F83BF0FB6F894A89561
:104F100080916000886180936000109260000FBEF5
:104F200008950C9444270E94C81F0E94CA1B0E9427
:104F300093110C9491271F920F920FB60F92112488
:104F40008F939F93AF93BF9380915A02811113C0A7
:104F50008091E6029091E702A091E802B091E90207
:104F60004196A11DB11D8093E6029093E702A093A4
:104F7000E802B093E902BF91AF919F918F910F909A
:104F80000FBE0F901F90189582E084BD93E095BDF1
:104F90009AEF97BD80936E0008952FB7F894809193
:104FA000E6029091E702A091E802B091E9022FBFDA
:104FB00008959C014FB7F8948091E6029091E70222
:104FC000A091E802B091E9024FBF821B930B0895B4
:104FD00078941F920F920FB60F9211248F939F9384
:104FE000AF93BF938091E6029091E702A091E8020F
:104FF000B091E9020196A11DB11D8093E602909344
:10500000E702A093E802B093E902BF91AF919F91AC
:105010008F910F900FBE0F901F90189587E797E71D
:1050200090930108809300089AE088E10FB6F89405
:10503000A895809360000FBE90936000FFCF0E9400
:105040004B26811102C00E94F0260E9456268093B2
:1050500059020E9463269093EB028093EA020E9419
:105060005A26682F70E080E090E00C94A423809191
:105070006302089508950895CF93DF93EC010E9491
:10508000DC29823011F0843039F581E08093E90029
:105090008FEF9091E800815095FD06C095ED9A95AF
:1050A000F1F700008111F5CF8091E80085FF14C071
:1050B00040E050E068E070E0CE010E94F929809164
:1050C000E8008E778093E80088E0FE01ABE5B2E06F
:1050D00001900D928A95E1F7DF91CF91089508959F
:1050E0008091EF02811109C00E948A2B0E94E72B58
:1050F0008091E20084608093E20008951092EF02B4
:105100000895089508950C94932742E061EC81E09E
:105110000C94032B8091F202833009F460C030F4C8
:10512000813071F0823009F499C008958A3009F411
:1051300085C08B3009F46BC0893009F0A7C020C04E
:105140008091F102813A09F0A1C08091E800877F47
:105150008093E8008091F5029091F602892B21F46A
:1051600068E08BE592E003C060E080E090E070E0F2
:105170000E94442A8091E8008B778093E80008958C
:105180008091F102813209F081C08091F502909105
:10519000F602892B09F07AC08091E800877F80931E
:1051A000E8008091E80082FD05C08091F002811145
:1051B000F8CF6CC02091F3008091F20090E0922B28
:1051C000029729F48091F1008B7F813021F4809146
:1051D000F100809363028091E8008B7753C0809147
:1051E000F102813A09F052C08091F5029091F602E5
:1051F000892B09F04BC08091E800877F8093E800FD
:105200008091E80080FFFCCF80913B0136C0809107
:10521000F1028132D9F58091F5029091F602892B45
:10522000A9F58091E800877F8093E8000E94382BE1
:105230008091F30280933B010C94C81F8091F1028E
:10524000813221F58091E800877F8093E8000E94F9
:10525000382B8091F4028093640208958091F102CA
:10526000813AA1F48091E800877F8093E8008091E3
:10527000E80080FFFCCF809164028093F100809170
:10528000E8008E778093E8000C94382B089584B75B
:10529000877F84BF0FB6F894A895809160008861DD
:1052A00080936000109260000FBE90E080E80FB61F
:1052B000F89480936100909361000FBE0E941B1CC4
:1052C0000E948A2B0E94E72B8091E20084608093E9
:1052D000E20078940E947C2E0E94251C81E391E0DC
:1052E0000E94C51B8091F002853069F40E946127FD
:1052F0008091EE028823B1F30E944927882391F31D
:105300000E94E329EFCF0E942F1CECCF0C94882938
:10531000292F332723303105C1F058F421303105CE
:1053200079F022303105C1F582E290E02DE43DE0D4
:1053300037C02132310511F12232310531F12CC053
:1053400082E190E02FE63DE02BC099278130910566
:1053500061F040F08230910559F00397E9F4E5E1FE
:10536000FDE008C0E9E4FDE005C0E3E3FDE002C0C4
:10537000EBE1FDE0849190E09F0112C0672B61F4A6
:1053800089E090E02FE53DE00BC0672B29F480E435
:1053900090E021E83DE004C080E090E020E030E0D3
:1053A000FA013183208308958091F002843011F056
:1053B00081E0089582E0089580916502811102C024
:1053C0000C94D429089580E189BD82E189BD09B496
:1053D00000FEFDCF8091D8008F7D8093D800809112
:1053E000E00082608093E0008091E00081FDFCCFCE
:1053F0000895CF92DF92EF92FF920F931F93CF9376
:10540000DF93EC018B017A010E94572B811133C08D
:10541000E114F10439F0F70180819181081B190B27
:10542000C80FD91FC12CD12C0115110519F180917C
:10543000E80085FD16C08091E8008E778093E80033
:10544000E114F10449F0F70180819181C80ED91E61
:10545000D182C08285E00FC00E94572B882321F3A0
:105460000AC089918093F10001501109FFEFCF1A12
:10547000DF0ADACF80E0DF91CF911F910F91FF908B
:10548000EF90DF90CF9008952091F7023091F802CD
:105490002617370748F06115710539F42091E800A7
:1054A0002E772093E80001C0B901FC0120E06115CE
:1054B000710579F18091F0028823F1F18530F1F1E5
:1054C0008091E80083FD3CC08091E80082FD2EC001
:1054D0008091E80080FFEBCF2091F3008091F200F3
:1054E00090E0922B6115710551F08830910538F4E8
:1054F00021912093F100615071090196F3CF21E0D1
:10550000089709F020E08091E8008E778093E8000A
:10551000CECF2111CFCF0AC08091F002882361F055
:10552000853061F08091E80083FD0AC08091E80039
:1055300082FFF2CF80E0089582E0089583E008952D
:1055400081E008952091F7023091F802261737077D
:1055500048F06115710539F42091E8002E77209309
:10556000E80001C0B901FC0120E06115710591F16D
:105570008091F002882309F440C0853009F43FC0CF
:105580008091E80083FD3DC08091E80082FD2FC03E
:105590008091E80080FFE9CF2091F3008091F20034
:1055A00090E0922B6115710559F08830910540F417
:1055B00024912093F1003196615071090196F2CF48
:1055C00021E0089709F020E08091E8008E77809331
:1055D000E800CBCF2111CCCF0AC08091F002882304
:1055E00061F0853061F08091E80083FD0AC0809110
:1055F000E80082FFF2CF80E0089582E0089583E022
:10560000089581E00895982F973068F59093E90008
:10561000981739F07091EC002091ED005091F00056
:1056200003C0242F762F50E021FD02C09F5FECCFF6
:105630003091EB003E7F3093EB003091ED003D7FE9
:105640003093ED003091EB0031603093EB007093BC
:10565000EC002093ED005093F0002091EE0027FD28
:10566000E5CF80E008958F708093E90081E0089590
:105670008091F10287FF11C08091E80082FD05C092
:105680008091F0028111F8CF11C08091E8008B77F2
:105690000BC08091F002882349F08091E80080FFE0
:1056A000F8CF8091E8008E778093E80008952091EC
:1056B000E4003091E50095E64091EC00842F817084
:1056C00040FF23C08091E80080FD1DC08091F00262
:1056D000882399F0853099F08091EB0085FD11C009
:1056E0004091E4005091E5002417350729F39150CB
:1056F00011F09A01E1CF84E0089582E0089583E0FB
:10570000089581E0089580E008954091E80042FF07
:10571000DDCF08950E94F82B0E94002CE0EEF0E00F
:10572000808181608083E8EDF0E080818F778083E5
:1057300019BCA7EDB0E08C918E7F8C9380818F7E19
:1057400080831092EF0208950F931F93CF93DF93FE
:105750000E94F82B0E94002CC8EDD0E088818F7742
:10576000888388818068888388818F7D888319BC3D
:105770001092F0021092EC021092EE021092ED02E2
:1057800000EE10E0F80180818B7F8083888181604A
:10579000888342E060E080E00E94032BE1EEF0E0CD
:1057A00080818E7F8083E2EEF0E080818160808363
:1057B000808188608083F80180818E7F80838881EA
:1057C00080618883DF91CF911F910F910895E8ED5B
:1057D000F0E080818F7E8083E7EDF0E08081816062
:1057E000808384E082BF81E08093EF020C94A42B3D
:1057F000E8EDF0E080818E7F80831092E2000895D2
:105800001092DA001092E10008951F920F920FB6E5
:105810000F9211242F933F934F935F936F937F9336
:105820008F939F93AF93BF93EF93FF938091E1008A
:1058300082FF0BC08091E20082FF07C08091E100EF
:105840008B7F8093E1000E947B2E8091DA0080FFA5
:105850001FC08091D80080FF1BC08091DA008E7F2E
:105860008093DA008091D90080FF0DC080E189BD6E
:1058700082E189BD09B400FEFDCF81E08093F00292
:105880000E94702805C019BC1092F0020E947E2868
:105890008091E10080FF19C08091E20080FF15C077
:1058A0008091E2008E7F8093E2008091E20080612F
:1058B0008093E2008091D80080628093D80019BC68
:1058C00085E08093F0020E9482288091E10084FFAD
:1058D00030C08091E20084FF2CC080E189BD82E16C
:1058E00089BD09B400FEFDCF8091D8008F7D8093E3
:1058F000D8008091E1008F7E8093E1008091E200EA
:105900008F7E8093E2008091E20081608093E200CC
:105910008091EC02882311F084E007C08091E300BD
:1059200087FD02C081E001C083E08093F0020E9405
:1059300083288091E10083FF29C08091E20083FFEA
:1059400025C08091E100877F8093E10082E0809311
:10595000F0021092EC028091E1008E7F8093E100D2
:105960008091E2008E7F8093E2008091E20080616E
:105970008093E20042E060E080E00E94032B80918F
:10598000F00088608093F0000E948128FF91EF91E1
:10599000BF91AF919F918F917F916F915F914F9147
:1059A0003F912F910F900FBE0F901F9018951F924F
:1059B0000F920FB60F9211242F933F934F935F9343
:1059C0006F937F938F939F93AF93BF93CF93DF9307
:1059D000EF93FF93C091E900CF708091EC00D82F36
:1059E000D17080FDD0E81092E9008091F000877FAF
:1059F0008093F00078940E941B2D1092E900809112
:105A0000F00088608093F000CD2BCF70C093E90048
:105A1000FF91EF91DF91CF91BF91AF919F918F91C6
:105A20007F916F915F914F913F912F910F900FBE9A
:105A30000F901F9018951F93CF93DF93CDB7DEB7CC
:105A4000AA970FB6F894DEBF0FBECDBFE1EFF2E02C
:105A50008091F100819322E0E93FF207C9F70E94AB
:105A60008A288091E80083FF2EC18091F1029091F5
:105A7000F202492F50E04A30510508F024C1FA01E2
:105A8000E857FF4F0C94D92E803821F0823809F066
:105A90001AC108C08091ED029091EE02992389F01D
:105AA00082600FC08091F5028F70873008F00BC1C3
:105AB0008093E9008091EB0085FB882780F91092A4
:105AC000E9009091E800977F9093E8008093F100BF
:105AD0001092F100D1C0282F2D7F09F0F4C0882347
