:100000000C9455040C94650C0C949C040C949C0466
:100010000C949C040C949C040C949C040C949C04E0
:100020000C949C040C949C040C9474230C9446240F
:100030000C94CE190C949C040C949C040C949C0479
:100040000C949C040C949C040C949C040C949C04B0
:100050000C949C040C941B1A0C949C040C949C040B
:100060000C949C040C949C040C949C040C949C0490
:100070000C949C040C949C040C949C040C949C0480
:100080000C949C040C949C040C949C040C949C0470
:100090000C949C040C949C040C949C040C949C0460
:1000A0000C949C040C949C040C949C04B30FB30F0C
:1000B000E50FE50F32105010711171115B10F01047
:1000C000011101116111711171116A1111121112D5
:1000D000231223121A1223122312231211121112A5
:1000E0001F12231223121F12B324DA24D225DA247A
:1000F000D22526254925D225A025AF252B00140081
:100100001A00080015001700E000040016000700A0
:1001100009000A00E1001D001B000600190005008F
:100120001051E000E200E300025101512A001300E7
:1001300012000C0018001C00340033000F000E00E9
:100140000D000B00280038003700360010001100A9
:100150004F00520051004C0028002C0035021E02B6
:100160001F022002210222023A003B003C003D0017
:100170003E003F0040004100420043004400450073
:100180000100010001000100010001004C002702F4
:100190002602250224022302350230002F002E0001
:1001A0002D003100350030022F022E022D023102C7
:1001B000AE00A900AA00AB000100010035001E003E
:1001C0001F0020002100220001004A004E004B00C9
:1001D0004D000100010001000100010001000100CB
:1001E0000100010001000100010001004C00270096
:1001F0002600250024002300010001004F005200CA
:1002000051005000010001000100640032000100B3
:10021000AE00A900AA00AB00010001000000000030
:1002200000000000000000000000000000000000CE
:1002300000000000000000000000000000000000BE
:1002400000000000000000000000000000000000AE
:10025000000000000000000000000000000000009E
:1006F0000000000000000000000000000100005C9D
:1007000001000100010001000100010001001D5C69
:100710001E5C135C010001000100010001000100EA
:100720000100010001000100010001004C00010076
:100730000100010001000100010001000A5D095DE6
:10074000085D0A5C010001000100010001000100D8
:10075000010001000100010001000100040330005C
:1007600000001C034C00650074007300200053005F
:1007700070006C00690074002000760032000000F8
:10078000160357006F006F00740070006100740062
:100790006F006F00740000000403090409023B00AD
:1007A000020100A0FA09040000010301010009216F
:1007B000110100012240000705810308000A090415
:1007C0000100010300000009211101000122810044
:1007D0000705820320000A120110010000000877BB
:1007E0006F020002000102030105010902A1018557
:1007F000020901A100050919012905150025019526
:100800000575018102950175038101050109300912
:10081000311581257F9502750881060938158125D6
:100820007F950175088106050C0A38021581257F20
:10083000950175088106C0C005010980A1018503E5
:1008400019012AB700150126B7009501751081001E
:10085000C0050C0901A101850419012AA002150196
:1008600026A002950175108100C005010906A101AD
:10087000050719E029E71500250195087501810292
:100880009501750881010507190029FF150026FF4C
:10089000009506750881000508190129059505755B
:1008A000019102950175039101C011241FBECFEF84
:1008B000DAE0DEBFCDBF04B603FE27C0809165023B
:1008C00090916602A0916702B09168028730904BC8
:1008D000A740B04BD1F410926502109266021092BC
:1008E00067021092680214BE84B7877F84BF0FB678
:1008F000F894A895809160008861809360001092C0
:1009000060000FBEE0E0F8E3099511E0A0E0B1E07F
:10091000E0EFFCE402C005900D92A839B107D9F7C9
:1009200022E0A8E9B1E001C01D92A536B207E1F7C7
:100930000E94A3200C9476260C9400000C94F107DE
:100940000F9300E122E041E00E9418050F91089505
:1009500088309D4549F4FB018281882331F080E095
:100960000E94040580E0089581E0089581E00895E3
:100970000C94A80408950C94BA041F93CF93DF93AA
:1009800000D000D01F92CDB7DEB749835A836B8366
:100990003091B70189819A81311114C0662359F0D1
:1009A000222349F00E944C17182F682F89819A81C1
:1009B0000E94F31603C00E941F17182F69817A81C5
:1009C000812F04C00E944C1769817A810F900F908B
:1009D0000F900F900F90DF91CF911F910C94D7053E
:1009E000FC01262F408151816281738184810C94A6
:1009F000BD04CF93DF93EC0160E00E94F004BE01E0
:100A0000DF91CF910C94BB04CF93DF9361E070E052
:100A1000EB0102C0CC0FDD1F8A95E2F78C2F0E94FC
:100A20009118BE0180E090E0DF91CF910C94F51514
:100A30008F929F92AF92BF92CF92DF92EF92FF92EE
:100A40000F931F936B017C0181E090E0A0E0B0E088
:100A50004C015D0104C0880C991CAA1CBB1C4A9562
:100A6000D2F7AC01BD0104C0440F551F661F771FAC
:100A70002A95D2F7482959296A297B2904C0880F69
:100A8000991FAA1FBB1F0A95D2F78A019B010C214F
:100A90001D212E213F21401751076207730739F4AA
:100AA000BC01CD016C297D298E299F290AC0809522
:100AB0009095A095B095BC01CD016C217D218E2132
:100AC0009F211F910F91FF90EF90DF90CF90BF90EB
:100AD000AF909F908F9008950E947E18811102C060
:100AE0000E9423190C949E040C94EF0708950C9413
:100AF000760581E008950C947905CF93C82F0E9464
:100B000077058C2F0E947B05CF91089508950E9450
:100B1000FF110E9486052FEF84E39CE02150804066
:100B20009040E1F700C000000C94411A0F931F930E
:100B3000CF93DF93EC0161E00E94F0048C01BE01D1
:100B40000E94B804882349F1BE01C8010E941F0A0F
:100B5000882319F1BE01C8010E94600A8823E9F0C8
:100B6000BE01C8010E948B0B8823B9F08A818823BB
:100B700069F001158CE5180731F00E3D1C4531F484
:100B80000E9423190AC00E94870507C0CE01DF9189
:100B9000CF911F910F910C94B60480E0DF91CF911B
:100BA0001F910F91089580E090E00895089520E34B
:100BB000829FC0011124FC0126E0729FE00DF11D0F
:100BC0001124E60FF11DEE0FFF1FE450FF4F85913A
:100BD00094910895880F991FFC01E45AF84F85916C
:100BE00094910895CF93DF930E94D7050E940A073E
:100BF000EC018115904508F041C0C11580E4D8078B
:100C000008F0D1C0C83ED10510F5C03ED10508F0AE
:100C1000FDC0C83AD10578F4C53AD10508F0A2C0A4
:100C2000C130D10509F4F2C008F4EEC0C430D105DA
:100C300008F0ECC0E9C0CF3BD10508F49BC0C03C34
:100C4000D10508F4E1C0CE01805C91099EC0C115B8
:100C500090E2D90758F4C11521E0D20708F0D6C0B8
:100C6000C03FD10508F4D0C0D065D0C0C11580E325
:100C7000D80708F08EC0CE019F7087C0C11595E5DA
:100C8000D90708F043C0C11524E5D20708F0A2C077
:100C9000C11582E5D80708F5C11591E5D90708F017
:100CA00085C0CE0174E0969587957A95E1F78370BB
:100CB0009C2F937021E030E002C0220F331F9A95E1
:100CC000E2F73C68382BCF70C695C69580E2C89F86
:100CD000E0011124C22BD32B99C09E01237033272E
:100CE0008C2F86958695C115D34508F064C0C1E068
:100CF000D0E002C0CC0FDD1F2A95E2F720E2829FF0
:100D0000C0011124C82BD92BDC6880C0C11529E58E
:100D1000D207A0F4C11588E5D80708F060C0C11556
:100D200096E5D90708F070C08C2F0E949E078F713E
:100D3000C82FD0E0DC2FCC27D06268C0C1152AE5CF
:100D4000D20708F451C0CE0190568115904208F0A8
:100D50005BC08D2F8F710E949E07DD27D0628F713F
:100D6000D82B54C0C55AD0E0C45BDE4FC881D0E058
:100D7000D0644CC0C85AD0E0CC0FDD1FC25EDE4F3D
:100D80000990D881C02DD46441C00E94EA05EC01CD
:100D90003DC0CE019927D3FF03C0EC01D86C36C00B
:100DA000EC01D06C33C0DF70D06A30C0DC2FCC27B0
:100DB000C16FD06A2BC0C1E0D0E002C0CC0FDD1FF4
:100DC0002A95E2F720E2829FC0011124C82BD92B7B
:100DD000DA681CC0DC2FCC27C46FD06A17C0DC2FA8
:100DE000CC27C06FD06A12C08C2F8F700E949E07D4
:100DF00094E0D695C7959A95E1F7CF70D0E0DC2FB7
:100E0000CC27D069C82B02C0C0E0D0E0CE01DF9172
:100E1000CF9108958238910569F1B0F4813391053D
:100E200009F46DC048F48932910509F463C08A322F
:100E3000910509F469C008958533910509F455C0F9
:100E400089339105B9F00895833E910569F138F42D
:100E5000803E9105B1F0823E910509F10895863EEC
:100E60009105A9F1873E9105B9F1843E910509F0FC
:100E700064C023C02091560220FD4FC021FD4DC00B
:100E800008958091560280FD44C08091570280FFF2
:100E900044C08091560284FD42C083EE4DC08091D3
:100EA000560282FF38C0F5CF8091560282FD33C0D2
:100EB0008091570280FD31C0ECCF8091570281FFB5
:100EC00032C08091560284FD2AC087EE35C08091E1
:100ED000560283FF26C0F5CF8091560283FD21C0C4
:100EE0008091570281FD1FC0ECCF8091560285FD95
:100EF0001CC01DC08091560285FD19C016C080918E
:100F0000560286FD16C017C08091560286FD13C09A
:100F100010C089E311C082EE0FC080EE0DC080E0EA
:100F20000BC086EE09C084EE07C089E205C085E3E8
:100F300003C08AE201C081E390E0089590915602D7
:100F400092FF0DC0282F2871283019F4877F846004
:100F500006C0282F2471243011F48B7F886093FF02
:100F60000DC0282F2871283119F4877E846106C0AE
:100F7000282F2471243111F48B7E8861209157022F
:100F800020FF0DC0382F3871383019F4877F816009
:100F900006C0382F3171313011F48E7F886021FF07
:100FA0000DC0282F2871283119F4877E816106C071
:100FB000282F2171213111F48E7E886194FD877E66
:100FC0000895E82FF0E0E85BFD4F808108950895D3
:100FD00080EA8A95F1F7089508950C94EC070C9433
:100FE000ED070C94EC070895CF93DF930E946409FA
:100FF0008091000180910001811102C094E001C044
:1010000090E09093510284E0891B80935002A5E503
:10101000B1E049E551E061E070E08D91E82FE295A3
:10102000EF70F0E021A18F70EB0102C0CC0FDD1F4B
:101030008A95E2F7CE019C2F9095922391A392A1DD
:10104000892B82A34A175B0741F7AFE4B1E045E57E
:1010500051E061E070E08D91E82FE295EF70F0E0F3
:1010600021A18F70EB0102C0CC0FDD1F8A95E2F742
:10107000CE019C2F9095922391A392A1892B82A3BC
:101080004A175B0741F7E0E4F2E0A8E4B2E088E445
:1010900092E011921D928E179F07D9F784E00E946B
:1010A0000B090E946C05DF91CF910C946E090E9490
:1010B00042098823F1F08091500290E0885B9D4FB7
:1010C0000E948109811111C0809198018F5F8093E6
:1010D0009801863060F0E0915002F0E0E85BFD4F4F
:1010E000108211821282138202C0109298010C9415
:1010F00074058091510290E0885B9D4F0E949C098D
:101100000C94F3076F927F928F929F92AF92BF924F
:10111000CF92DF92EF92FF920F931F93CF93DF93C3
:1011200085E5882E81E0982E00E412E094E4A92E53
:1011300092E0B92E712CCC24C394D12CF40181916E
:101140004F01C82FC295CF70D0E099A18F70760162
:1011500001C0EE0C8A95EAF7892F8E2989A38AA10E
:101160006E2C609486218AA30E94E807EFE4F1E0E8
:1011700040E050E020E03191A32FA295AF70B0E0A5
:1011800090968C9190E03F7002C0959587953A9526
:10119000E2F780FD07C08C2D042E01C0880F0A9451
:1011A000EAF701C080E0282B4F5F5F4F46305105C2
:1011B00011F789A1682269A28AA1E82AEAA2F801A6
:1011C0008081281719F0208381E001C080E0782A0F
:1011D0000F5F1F4FA016B10609F0B0CF609151020A
:1011E00070E0685B7D4F272D44E080E492E00E9430
:1011F0000C090E945708872DDF91CF911F910F9105
:10120000FF90EF90DF90CF90BF90AF909F908F9026
:101210007F906F9008950895FF920F931F93CF933F
:10122000DF938C01F62ED72FC42F222349F081E0C3
:1012300080939B010E94001A90939A0180939901D8
:1012400080919B018823C1F08091990190919A012E
:101250000E940C1A069780F0EF2DFD2FD8014C2F1D
:1012600050E0CD01801B910B841795071CF48D91E4
:101270008193F7CF10929B01DF91CF911F910F9136
:10128000FF90089580919C01811112C08091D80037
:1012900080618093D8008AE18A95F1F700C080913F
:1012A000D90080FD02C082E001C081E080939C01F2
:1012B00081E090919C01913009F080E008950E94B6
:1012C000420991E0892708950E945F0980930001F7
:1012D0000E94420981110C94750908950E944209E7
:1012E000811102C00C947B09089561E070E081E0F7
:1012F00091E00C94170C61E070E081E091E00C94B7
:101300001E0CCF93DF93D82FC92F0E94B60C892BC8
:1013100079F4ED2FFC2F80E090E0DC01A256BE4F67
:101320002C912193019684309105B9F781E001C099
:1013300080E0DF91CF91089520E030E0FC01419101
:10134000CF01F901E256FE4F40832F5F3F4F24301B
:101350003105A1F708950F931F93CF93DF93C62F05
:10136000D42F122FFC0182818823C9F06093A4013D
:101370000E94001A9093A3018093A20180E28C0F37
:10138000883008F057C0C77081E001C0880FCA9547
:10139000EAF7DF91CF911F910F910C946F0F80911D
:1013A000A401681330C08091A2019091A3010E9412
:1013B0000C1A883C910538F500E20D0FCD17B9F0F5
:1013C00080E28C0F883040F4C77081E001C0880F44
:1013D000CA95EAF70E94760F083028F581E09D2F24
:1013E000977001C0880F9A95EAF70E946F0F812FBE
:1013F0000E945C0F0830F0F4D77081E001C0880FC4
:10140000DA95EAF70AC080E28C0F883098F4C7704A
:1014100081E001C0880FCA95EAF7DF91CF911F9153
:101420000F910C94760F812FDF91CF911F910F9127
:101430000C945C0FDF91CF911F910F9108959C0147
:10144000CB01233F4CE53407F9F078F4283DFCE567
:101450003F07B9F0293D4CE5340711F1273D3C45E4
:1014600031F526E241EE61EE1EC0253FFCE53F0767
:1014700099F070F0263F3C45D1F427E245EE66EE48
:1014800012C027E245EE0EC026E241EE60EE0BC030
:1014900027E245EE64EE07C026E241EE62EE03C0AD
:1014A00028E241E065EE0E94AB0980E00895FC016E
:1014B0008281882319F01092A401089581E0089593
:1014C000CF93DF93EC01FB018281882309F41FC1D4
:1014D000C230FCE5DF0708F41BC1C6319CE5D90723
:1014E00038F09E012A5F3C452930310508F010C1D3
:1014F0000E9496189093570280935602C031ECE5F3
:10150000DE0709F4C3C008F041C0C8308CE5D80735
:1015100009F49AC0F0F4C430ECE5DE0709F487C0A2
:1015200068F4C2308CE5D80709F477C0C330DC45D5
:1015300009F0E3C080915602826076C0C630ECE5C7
:10154000DE0709F46EC008F07BC080915602886007
:101550006BC0CC308CE5D80709F485C068F4CA307C
:10156000ECE5DE0709F474C008F079C00E94FF11B1
:1015700080915602806858C0CE308CE5D80709F4B7
:1015800076C008F07FC0809156028BC0CB3FECE55F
:10159000DE0709F44FC018F5C3318CE5D80709F40C
:1015A0007DC078F4C131ECE5DE0709F473C0C231C7
:1015B000DC4509F0A2C00E94FF11809156028F778E
:1015C00033C0C5318CE5D80709F472C008F486C071
:1015D000CA3FDC4509F091C0809157023EC0CF3F21
:1015E000FCE5DF0709F45FC058F4CD3F9CE5D9075F
:1015F00009F444C008F43FC08091570282602DC0B6
:10160000C130FDE5DF0709F475C008F45DC0C230E4
:10161000DD4509F072C080E06EC0809156028160A5
:1016200003C08091560280618093560266C080910B
:10163000560211C0809157028260809357025DC0AC
:10164000809156028062F0CF809156028064ECCF88
:101650008091560288608460E7CF8160EECF8091F0
:1016600056028E7FE1CF809156028D7FDDCF809133
:101670005602877FD9CF8091570218C080915702B8
:101680008D7FDBCF809156028F7ECECF8091560228
:101690008F7DCACF809156028F7BC6CF8091560234
:1016A000877F8B7FC1CF809157028D7F8E7FC5CF83
:1016B0008091560282FB222720F991E0922790FB2D
:1016C00082F990FB83F9B0CF80915702982F9095C3
:1016D00091708E7F892B90FB81F9AFCF0E94FF1113
:1016E0008091560287FB222720F991E0922790FBF8
:1016F00087F99ACF81E00E94251980915602909136
:1017000057020E94A7180E94FF1180E001C081E0EB
:10171000DF91CF910895CF93DF9386319C4541F5BA
:10172000EB010E94CD17982F8A81209109013091F9
:101730000A01882379F09A7A81E009F480E08093A5
:10174000A501911102C069E201C065E3C9010E94CF
:101750006C190AC08091A501811102C069E201C023
:1017600065E3C9010E946E190E941B1880E001C048
:1017700081E0DF91CF9108958EE1489B02C08150B6
:10178000E1F7489BFECF0895589880E28A95F1F7DB
:10179000589A0895FC012AE02A95F1F728E090E094
:1017A00080E031E040E14A95F1F7880F489B02C0A4
:1017B0008160932700C0000040E14A95F1F7215075
:1017C00089F720E12A95F1F729B100C0000030E146
:1017D0003A95F1F7217092272081920F9083089516
:1017E000EF92FF920F931F93CF93DF931F92CDB78A
:1017F000DEB719828C017C01E60EF11C0E151F0567
:1018000051F00E94BC0BCE0101960E94CA0BF80158
:1018100081938F01F3CF81E09981911180E00F9046
:10182000DF91CF911F910F91FF90EF9008959093CA
:10183000A7018093A601509A589A08959093A70102
:101840008093A6015098589AE89AE9E6F0E08081E2
:101850008C7F80830895615091E001C0990F6A9553
:10186000EAF720E031E0992361F0492F482319F08D
:10187000589A232701C0589840E24A95F1F7969567
:10188000F2CF222311F0589A01C0589880E28A952D
:10189000F1F758980895FF920F931F93CF93DF931A
:1018A000EC018C01060F111DC017D10741F0F99012
:1018B0000E94C40B68E08F2D0E942B0CF5CFDF91A6
:1018C000CF911F910F91FF9008951F920F920FB625
:1018D0000F9211242F933F934F935F936F937F93B6
:1018E0008F939F93AF93BF93CF93DF93EF93FF9328
:1018F0005898509AC091A601D091A7016D81662396
:1019000021F08E819F810E944B0C0E94C40B80E1CC
:101910008A95F1F758985098589A80E18A95F1F78E
:101920006A81662351F08B819C810E94F00BE881D3
:10193000F981811104C082E003C0E881F98188E067
:1019400080830E94BC0BFF91EF91DF91CF91BF91FB
:10195000AF919F918F917F916F915F914F913F9147
:101960002F910F900FBE0F901F901895CF93DF937C
:10197000C091A601D091A701F894509A589885E09B
:101980008A95F1F700005098589A80E28A95F1F70D
:10199000489B0AC0509A589AE881F98181E0808377
:1019A000789481E090E02CC06D81662381F08E8177
:1019B0009F810E94F00B81110AC0509A589AE881C9
:1019C000F98182E08083789482E090E019C00E94DF
:1019D000BC0B80E28A95F1F75898509A80E18A957D
:1019E000F1F76A81662321F08B819C810E944B0C68
:1019F0000E94C40BE881F9811082789480E090E025
:101A0000DF91CF9108959093AD018093AC0108953B
:101A1000E091AC01F091AD01309721F00190F0819F
:101A2000E02D099480E00895E091AC01F091AD01C2
:101A3000309721F00280F381E02D09940895E09120
:101A4000AC01F091AD01309739F022E0DC012C932C
:101A50000480F581E02D099408952091AA01309128
:101A6000AB012817390771F09093AB018093AA015D
:101A7000E091AC01F091AD01309721F00680F78143
:101A8000E02D099408952091A8013091A90128170B
:101A9000390771F09093A9018093A801E091AC01FE
:101AA000F091AD01309721F00084F185E02D09948B
:101AB000089585B7806885BF85B7806885BF08951C
:101AC00008950C94600D0C94610D0C94600D0C94B1
:101AD000600D0E94590D0E94650D0C94630D0C94CD
:101AE00042090E94F7190E94F4070E94521A0C94AE
:101AF000670DAF92BF92CF92DF92EF92FF920F935A
:101B00001F93CF93DF93CDB7DEB72A970FB6F89424
:101B1000DEBF0FBECDBF0E9482080E946F0D8111F3
:101B200011C08FEF89838A831B820E94001A816013
:101B3000782F9D838C8349815A816B818D810E948E
:101B4000110E40C08FEAA82E81E0B82E00E010E010
:101B5000C02E802F0E94E107E82EF501D1905F0191
:101B6000D82631F40F5F1F4F0830110589F7D9CF00
:101B70008091230281FD0E94E70780E0FF24F39417
:101B80009D2D9F21D1F08E83CF82EF2081E009F43B
:101B900080E088870E94001A8160782F9A87898761
:101BA0004E815F8168858A850E94110EF801E1559A
:101BB000FE4F8081F826F08205C08F5FFF0C8630D3
:101BC000F9F6D0CF0E94E41B0E94080D9091AE015F
:101BD0008917B1F00E94080D8093AE012A960FB6C6
:101BE000F894DEBF0FBECDBFDF91CF911F910F9153
:101BF000FF90EF90DF90CF90BF90AF900C947D0559
:101C00002A960FB6F894DEBF0FBECDBFDF91CF91FD
:101C10001F910F91FF90EF90DF90CF90BF90AF900A
:101C20000895CF93DF93CDB7DEB72B970FB6F89417
:101C3000DEBF0FBECDBF4F83588769877A878B87FA
:101C4000DE01119686E0FD0111928A95E9F785E0A3
:101C5000FE01379601900D928A95E1F749815A81EC
:101C60006B817C818D819E810E94B8142B960FB66A
:101C7000F894DEBF0FBECDBFDF91CF910895FC0178
:101C8000808191810E948E170895CF93882309F453
:101C9000A9C0C82F8238C1F40E94080D81FDA2C0DE
:101CA00069E38091090190910A010E946C190E94D8
:101CB0001B182FEF81EE94E0215080409040E1F717
:101CC00000C0000069E319C0833801F50E94080DC7
:101CD00080FD88C063E58091090190910A010E940E
:101CE0006C190E941B182FEF81EE94E02150804068
:101CF0009040E1F700C0000063E5809109019091F8
:101D00000A010E946E19CF910C941B188438C1F4FB
:101D10000E94080D82FD66C067E4809109019091E0
:101D20000A010E946C190E941B182FEF81EE94E0AB
:101D3000215080409040E1F700C0000067E4DDCF13
:101D40008CEF8C0F813AF8F48C2F0E948C1E81113D
:101D500049C06C2F8091090190910A010E943619A7
:101D6000882349F06C2F8091090190910A010E940B
:101D70006E190E941B186C2F8091090190910A0125
:101D80000E946C19C0CF80E28C0F883048F4C77075
:101D900081E001C0880FCA95EAF70E94D017B3CF3F
:101DA000EBE5EC0FE33040F4F0E0E557FE4F8081C7
:101DB00090E0CF910C942D0DE8E5EC0FE73150F455
:101DC000F0E0EE0FFF1FE35AFE4F80819181CF912B
:101DD0000C94430DC03F30F08C2F0E94EC1ACF9131
:101DE0000C94D91BCF910895882309F464C08238DC
:101DF00079F40E94080D81FF5EC069E380910901BA
:101E000090910A010E946C190E941B1869E310C08E
:101E10008338B1F40E94080D80FF4DC063E58091C6
:101E2000090190910A010E946C190E941B1863E538
:101E30008091090190910A010E946E190C941B185F
:101E4000843879F40E94080D82FF35C067E48091E0
:101E5000090190910A010E946C190E941B1867E405
:101E6000E7CF9CEF980F913A10F4682FE1CF90E202
:101E7000980F983050F4877091E001C0990F8A95BF
:101E8000EAF7892F0E94D617D9CF9BE5980F933098
:101E900020F480E090E00C942D0D98E5980F973198
:101EA00020F480E090E00C94430D803F20F00E94ED
:101EB000541B0C94D91B0895CF93C82F0E94450E34
:101EC000C93349F42FEF87EE93E0215080409040D2
:101ED000E1F700C000008C2FCF910C94F40E882302
:101EE00021F00E94D0170C941B180895882321F02C
:101EF0000E94D6170C941B180895CF92DF92EF9290
:101F0000FF920F931F93CF93DF937C01062FC72F70
:101F1000FC01158112951F70D281D1110E94ED171D
:101F20000E94C617882399F0DD2389F08C2F807FCB
:101F3000803421F080E2800F883048F082E00E94F7
:101F400065180E94C61791E0D82ED92601C0D12C61
:101F5000CC2EC2948FE0C8228C2D90E0FC01EA5A6E
:101F6000FF4F0C941A268C2F807FCF70882311F09E
:101F7000C295C07FDD2399F0CC2309F48DC180E2A6
:101F8000800F883010F0011104C08C2F0E94D017F0
:101F900003C08C2F0E94E0170E941B187DC1802F68
:101FA0000E94F40ECC2309F49CC180E2800F88309B
:101FB00010F0011104C08C2F0E94D61703C08C2F83
:101FC0000E94E6170E941B188CC18C2F807FCF7057
:101FD000803211F0C295C07F002319F00130C9F0A2
:101FE00022C0DD2371F0112341F0113031F40E9441
:101FF00000188C2B0E94081874C10E9400188C2BAA
:102000001DC0112319F0113009F46BC10E94111881
:1020100025C0DD2321F0163008F063C10EC0153055
:1020200008F05FC11BC0DD2361F0112331F0F7011F
:10203000858180FF31C18F7085838C2F0E946F0F47
:1020400050C1112359F0093309F037C1FFEF27EED2
:1020500083E0F15020408040E1F72DC18C2F0E9499
:10206000760F3FC18C2F86958695837019F081304D
:1020700061F037C1DD2321F0802F9C2F937002C0C7
:1020800080E090E00E942D0D34C1DD2321F0802FEF
:102090009C2F937002C080E090E00E94430D29C104
:1020A000802FDD2319F00E94EC1A02C00E94541BFD
:1020B0000E94D91B1EC18C2F837009F045C0D1111D
:1020C00014C1402F429546954770440F440F602F2E
:1020D0006F70862F90E0A0E0B0E0042E04C0880F5F
:1020E000991FAA1FBB1F0A94D2F704FF10C00FE06C
:1020F00010E020E030E004C0000F111F221F331F4A
:102100004A95D2F7009510952095309503C000E0D0
:1021100010E09801C695C695C370BC01CD01602B37
:10212000712B822B932BC23049F058F4C13019F037
:102130000E940916DAC00E94F715D7C00E941B162C
:10214000D4C00E94F515D1C0DD2319F08C2F817009
:1021500001C08695882309F4C8C0402F4295469552
:102160004770440F440F602F6F70862F90E0A0E0FF
:10217000B0E0042E04C0880F991FAA1FBB1F0A9449
:10218000D2F704FF10C00FE010E020E030E004C000
:10219000000F111F221F331F4A95D2F7009510958B
:1021A0002095309503C000E010E09801C695C695D3
:1021B000C370BC01CD01602B712B822B932BC230DD
:1021C00049F058F4C13019F00E94CE168EC00E941A
:1021D000BC168BC00E94E01688C00E942F1685C0D6
:1021E000CF70DD2339F08C2F0E945516802F0E946E
:1021F0006F0F7BC0802F0E94760F8C2F0E94761667
:1022000074C0023F01F128F4003F41F0013FA1F00A
:102210003FC0033FF9F0043F39F13AC0DD2341F0FC
:10222000153008F05EC08C2F8F710E949B1659C02C
:10223000163008F056C0F7CFDD2339F08C2F8F71A0
:102240000E9455164EC0DD23C9F38C2F8F710E945A
:10225000761647C0DD2329F08C2F8F710E9440161F
:1022600040C00E943B163DC0DD2349F0CF718C2F4A
:102270000E94551663E08C2F0E94501832C081E0F6
:102280000E946518123068F182E00E94651829C02A
:10229000DD2331F0112391F2802F0E94450E21C0E1
:1022A000112399F2093349F49FEFE7EEF3E09150DF
:1022B000E040F040E1F700C00000802F0E94F40EE3
:1022C00010C04C2F4F70602FC7010E94D3050E9491
:1022D00066150FC04C2F4F70602FC7010E94D605A6
:1022E00008C088EF8C0D843020F40E94080D0E94F5
:1022F0007D05DD20C9F00E94C21780FD15C0F701E1
:1023000012820E94BC170E945516C7010E94B51187
:102310000E94BC17DF91CF911F910F91FF90EF901A
:10232000DF90CF900C947616DF91CF911F910F9193
:10233000FF90EF90DF90CF9008950F931F93CF936E
:10234000DF93EC01688179818A810E9499178C0161
:102350000E94F2160E94E315B801CE010E947D0F83
:10236000DF91CF911F910F910895CF93DF93EC01EF
:10237000988189812B813C81232B31F08F3F31F46F
:1023800081E09F3F19F403C081E001C080E080FD3F
:1023900019C0CE010E94960581110CC00E94C6177B
:1023A000882381F08A81882369F082E0DF91CF91D0
:1023B0000C946518CE010E949D11CE01DF91CF9142
:1023C0000C94F904DF91CF9108950E94ED170E94BB
:1023D000FD170E941B180E94031D0E94D91B80E05C
:1023E00090E00E942D0D80E090E00C94430D8091D0
:1023F000090190910A010E9470190C94E5110E9444
:10240000DD170C94F711E92FE295EF704E2F50E095
:10241000FA013297EE30F105B0F4EA59FF4F0C940F
:102420001A26803F91F018F4883E68F40EC0843F6D
:1024300051F40BC0883E48F0813F29F406C093FB5D
:10244000882780F9089580E0089581E008950E942A
:102450008E170E9403120895CF93DF9300D000D00F
:102460001F92CDB7DEB70F900F900F900F900F9087
:10247000DF91CF910895CF93DF9300D000D000D0AB
:10248000CDB7DEB726960FB6F894DEBF0FBECDBF30
:10249000DF91CF9108951F93CF93DF93C091B8013F
:1024A00016E08091B901C81799F0D0E01C9FF001A7
:1024B0001D9FF00D1124E654FE4F40815181628131
:1024C0007381848195810E943B122196C770E9CF68
:1024D000DF91CF911F9108954091EA015091EB0156
:1024E0006091EC017091ED018091EE019091EF010E
:1024F0000C943B120F931F93CF93DF938091EF01C6
:1025000082958F7009F05DC08091EC01882309F4F9
:1025100058C08091B8011091B9016091EA017091A1
:10252000EB01C091ED01D091EE0191E06F3F09F018
:1025300090E0292F06E0811709F443C0209721F08D
:102540007F3F21F030E003C031E001C0322F90E046
:1025500030FD34C0089FF001099FF00D1124DF0108
:10256000A654BE4F11963C911197371327C03C914A
:10257000361324C012963C91129731111FC0139646
:102580004D915C9114974C1B5D0B483C5105B0F488
:102590008091EF018F7080618093EF01E154FE4FD5
:1025A00080818F70806180838AEE91E00E94B511F6
:1025B000DF91CF911F910F910C944B120196877070
:1025C000BACFDF91CF911F910F9108959F92AF9253
:1025D000BF92CF92DF92EF92FF920F931F93CF9310
:1025E000DF93CDB7DEB761970FB6F894DEBF0FBEAD
:1025F000CDBF8C0185E0F801DE011D9601900D92A2
:102600008A95E1F7F80140815181E2809091EA01D9
:102610006091EB012091ED013091EE012115310522
:1026200031F06F3F31F481E09F3F19F403C081E046
:1026300001C080E0F82FF1709F2E80FD46C1F801A7
:10264000A380B4808AEEC82E81E0D82EF090EC01F1
:10265000F501E21BF30BFF2009F4DFC08091EF01CD
:10266000E83CF10508F09BC0282F207F09F052C0FC
:10267000561313C0491311C0FE2CE1100EC08F7009
:1026800080618093EF010E946C12C6010E94B51117
:102690008091EF01F801858358C1AB2831F05F3F8D
:1026A00031F481E04F3F19F403C081E001C080E0C4
:1026B00080FD03C081E08E2502C080E090E0F82F0D
:1026C000F170FF2E80FF1CC08091B8012091B901EC
:1026D00036E0821709F417C190E0389FF001399F66
:1026E000F00D1124E654FE4F6181561306C060813F
:1026F000461303C06281E61203C001968770E9CFDA
:10270000FE2CEE2009F421C18091EF0181608093BD
:10271000EF015AC0561306C0491304C0E11002C0AD
:10272000F8019FC04D875E878D859E850E94271288
:10273000882379F1EE2069F12091EF01822F8295B3
:102740008F7090E0029774F08091EA019091EB0114
:1027500098878F831986BB86AA862C87CE01079619
:102760000E94B51186E0F801AAEEB1E001900D9249
:102770008A95E1F70E947A120E946C120DC05617DA
:1027800029F14D875E878D859E850E9427128111D4
:102790002CC0C8010E94B511FF24F394D6C0282F85
:1027A000207F69F77A2DB98AA88A6E2D89890E94BF
:1027B0002C128AEE91E00E94B51186E0F60111928A
:1027C0008A95E9F70E946C12F12CBFC04913D9CF4A
:1027D000E110D7CFF8018583C8010E94B51186E0CA
:1027E000F60111928A95E9F7B0C0EE2091F220919E
:1027F000EF01822F82958F7090E002970CF4B2CF98
:102800008091EA019091EB019A8389831B82BD82BA
:10281000AC822E83CE010196A3CFE83CF10508F0EF
:1028200047C0FE2CEE2009F4B4CF561330C0491334
:102830002EC02091EF0120FD21C0822F82958F7044
:10284000482F50E041155105C9F0F80125834F305C
:10285000510541F08F5F982F9295907F822F8F7056
:10286000892B8583C8010E94B51186E0F801AAEE84
:10287000B1E001900D928A95E1F742C086E0F8013F
:10288000AAEEB1E001900D928A95E1F75EC04D8706
:102890005E878D859E850E942712811163CF80916E
:1028A000EF0181608093EF01C8010E94B5114DC016
:1028B0007A2DB98AA88A6E2D89890E942C1286E009
:1028C000F60111928A95E9F71BC0EE2009F461CF59
:1028D0004D875E878D859E850E942712F82E88235E
:1028E00009F457CF86E0F801AAEEB1E001900D920D
:1028F0008A95E1F78AEE91E00E943F0E0E947A12DB
:102900000E946C1222C04D875E878D859E850E9435
:102910008E17292F22952F70223028F49F7039F0BE
:10292000811105C00BC0243028F49F7049F4805EEB
:10293000883020F0C8010E94B5119F2CF92C05C0E9
:10294000F8019581907F99F7F9CF8F2D61960FB699
:10295000F894DEBF0FBECDBFDF91CF911F910F91D5
:10296000FF90EF90DF90CF90BF90AF909F90089531
:102970001F93CF93DF93CDB7DEB72C970FB6F894A4
:10298000DEBF0FBECDBF4F83588769877A878B879D
:102990009C87CE0107960E94E6128823D1F09F8182
:1029A00088852A853B85232B31F08F3F31F481E0E8
:1029B0009F3F19F403C081E001C080E080FD47C063
:1029C0004F81588569857A858B859C850E943B124D
:1029D0003EC086E0FE013796DE01119601900D9211
:1029E0008A95E1F7FF81E8856A857B856115710528
:1029F00031F0EF3F31F481E0FF3F19F403C081E093
:102A000001C080E080FD23C02091B90130E0C90100
:102A10000196877099274091B80150E08417950777
:102A2000F1F1F983EA837D836C8396E0929FD00174
:102A3000939FB00D1124A654BE4FFE013196019014
:102A40000D929A95E1F78093B9010E944B1216E01E
:102A50008091B8019091B901891771F1189FC00157
:102A6000112486549E4F0E94E612882329F1E0919A
:102A7000B8011E9FF0011124E654FE4F40815181A0
:102A800062817381848195810E943B128091B8019B
:102A900090E00196877099278093B801D9CF0E9462
:102AA000FF111092B9011092B801EAEEF1E086E050
:102AB000DF011D928A95E9F72C960FB6F894DEBFD8
:102AC0000FBECDBFDF91CF911F910895EF92FF927E
:102AD0000F931F93CF93DF938C01892B09F46CC064
:102AE000F12CEE24E394E8012196F80184918437D7
:102AF00040F4843008F051C0813081F0823019F107
:102B00005BC0853709F444C0A8F19CE7980F903763
:102B100008F052C08F770E94F40E41C00E5F1F4F25
:102B2000FE01849190E2980F983050F48770FE2D4A
:102B300001C0FF0F8A95EAF78F2F0E94F01714C08B
:102B40000E94450E2DC00E5F1F4FFE01849190E242
:102B5000980F983060F48770FE2D01C0FF0F8A95A2
:102B6000EAF78F2F0E94F6170E941B1819C00E94C7
:102B7000F40E16C00E5F1F4FFE01C491CC2381F0EE
:102B80008FE99FE00197F1F700C00000C150F6CF38
:102B90000E5F1F4FFE01F49003C00E94450E8E0190
:102BA0008F2D882309F49FCFEFE9FFE03197F1F7EC
:102BB00000C000008150F5CFDF91CF911F910F91A0
:102BC000FF90EF900895089508950C94E4150C94E7
:102BD000E5150E94E715609312027093130280932B
:102BE0001402909315020C94E5110C94E9150F93BF
:102BF0001F93009112021091130220911402309140
:102C00001502602B712B822B932B1F910F910C942B
:102C1000E9150F931F930091120210911302209156
:102C200014023091150260237123822393231F9194
:102C30000F910C94E9150F931F93009112021091BC
:102C40001302209114023091150260277127822708
:102C500093271F910F910C94E9150C94A0040E94E6
:102C60002D1660930E0270930F02809310029093C2
:102C700011020C94E51160E070E0CB010C942F166A
:102C80000F931F9341E050E060E070E08A019B01E8
:102C900004C0000F111F221F331F8A95D2F7C901EC
:102CA000B8011F910F910C942F160F931F9341E0C1
:102CB00050E060E070E004C0440F551F661F771FAE
:102CC0008A95D2F780910E0290910F02A091100286
:102CD000B09111028A019B01082B192B2A2B3B2B47
:102CE000C901B8011F910F910C942F160F931F93D8
:102CF00041E050E060E070E004C0440F551F661FE3
:102D0000771F8A95D2F74095509560957095809180
:102D10000E0290910F02A0911002B09111028A014F
:102D20009B01082319232A233B23C901B8011F91C2
:102D30000F910C942F160F931F9341E050E060E029
:102D400070E004C0440F551F661F771F8A95D2F7A5
:102D500080910E0290910F02A0911002B091110289
:102D60008A019B01082719272A273B27C901B80197
:102D70001F910F910C942F160F931F9300910E0229
:102D800010910F022091100230911102602B712BD3
:102D9000822B932B1F910F910C942F160F931F933F
:102DA00000910E0210910F02209110023091110239
:102DB00060237123822393231F910F910C942F166C
:102DC0000F931F9300910E0210910F022091100299
:102DD0003091110260277127822793271F910F914D
:102DE0000C942F160895292F220F920F990F890FF7
:102DF000E82FE695E695E695877051E001C0550FFE
:102E00008A95EAF785E0E89FF0011124E051FE4F32
:102E100020E030E070E04081CB01022E02C09695A8
:102E200087950A94E2F7817081958427852384270A
:102E300081932F5F3F4F2530310569F70895292F82
:102E4000220F920F990F890F682F669566956695E8
:102E5000982F977085E0689FB001112440E050E002
:102E600080E0FB01E40FF51FE051FE4F208130E0D0
:102E7000092E02C0369527950A94E2F72170332770
:102E8000042E01C0220F0A94EAF7822B4F5F5F4F96
:102E90004530510531F70895BF92CF92DF92EF92FE
:102EA000FF920F931F93CF93DF938C01C0900E027C
:102EB000D0900F02E0901002F09011028091120267
:102EC00090911302A0911402B0911502C82AD92A38
:102ED000EA2AFB2ACFE1D0E0D701C6010C2E04C0BC
:102EE000B695A795979587950A94D2F780FD04C06B
:102EF000219790F7B12C07C0BC2EB8018C2F0E94EF
:102F0000F2050197A9F38B2DDF91CF911F910F91BE
:102F1000FF90EF90DF90CF90BF900895CF93DF9315
:102F2000EC010E944C17BE010E94F205DF91CF9187
:102F300008951F93CF93DF93EB019091B7019923ED
:102F400021F0CB010E948E1713C0882349F0CB01DA
:102F50000E944C17182F682FCE010E94F31604C050
:102F6000CB010E941F17182FBE01812F0E94F2056E
:102F7000DF91CF911F9108958091160285958595D7
:102F80008595089580911602877008959091160294
:102F9000977081E009F480E00895809122020895FD
:102FA00090912202892B809322020895809590911E
:102FB000220289238093220208951092220208950A
:102FC00090912102892B8093210208958095909100
:102FD00021028923809321020895109221020895ED
:102FE00090912002892B80932002089580959091E2
:102FF00020028923809320020895109220020895D0
:1030000080911702089508950C9403180C940418E5
:1030100090911702981721F0809317020C940618CC
:10302000089580911702882329F01092170280E0FA
:103030000C9406180895E0910901F0910A0180911D
:1030400022028083E0910901F0910A019081809130
:103050002102892B8083E0910901F0910A0190817E
:1030600080912002892B808380911702882381F030
:10307000E0910901F0910A019081892B8083809170
:10308000090190910A010E942A1981110E941118C8
:103090008091090190910A010C94140D0C9403186D
:1030A00098E0899F90011124262B209316020E94FC
:1030B0005516809116028595859585950C944E1828
:1030C0001092160280E00C944E1820911602809502
:1030D000822380931602982F977079F430E0482F5E
:1030E000082E000C550B2417350739F0859585956A
:1030F00085950E9476160C946018089580E090E003
:103100000E943C2621E08C3E9E4F09F020E0822F59
:10311000089582E090E00C94342683E090E00C94D3
:103120003426682F83E090E00C944226CF9384E00D
:1031300090E00E943426C82F81E290E00E9434265D
:103140002C2F30E0A901582BCA01CF910895CF93BD
:10315000C92F682F84E090E00E9442266C2F81E204
:1031600090E0CF910C944226AB01BC018FE090E03F
:103170000C945426AB01BC0183E190E00C945426DE
:1031800060E070E0CB010C94BA1860E070E0CB0115
:103190000E94B4180C94C0186CEE7EEF80E090E0B2
:1031A0000E94602660E082E090E00E94422660E09B
:1031B00083E090E00E9442261092120210921302C5
:1031C000109214021092150260E084E090E00E94D8
:1031D000422660E081E290E00E94422660E085E0C5
:1031E00090E00E94422660E086E090E00E94422645
:1031F0006FEF87E090E00E94422640E050E0BA0185
:1032000088E090E00E94542660E08DE090E00E940B
:10321000422640E050E0BA0188E190E00E94542646
:1032200060E087E190E00E94422640E050E0BA0171
:103230008CE190E00E94542660E080E290E00E94E1
:1032400042260C94C5180C94CC18682F8EE090E0A0
:103250000C944226FC01329697E080E0915029F0D0
:1032600021912223D9F38F5FF9CF0895662349F086
:10327000FC01329608962191621729F0E817F907A8
:10328000D1F780E0089581E008959C01FC01329619
:103290009FEF80E04191461789F09F3F19F441115B
:1032A00001C0982F8F5F8630A9F79F3F39F0F90151
:1032B000E90FF11D97FDFA956283089508959C0129
:1032C0002A5F3F4FFC014281461301C012820196E2
:1032D00082179307B9F708950C9445190C945F1958
:1032E000029626E0FC0111922A95E9F708950895C7
:1032F0000C9477190C947719CF930E947A190E9435
:1033000082080E947819C0E08C2F0E94E107811189
:1033100004C0CF5FC830C1F701C081E0CF910895EC
:103320000C9477190C9490190E94921980915C0268
:10333000843049F11092240220E488E190E00FB635
:10334000F894A895809360000FBE2093600080E001
:103350000E947D050E94921983B7817F846083BF9C
:1033600083B7816083BF7894889583B78E7F83BF4E
:103370000FB6F894A89580916000886180936000F2
:10338000109260000FBE08950C9477190E94FF11EF
:103390000E94080D0E947D050C94C4191F920F9283
:1033A0000FB60F9211248F939F93AF93BF93809189
:1033B0002402811113C08091520290915302A09176
:1033C0005402B09155024196A11DB11D8093520245
:1033D00090935302A0935402B0935502BF91AF91C2
:1033E0009F918F910F900FBE0F901F90189582E0C4
:1033F00084BD93E095BD9AEF97BD80936E000895CC
:103400002FB7F8948091520290915302A0915402E8
:10341000B09155022FBF08959C014FB7F894809149
:10342000520290915302A0915402B09155024FBFA5
:10343000821B930B089578941F920F920FB60F92F0
:1034400011248F939F93AF93BF93809152029091D9
:103450005302A0915402B09155020196A11DB11DD5
:103460008093520290935302A0935402B09355025A
:10347000BF91AF919F918F910F900FBE0F901F90B2
:10348000189587E797E790930108809300089AE0E2
:1034900088E10FB6F894A895809360000FBE9093D2
:1034A0006000FFCF0E947E18811102C00E94231984
:1034B0000E948918809323020E94961890935702C5
:1034C000809356020E948D18682F70E080E090E093
:1034D0000C94F51580912C0280FF0BC060911001B7
:1034E00085E0689FB001112475956795759567957E
:1034F0002BC081FF09C06091100185E0689FB00179
:1035000011247595679520C082FF07C06091100156
:1035100085E0689FB001112417C090912B02992378
:10352000D1F060910F01961788F72091100185E086
:10353000289F90011124929FA001939F500D112468
:1035400070E0CA010E9406266038710540F46115DA
:10355000710519F406C065E070E0862F08958FE7C5
:10356000089581E0089580912C0280FF08C0609149
:103570000C0170E0759567957595679521C081FF81
:1035800006C060910C0170E07595679519C082FFC7
:1035900004C060910C0170E010C090912B0299233F
:1035A00099F060910B019617A0F780910C01899F0B
:1035B000C001112470E00E9406266038710540F4B5
:1035C0006115710519F406C061E070E0862F089559
:1035D0008FE7089581E00895803F21F40E946A1AE0
:1035E000819504C0813F29F40E946A1A80933002B9
:1035F0000895823F21F40E946A1A819504C0833F96
:1036000029F40E946A1A80932F020895893F19F4C1
:103610000E94B31A05C08A3F31F40E94B31A819503
:103620008093310208958B3F21F40E94B31A819553
:1036300004C08C3F29F40E94B31A8093320208958B
:10364000843F21F480912E02816017C0853F21F4D0
:1036500080912E02826011C0863F21F480912E025B
:1036600084600BC0873F21F480912E02886005C0E2
:10367000883F31F480912E02806180932E0208955C
:103680008D3F21F480912C0281600BC08E3F21F48C
:1036900080912C02826005C08F3F29F480912C021A
:1036A000846080932C020895803F39F48091300229
:1036B00087FF6CC01092300269C0813F29F480916D
:1036C00030021816BCF362C090912F02823F29F499
:1036D00097FF5CC010922F0259C0833F19F419164E
:1036E000CCF354C0893F41F48091310218160CF09C
:1036F0004DC0109231024AC08A3F29F480913102B4
:1037000087FF44C0F6CF8B3F39F48091320287FFA8
:103710003DC0109232023AC08C3F29F480913202AF
:103720001816BCF333C0843F21F480912E028E7FA3
:1037300017C0853F21F480912E028D7F11C0863FF6
:1037400021F480912E028B7F0BC0873F21F4809162
:103750002E02877F05C0883F31F480912E028F7E34
:1037600080932E0213C08D3F21F480912C028E7F16
:103770000BC08E3F21F480912C028D7F05C08F3FBE
:1037800029F480912C028B7F80932C0280912F0250
:1037900081110EC08091300281110AC080913102E6
:1037A000811106C080913202811102C010922B0259
:1037B00008958DE292E00E941F0D0E94001A9093DE
:1037C0002A02809329020895CF93DF9300D000D07E
:1037D00000D0CDB7DEB786E0EDE2F2E0DE01119673
:1037E00001900D928A95E1F780912F02811105C019
:1037F00080913002882309F47AC080912702909149
:1038000028020E940C1AAC0190912B02992339F0E6
:103810002091110130E02417350758F068C020913D
:1038200012018AE0289F900111242417350718F00F
:103830005EC09F3F19F09F5F90932B021092310260
:103840001092320280912F02181624F40E946A1AF4
:1038500080932F0280912F0287FF05C00E946A1A71
:10386000819580932F0280913002181624F40E94D3
:103870006A1A809330028091300287FF05C00E944F
:103880006A1A81958093300230912F023323E1F040
:10389000209130022223C1F045EB3403C0011124F2
:1038A000992319F090932F0203C081E080932F0297
:1038B00035EB2303C0011124992319F090933002B2
:1038C00003C081E0809330020E94D91B80912902BD
:1038D00090912A02909328028093270286E0FE01AD
:1038E0003196ADE2B2E001900D928A95E1F78091B8
:1038F0003102811105C080913202882309F47AC017
:1039000080912502909126020E940C1AAC019091A0
:103910002B02992339F020910D0130E0241735074F
:1039200058F068C020910E018AE0289F9001112470
:103930002417350718F05EC09F3F19F09F5F9093E2
:103940002B0210922F021092300280913102181631
:1039500024F40E94B31A809331028091310287FFD0
:1039600005C00E94B31A8195809331028091320282
:10397000181624F40E94B31A809332028091320206
:1039800087FF05C00E94B31A81958093320230915F
:1039900031023323E1F0209132022223C1F045EBC2
:1039A0003403C0011124992319F09093310203C00C
:1039B00081E08093310235EB2303C0011124992368
:1039C00019F09093320203C081E0809332020E948A
:1039D000D91B8091290290912A029093260280930C
:1039E000250286E0FE013196ADE2B2E001900D9233
:1039F0008A95E1F726960FB6F894DEBF0FBECDBFCD
:103A0000DF91CF910895EDE2F2E086E0DF011D92B3
:103A10008A95E9F710922B0210922C0208958330B8
:103A200081F128F4813059F08230D1F00895853049
:103A300009F449C0B8F1863009F456C00895809160
:103A40001201262F30E0280F311D2F3F310524F4BD
:103A5000680F6093120108958FEF8093120108950B
:103A600080911101262F30E0280F311D2F3F3105A5
:103A700024F4680F6093110108958FEF8093110172
:103A8000089580911001262F30E0280F311D2F3F1F
:103A9000310524F4680F6093100108958FEF80932F
:103AA0001001089580910F01262F30E0280F311D5D
:103AB0002F3F310524F4680F60930F0108958FEFB5
:103AC00080930F01089580910C01262F30E0280F7C
:103AD000311D2F3F310524F4680F60930C010895C8
:103AE0008FEF80930C01089580910B01262F30E019
:103AF000280F311D2F3F310524F4680F60930B010F
:103B000008958FEF80930B010895833011F128F40D
:103B1000813049F0823091F00895853081F120F1B3
:103B20008630C1F1089580911201681720F4861B38
:103B3000809312010895109212010895809111014D
:103B4000681720F4861B80931101089510921101CB
:103B5000089580911001681720F4861B809310014E
:103B6000089510921001089580910F01681720F4B4
:103B7000861B80930F01089510920F010895809184
:103B80000C01681720F4861B80930C010895109295
:103B90000C01089580910B01681720F4861B809317
:103BA0000B01089510920B0108950F931F9341E0AC
:103BB00050E060E070E08A019B0104C0000F111F1B
:103BC000221F331F8A95D2F7C901B8010E94F5154B
:103BD0001F910F910C94FF118B3109F468C058F5B7
:103BE0008B3009F486C078F4863009F445C020F49F
:103BF000853009F44BC07FC0873009F44AC0883053
:103C000009F477C078C0803109F464C068F48E305C
:103C100009F071C08091230282FB222720F991E0F4
:103C2000922790FB82F94CC0863109F462C0893139
:103C300009F45FC060C08A32E1F060F4873209F4B1
:103C400055C028F48E3108F456C08D5150C08932C9
:103C5000E9F051C0833450F48A3308F045C085330D
:103C600009F444C0883309F444C045C08334F1F1F9
:103C700042C00E9423193DC080912302817F8E7F24
:103C80008093230281E08093340208950E94870587
:103C900030C080912302982F9095917090FB80F90D
:103CA00080932302911125C0897F877F10C0809166
:103CB000230281FB222720F991E0922790FB81F9D2
:103CC000809323029923A9F080912302816080933D
:103CD00023020FC08091230283FB222720F991E069
:103CE000922790FB83F9ECCF895301C080E00E94BA
:103CF000D51D81E0089580E0089580E008950C943A
:103D00007D1E8E518A3030F4E82FF0E0E257FE4FEE
:103D10008081089580E00895CF93C82F8091340268
:103D2000813051F018F0823099F17DC00E94CD179A
:103D3000823209F07AC004C00E94CD17823261F449
:103D40008C2F0E947F1E811104C08C2F0E94EC1DBD
:103D50001DC081E090E01AC08C2F0E947D1E811151
:103D600014C0C43179F048F4CB3079F0C03109F097
:103D700060C082E08093340208C0C93219F0C833B1
:103D800021F057C01092340254C081E0817053C0BA
:103D9000C93289F118F5C43171F1B0F4C73009F0B6
:103DA00046C08EE18093120182E3809311018AE084
:103DB0008093100184E180930F0188E080930C01CF
:103DC00088E280930B0133C082EE8C0F863078F549
:103DD0008C2F0E94811E8093330229C0CE34E9F0DB
:103DE00020F4CB3421F56AE013C0C13579F0C23537
:103DF000F1F461E00DC080913302882319F0109234
:103E0000330215C081E08093340215C061E006C022
:103E1000809133020E940F1D0AC06AE08091330234
:103E20000E94851D04C01092340280E004C081E02D
:103E300002C080E0ABCFCF91089580913D020895FC
:103E4000CF93DF9300D01F92CDB7DEB790915C0285
:103E5000943019F589837B836A8382E08093E9003B
:103E60008FEF9091E800815095FD06C095ED9A95F1
:103E7000F1F700008111F5CF8091E80085FF0DC0BA
:103E800040E050E063E070E0CE0101960E946821BE
:103E90008091E8008E778093E8000F900F900F904C
:103EA000DF91CF910895CF93DF93EC010E944B21D6
:103EB000823011F0843031F4BE0184E0DF91CF9183
:103EC0000C94201FDF91CF910895BC0183E00C94E6
:103ED000201FCF93DF93EC010E944B21823011F021
:103EE0008430F9F482E08093E9008FEF9091E8004C
:103EF000815095FD06C095ED9A95F1F7000081116E
:103F0000F5CF8091E80085FF0CC040E050E066E00E
:103F100070E0CE010E9468218091E8008E77809346
:103F2000E800DF91CF910895CF93DF93EC010E94D9
:103F30004B21823011F0843039F581E08093E90023
:103F40008FEF9091E800815095FD06C095ED9A9510
:103F5000F1F700008111F5CF8091E80085FF14C0D2
:103F600040E050E068E070E0CE010E94682180915E
:103F7000E8008E778093E80088E0FE01A5E3B2E0D8
:103F800001900D928A95E1F7DF91CF91089580918C
:103F90005B02811109C00E94F9220E945623809180
:103FA000E20084608093E200089510925B0208951D
:103FB000089508950C94C61942E061EC81E00E94D6
:103FC000722242E261EC82E00C94722280915E02E5
:103FD000833009F460C030F4813071F0823009F42C
:103FE00099C008958A3009F485C08B3009F46BC0FC
:103FF000893009F0A7C020C080915D02813A09F0A4
:10400000A1C08091E800877F8093E80080916102E1
:1040100090916202892B21F468E085E392E003C06D
:1040200060E080E090E070E00E94B3218091E800C1
:104030008B778093E800089580915D02813209F0CA
:1040400081C08091610290916202029708F07AC06B
:104050008091E800877F8093E8008091E80082FDEE
:1040600005C080915C028111F8CF6CC02091F300F3
:104070008091F20090E0922B029729F48091F10058
:104080008B7F813021F48091F10080933D028091FB
:10409000E8008B7753C080915D02813A09F052C0ED
:1040A0008091610290916202892B09F04BC080914E
:1040B000E800877F8093E8008091E80080FFFCCFD4
:1040C00080911D0136C080915D028132D9F58091C9
:1040D000610290916202892BA9F58091E800877FA7
:1040E0008093E8000E94A72280915F0280931D01C7
:1040F0000C94FF1180915D02813221F58091E800DE
:10410000877F8093E8000E94A722809160028093BD
:104110003E02089580915D02813AA1F48091E80009
:10412000877F8093E8008091E80080FFFCCF80913A
:104130003E028093F1008091E8008E778093E80042
:104140000C94A722089584B7877F84BF0FB6F89494
:10415000A895809160008861809360001092600053
:104160000FBE90E080E80FB6F894809361009093C2
:1041700061000FBE0E94690D0E94F9220E94562321
:104180008091E20084608093E20078940E94EB25A5
:104190000E94710D83E191E00E94030D80915C0209
:1041A000853069F40E94941980915A028823B1F3F2
:1041B0000E947C19882391F30E945221EFCF0E9424
:1041C000790DECCF0C94E420292F332723303105CF
:1041D000C9F060F42130310581F02230310509F059
:1041E0004AC08BE390E02CE937E049C02132310529
:1041F00011F12232310579F13EC082E190E027EDE4
:1042000037E03DC099278130910561F040F0823060
:10421000910559F0039779F5ECE5F7E008C0E8E976
:10422000F7E005C0E0E8F7E002C0E2E6F7E08491DD
:1042300090E09F0124C06115710541F06130710566
:10424000D1F489E090E027EC37E019C089E090E0F4
:104250002EEA37E014C06115710541F06130710537
:1042600051F481E890E029EE37E009C080E490E065
:104270002AE638E004C080E090E020E030E0FA0177
:1042800031832083089580915C02843011F081E0B5
:10429000089582E0089580913F02811102C00C943C
:1042A0004321089580E189BD82E189BD09B400FE02
:1042B000FDCF8091D8008F7D8093D8008091E00061
:1042C00082608093E0008091E00081FDFCCF089542
:1042D000CF92DF92EF92FF920F931F93CF93DF93D2
:1042E000EC018B017A010E94C622811133C0E114D6
:1042F000F10439F0F70180819181081B190BC80F77
:10430000D91FC12CD12C0115110519F18091E8009C
:1043100085FD16C08091E8008E778093E800E11457
:10432000F10449F0F70180819181C80ED91ED18234
:10433000C08285E00FC00E94C622882321F30AC0F4
:1043400089918093F10001501109FFEFCF1ADF0A24
:10435000DACF80E0DF91CF911F910F91FF90EF9026
:10436000DF90CF9008952091630230916402261768
:10437000370748F06115710539F42091E8002E7770
:104380002093E80001C0B901FC0120E0611571052E
:1043900079F180915C028823F1F18530F1F180910F
:1043A000E80083FD3CC08091E80082FD2EC0809132
:1043B000E80080FFEBCF2091F3008091F20090E0C5
:1043C000922B6115710551F08830910538F42191D7
:1043D0002093F100615071090196F3CF21E0089715
:1043E00009F020E08091E8008E778093E800CECF3E
:1043F0002111CFCF0AC080915C02882361F0853003
:1044000061F08091E80083FD0AC08091E80082FF9E
:10441000F2CF80E0089582E0089583E0089581E07E
:10442000089520916302309164022617370748F0FF
:104430006115710539F42091E8002E772093E8008A
:1044400001C0B901FC0120E06115710591F1809175
:104450005C02882309F440C0853009F43FC0809194
:10446000E80083FD3DC08091E80082FD2FC080916F
:10447000E80080FFE9CF2091F3008091F20090E006
:10448000922B6115710559F08830910540F4249103
:104490002093F1003196615071090196F2CF21E02D
:1044A000089709F020E08091E8008E778093E8007B
:1044B000CBCF2111CCCF0AC080915C02882361F060
:1044C000853061F08091E80083FD0AC08091E800AA
:1044D00082FFF2CF80E0089582E0089583E008959E
:1044E00081E00895982F973068F59093E900981728
:1044F00039F07091EC002091ED005091F00003C074
:10450000242F762F50E021FD02C09F5FECCF309129
:10451000EB003E7F3093EB003091ED003D7F309318
:10452000ED003091EB0031603093EB007093EC00C4
:104530002093ED005093F0002091EE0027FDE5CF91
:1045400080E008958F708093E90081E00895809164
:104550005D0287FF11C08091E80082FD05C0809157
:104560005C028111F8CF11C08091E8008B770BC0FD
:1045700080915C02882349F08091E80080FFF8CFA9
:104580008091E8008E778093E80008952091E40000
:104590003091E50095E64091EC00842F817040FF5A
:1045A00023C08091E80080FD1DC080915C028823BB
:1045B00099F0853099F08091EB0085FD11C0409114
:1045C000E4005091E5002417350729F3915011F0CC
:1045D0009A01E1CF84E0089582E0089583E0089590
:1045E00081E0089580E008954091E80042FFDDCF2A
:1045F00008950E9467230E946F23E0EEF0E080811F
:1046000081608083E8EDF0E080818F77808319BC42
:10461000A7EDB0E08C918E7F8C9380818F7E80831C
:1046200010925B0208950F931F93CF93DF930E9424
:1046300067230E946F23C8EDD0E088818F7788833D
:1046400088818068888388818F7D888319BC1092D7
:104650005C021092580210925A021092590200EE17
:1046600010E0F80180818B7F80838881816088835E
:1046700042E060E080E00E947222E1EEF0E08081A2
:104680008E7F8083E2EEF0E0808181608083808194
:1046900088608083F80180818E7F8083888180613B
:1046A0008883DF91CF911F910F910895E8EDF0E09D
:1046B00080818F7E8083E7EDF0E080818160808360
:1046C00084E082BF81E080935B020C941323E8EDC9
:1046D000F0E080818E7F80831092E2000895109236
:1046E000DA001092E10008951F920F920FB60F9218
:1046F00011242F933F934F935F936F937F938F93E7
:104700009F93AF93BF93EF93FF938091E10082FF5C
:104710000BC08091E20082FF07C08091E1008B7F97
:104720008093E1000E94EA258091DA0080FF1FC09B
:104730008091D80080FF1BC08091DA008E7F80932B
:10474000DA008091D90080FF0DC080E189BD82E14F
:1047500089BD09B400FEFDCF81E080935C020E9418
:10476000C71F05C019BC10925C020E94D51F809122
:10477000E10080FF19C08091E20080FF15C08091A8
:10478000E2008E7F8093E2008091E200806180935E
:10479000E2008091D80080628093D80019BC85E047
:1047A00080935C020E94D91F8091E10084FF30C099
:1047B0008091E20084FF2CC080E189BD82E189BD47
:1047C00009B400FEFDCF8091D8008F7D8093D80082
:1047D0008091E1008F7E8093E1008091E2008F7EE6
:1047E0008093E2008091E20081608093E2008091FA
:1047F0005802882311F084E007C08091E30087FD10
:1048000002C081E001C083E080935C020E94DA1F55
:104810008091E10083FF29C08091E20083FF25C0E1
:104820008091E100877F8093E10082E080935C02C9
:10483000109258028091E1008E7F8093E100809178
:10484000E2008E7F8093E2008091E200806180939D
:10485000E20042E060E080E00E9472228091F0007D
:1048600088608093F0000E94D81FFF91EF91BF9164
:10487000AF919F918F917F916F915F914F913F91F8
:104880002F910F900FBE0F901F9018951F920F92AF
:104890000FB60F9211242F933F934F935F936F9313
:1048A0007F938F939F93AF93BF93CF93DF93EF93B8
:1048B000FF93C091E900CF708091EC00D82FD170A8
:1048C00080FDD0E81092E9008091F000877F80930E
:1048D000F00078940E948A241092E9008091F00000
:1048E00088608093F000CD2BCF70C093E900FF91DA
:1048F000EF91DF91CF91BF91AF919F918F917F9178
:104900006F915F914F913F912F910F900FBE0F903C
:104910001F9018951F93CF93DF93CDB7DEB7AA975B
:104920000FB6F894DEBF0FBECDBFEDE5F2E080918B
:10493000F100819322E0E536F207C9F70E94E61FF5
:104940008091E80083FF2EC180915D0290915E020C
:10495000492F50E04A30510508F024C1FA01EC58C3
:10496000FF4F0C941A26803821F0823809F01AC1C2
:1049700008C08091590290915A02992389F082606F
:104980000FC0809161028F70873008F00BC1809357
:10499000E9008091EB0085FB882780F91092E900FF
:1049A0009091E800977F9093E8008093F100109237
:1049B000F100D1C0282F2D7F09F0F4C0882319F011
:1049C000823061F0EFC080915F02813009F0EAC06F
:1049D000933009F080E080935A022EC080915F02EC
:1049E00081112AC0809161028F702FEF280F26302D
:1049F00008F0D8C08093E9002091EB0020FF1CC094
:104A0000933021F48091EB00806214C09091EB0010
:104A100090619093EB0021E030E0A90102C0440FC7
:104A2000551F8A95E2F74093EA001092EA008091C0
:104A3000EB0088608093EB001092E9008091E80021
:104A4000877F8093E8000E94A722ACC08111AAC092
:104A500010915F021F778091E3008078812B809313
:104A6000E3008091E800877F8093E8000E94A722FE
:104A70008091E80080FFFCCF8091E3008068809304
:104A8000E300111102C082E001C083E080935C0268
:104A900089C08058823008F085C080915F02909173
:104AA00060028C3D53E0950779F583E08A838AE2C2
:104AB00089834FB7F894DE01139620E03EE051E27F
:104AC000E32FF0E050935700E49120FF03C0E295FC
:104AD000EF703F5FEF708E2F90E0EA3010F0C796D6
:104AE00001C0C0968D939D932F5F243149F74FBF2E
:104AF0008091E800877F8093E8006AE270E0CE0151
:104B000001960E94B32116C0609161027091620209
:104B1000AE014F5F5F4F0E94E220BC01892B09F478
:104B200041C09091E800977F9093E80089819A8135
:104B30000E9411228091E8008B778093E80032C0B8
:104B4000803881F58091E800877F8093E80080912C
:104B500058028093F1008091E8008E7772CF811126
:104B600021C080915F029091600299270297D4F44E
:104B70008091E800877F8093E80080915F028093B6
:104B800058020E94A72280915802811106C080918C
:104B9000E30087FD02C081E001C084E080935C02F5
:104BA0000E94DC1F8091E80083FF0AC08091E8002A
:104BB000877F8093E8008091EB0080628093EB0018
:104BC000AA960FB6F894DEBF0FBECDBFDF91CF918E
:104BD0001F9108950895CF9380915C028823A1F0DE
:104BE000C091E900CF709091EC00892F817090FD09
:104BF00080E8C82B1092E9008091E80083FD0E94B4
:104C00008A24CF70C093E900CF91089597FB072EB7
:104C100016F4009407D077FD09D00E94202607FCE7
:104C200005D03EF4909581959F4F089570956195BC
:104C30007F4F0895EE0FFF1F0590F491E02D09942A
:104C4000AA1BBB1B51E107C0AA1FBB1FA617B707B2
:104C500010F0A61BB70B881F991F5A95A9F78095CE
:104C60009095BC01CD010895F999FECF92BD81BD0B
:104C7000F89A992780B50895A8E1B0E042E050E0A5
:104C80000C946826262FF999FECF92BD81BDF89A23
:104C9000019700B4021639F01FBA20BD0FB6F89480
:104CA000FA9AF99A0FBE08950396272F0E94432679
:104CB0000E944226252F0E944326242F0C9443262F
:104CC0000196272F0E9443260C944226DC01CB013B
:104CD000FC01F999FECF06C0F2BDE1BDF89A31960C
:104CE00000B40D9241505040B8F70895F894FFCFAA
:104CF000019D01009E01049E0118022808641E14F3
:104D00000A321E1D1F941F691F651F531F01E200F9
:104D1000E900EA00B500B600B700CD008301CC0081
:104D20008A01920194012102230224022502260213
:104D300027022A02B300B4006F007000818283F65C
:104D4000F73133323697C6343500000000E200E90F
:104D500000EA00B500B600B700CD008301CC008AA0
:104D60000192019401210223022402250226022736
:104D7000022A02B300B4006F007000818283010236
:084D8000030405060708090001
:00000001FF
